{"contracts/GuardianAI.sol":{"ReputationRegistry":{"abi":[{"inputs":[{"internalType":"address","name":"_oracle","type":"address"}],"stateMutability":"nonpayable","type":"constructor"},{"inputs":[{"internalType":"address","name":"owner","type":"address"}],"name":"OwnableInvalidOwner","type":"error"},{"inputs":[{"internalType":"address","name":"account","type":"address"}],"name":"OwnableUnauthorizedAccount","type":"error"},{"anonymous":false,"inputs":[{"indexed":true,"internalType":"address","name":"previousOwner","type":"address"},{"indexed":true,"internalType":"address","name":"newOwner","type":"address"}],"name":"OwnershipTransferred","type":"event"},{"anonymous":false,"inputs":[{"indexed":true,"internalType":"uint256","name":"agentId","type":"uint256"},{"indexed":false,"internalType":"uint32","name":"score","type":"uint32"},{"indexed":false,"internalType":"uint256","name":"timestamp","type":"uint256"}],"name":"ReputationUpdated","type":"event"},{"inputs":[{"internalType":"uint256","name":"agentId","type":"uint256"}],"name":"getReputation","outputs":[{"components":[{"internalType":"uint256","name":"agentId","type":"uint256"},{"internalType":"uint32","name":"safeTrades","type":"uint32"},{"internalType":"uint32","name":"rejectedTrades","type":"uint32"},{"internalType":"int32","name":"drawdownBps","type":"int32"},{"internalType":"int32","name":"sharpeBps","type":"int32"},{"internalType":"uint32","name":"reputationScore","type":"uint32"},{"internalType":"uint256","name":"lastUpdated","type":"uint256"}],"internalType":"struct ReputationRegistry.ReputationRecord","name":"","type":"tuple"}],"stateMutability":"view","type":"function"},{"inputs":[],"name":"oracle","outputs":[{"internalType":"address","name":"","type":"address"}],"stateMutability":"view","type":"function"},{"inputs":[],"name":"owner","outputs":[{"internalType":"address","name":"","type":"address"}],"stateMutability":"view","type":"function"},{"inputs":[{"internalType":"uint256","name":"","type":"uint256"}],"name":"records","outputs":[{"internalType":"uint256","name":"agentId","type":"uint256"},{"internalType":"uint32","name":"safeTrades","type":"uint32"},{"internalType":"uint32","name":"rejectedTrades","type":"uint32"},{"internalType":"int32","name":"drawdownBps","type":"int32"},{"internalType":"int32","name":"sharpeBps","type":"int32"},{"internalType":"uint32","name":"reputationScore","type":"uint32"},{"internalType":"uint256","name":"lastUpdated","type":"uint256"}],"stateMutability":"view","type":"function"},{"inputs":[],"name":"renounceOwnership","outputs":[],"stateMutability":"nonpayable","type":"function"},{"inputs":[{"internalType":"address","name":"_oracle","type":"address"}],"name":"setOracle","outputs":[],"stateMutability":"nonpayable","type":"function"},{"inputs":[{"internalType":"address","name":"newOwner","type":"address"}],"name":"transferOwnership","outputs":[],"stateMutability":"nonpayable","type":"function"},{"inputs":[{"internalType":"uint256","name":"agentId","type":"uint256"},{"internalType":"uint32","name":"safeTrades","type":"uint32"},{"internalType":"uint32","name":"rejectedTrades","type":"uint32"},{"internalType":"int32","name":"drawdownBps","type":"int32"},{"internalType":"int32","name":"sharpeBps","type":"int32"},{"internalType":"uint32","name":"reputationScore","type":"uint32"}],"name":"updateReputation","outputs":[],"stateMutability":"nonpayable","type":"function"}],"evm":{"bytecode":{"linkReferences":{},"object":"608060405234801561000f575f80fd5b50604051610e8e380380610e8e83398181016040528101906100319190610217565b335f73ffffffffffffffffffffffffffffffffffffffff168173ffffffffffffffffffffffffffffffffffffffff16036100a2575f6040517f1e4fbdf70000000000000000000000000000000000000000000000000000000081526004016100999190610251565b60405180910390fd5b6100b1816100f860201b60201c565b508060015f6101000a81548173ffffffffffffffffffffffffffffffffffffffff021916908373ffffffffffffffffffffffffffffffffffffffff1602179055505061026a565b5f805f9054906101000a900473ffffffffffffffffffffffffffffffffffffffff169050815f806101000a81548173ffffffffffffffffffffffffffffffffffffffff021916908373ffffffffffffffffffffffffffffffffffffffff1602179055508173ffffffffffffffffffffffffffffffffffffffff168173ffffffffffffffffffffffffffffffffffffffff167f8be0079c531659141344cd1fd0a4f28419497f9722a3daafe3b4186f6b6457e060405160405180910390a35050565b5f80fd5b5f73ffffffffffffffffffffffffffffffffffffffff82169050919050565b5f6101e6826101bd565b9050919050565b6101f6816101dc565b8114610200575f80fd5b50565b5f81519050610211816101ed565b92915050565b5f6020828403121561022c5761022b6101b9565b5b5f61023984828501610203565b91505092915050565b61024b816101dc565b82525050565b5f6020820190506102645f830184610242565b92915050565b610c17806102775f395ff3fe608060405234801561000f575f80fd5b5060043610610086575f3560e01c80637dc0d1d0116100595780637dc0d1d01461010257806389370d8b146101205780638da5cb5b14610150578063f2fde38b1461016e57610086565b80632dac5eb31461008a57806334461067146100a6578063715018a6146100dc5780637adbf973146100e6575b5f80fd5b6100a4600480360381019061009f9190610875565b61018a565b005b6100c060048036038101906100bb91906108fe565b610394565b6040516100d39796959493929190610956565b60405180910390f35b6100e461041b565b005b61010060048036038101906100fb9190610a1d565b61042e565b005b61010a610479565b6040516101179190610a57565b60405180910390f35b61013a600480360381019061013591906108fe565b61049e565b6040516101479190610b29565b60405180910390f35b610158610587565b6040516101659190610a57565b60405180910390f35b61018860048036038101906101839190610a1d565b6105ae565b005b60015f9054906101000a900473ffffffffffffffffffffffffffffffffffffffff1673ffffffffffffffffffffffffffffffffffffffff163373ffffffffffffffffffffffffffffffffffffffff1614610219576040517f08c379a000000000000000000000000000000000000000000000000000000000815260040161021090610b9c565b60405180910390fd5b6040518060e001604052808781526020018663ffffffff1681526020018563ffffffff1681526020018460030b81526020018360030b81526020018263ffffffff1681526020014281525060025f8881526020019081526020015f205f820151815f01556020820151816001015f6101000a81548163ffffffff021916908363ffffffff16021790555060408201518160010160046101000a81548163ffffffff021916908363ffffffff16021790555060608201518160010160086101000a81548163ffffffff021916908360030b63ffffffff160217905550608082015181600101600c6101000a81548163ffffffff021916908360030b63ffffffff16021790555060a08201518160010160106101000a81548163ffffffff021916908363ffffffff16021790555060c08201518160020155905050857f6b16f5c437ec90fdb811b46f7d2ba32de141931aab7cc27f1b85e6ca10db6be78242604051610384929190610bba565b60405180910390a2505050505050565b6002602052805f5260405f205f91509050805f015490806001015f9054906101000a900463ffffffff16908060010160049054906101000a900463ffffffff16908060010160089054906101000a900460030b9080600101600c9054906101000a900460030b908060010160109054906101000a900463ffffffff16908060020154905087565b610423610632565b61042c5f6106b9565b565b610436610632565b8060015f6101000a81548173ffffffffffffffffffffffffffffffffffffffff021916908373ffffffffffffffffffffffffffffffffffffffff16021790555050565b60015f9054906101000a900473ffffffffffffffffffffffffffffffffffffffff1681565b6104a6610781565b60025f8381526020019081526020015f206040518060e00160405290815f8201548152602001600182015f9054906101000a900463ffffffff1663ffffffff1663ffffffff1681526020016001820160049054906101000a900463ffffffff1663ffffffff1663ffffffff1681526020016001820160089054906101000a900460030b60030b60030b815260200160018201600c9054906101000a900460030b60030b60030b81526020016001820160109054906101000a900463ffffffff1663ffffffff1663ffffffff1681526020016002820154815250509050919050565b5f805f9054906101000a900473ffffffffffffffffffffffffffffffffffffffff16905090565b6105b6610632565b5f73ffffffffffffffffffffffffffffffffffffffff168173ffffffffffffffffffffffffffffffffffffffff1603610626575f6040517f1e4fbdf700000000000000000000000000000000000000000000000000000000815260040161061d9190610a57565b60405180910390fd5b61062f816106b9565b50565b61063a61077a565b73ffffffffffffffffffffffffffffffffffffffff16610658610587565b73ffffffffffffffffffffffffffffffffffffffff16146106b75761067b61077a565b6040517f118cdaa70000000000000000000000000000000000000000000000000000000081526004016106ae9190610a57565b60405180910390fd5b565b5f805f9054906101000a900473ffffffffffffffffffffffffffffffffffffffff169050815f806101000a81548173ffffffffffffffffffffffffffffffffffffffff021916908373ffffffffffffffffffffffffffffffffffffffff1602179055508173ffffffffffffffffffffffffffffffffffffffff168173ffffffffffffffffffffffffffffffffffffffff167f8be0079c531659141344cd1fd0a4f28419497f9722a3daafe3b4186f6b6457e060405160405180910390a35050565b5f33905090565b6040518060e001604052805f81526020015f63ffffffff1681526020015f63ffffffff1681526020015f60030b81526020015f60030b81526020015f63ffffffff1681526020015f81525090565b5f80fd5b5f819050919050565b6107e5816107d3565b81146107ef575f80fd5b50565b5f81359050610800816107dc565b92915050565b5f63ffffffff82169050919050565b61081e81610806565b8114610828575f80fd5b50565b5f8135905061083981610815565b92915050565b5f8160030b9050919050565b6108548161083f565b811461085e575f80fd5b50565b5f8135905061086f8161084b565b92915050565b5f805f805f8060c0878903121561088f5761088e6107cf565b5b5f61089c89828a016107f2565b96505060206108ad89828a0161082b565b95505060406108be89828a0161082b565b94505060606108cf89828a01610861565b93505060806108e089828a01610861565b92505060a06108f189828a0161082b565b9150509295509295509295565b5f60208284031215610913576109126107cf565b5b5f610920848285016107f2565b91505092915050565b610932816107d3565b82525050565b61094181610806565b82525050565b6109508161083f565b82525050565b5f60e0820190506109695f83018a610929565b6109766020830189610938565b6109836040830188610938565b6109906060830187610947565b61099d6080830186610947565b6109aa60a0830185610938565b6109b760c0830184610929565b98975050505050505050565b5f73ffffffffffffffffffffffffffffffffffffffff82169050919050565b5f6109ec826109c3565b9050919050565b6109fc816109e2565b8114610a06575f80fd5b50565b5f81359050610a17816109f3565b92915050565b5f60208284031215610a3257610a316107cf565b5b5f610a3f84828501610a09565b91505092915050565b610a51816109e2565b82525050565b5f602082019050610a6a5f830184610a48565b92915050565b610a79816107d3565b82525050565b610a8881610806565b82525050565b610a978161083f565b82525050565b60e082015f820151610ab15f850182610a70565b506020820151610ac46020850182610a7f565b506040820151610ad76040850182610a7f565b506060820151610aea6060850182610a8e565b506080820151610afd6080850182610a8e565b5060a0820151610b1060a0850182610a7f565b5060c0820151610b2360c0850182610a70565b50505050565b5f60e082019050610b3c5f830184610a9d565b92915050565b5f82825260208201905092915050565b7f4e6f7420617574686f72697a6564206f7261636c6500000000000000000000005f82015250565b5f610b86601583610b42565b9150610b9182610b52565b602082019050919050565b5f6020820190508181035f830152610bb381610b7a565b9050919050565b5f604082019050610bcd5f830185610938565b610bda6020830184610929565b939250505056fea2646970667358221220fe1ff0172f45ec50c09fc0af221693e47ae8a6cb76102da9ca98a3083716cfa864736f6c63430008190033","opcodes":"PUSH1 0x80 PUSH1 0x40 MSTORE CALLVALUE DUP1 ISZERO PUSH2 0xF JUMPI PUSH0 DUP1 REVERT JUMPDEST POP PUSH1 0x40 MLOAD PUSH2 0xE8E CODESIZE SUB DUP1 PUSH2 0xE8E DUP4 CODECOPY DUP2 DUP2 ADD PUSH1 0x40 MSTORE DUP2 ADD SWAP1 PUSH2 0x31 SWAP2 SWAP1 PUSH2 0x217 JUMP JUMPDEST CALLER PUSH0 PUSH20 0xFFFFFFFFFFFFFFFFFFFFFFFFFFFFFFFFFFFFFFFF AND DUP2 PUSH20 0xFFFFFFFFFFFFFFFFFFFFFFFFFFFFFFFFFFFFFFFF AND SUB PUSH2 0xA2 JUMPI PUSH0 PUSH1 0x40 MLOAD PUSH32 0x1E4FBDF700000000000000000000000000000000000000000000000000000000 DUP2 MSTORE PUSH1 0x4 ADD PUSH2 0x99 SWAP2 SWAP1 PUSH2 0x251 JUMP JUMPDEST PUSH1 0x40 MLOAD DUP1 SWAP2 SUB SWAP1 REVERT JUMPDEST PUSH2 0xB1 DUP2 PUSH2 0xF8 PUSH1 0x20 SHL PUSH1 0x20 SHR JUMP JUMPDEST POP DUP1 PUSH1 0x1 PUSH0 PUSH2 0x100 EXP DUP2 SLOAD DUP2 PUSH20 0xFFFFFFFFFFFFFFFFFFFFFFFFFFFFFFFFFFFFFFFF MUL NOT AND SWAP1 DUP4 PUSH20 0xFFFFFFFFFFFFFFFFFFFFFFFFFFFFFFFFFFFFFFFF AND MUL OR SWAP1 SSTORE POP POP PUSH2 0x26A JUMP JUMPDEST PUSH0 DUP1 PUSH0 SWAP1 SLOAD SWAP1 PUSH2 0x100 EXP SWAP1 DIV PUSH20 0xFFFFFFFFFFFFFFFFFFFFFFFFFFFFFFFFFFFFFFFF AND SWAP1 POP DUP2 PUSH0 DUP1 PUSH2 0x100 EXP DUP2 SLOAD DUP2 PUSH20 0xFFFFFFFFFFFFFFFFFFFFFFFFFFFFFFFFFFFFFFFF MUL NOT AND SWAP1 DUP4 PUSH20 0xFFFFFFFFFFFFFFFFFFFFFFFFFFFFFFFFFFFFFFFF AND MUL OR SWAP1 SSTORE POP DUP2 PUSH20 0xFFFFFFFFFFFFFFFFFFFFFFFFFFFFFFFFFFFFFFFF AND DUP2 PUSH20 0xFFFFFFFFFFFFFFFFFFFFFFFFFFFFFFFFFFFFFFFF AND PUSH32 0x8BE0079C531659141344CD1FD0A4F28419497F9722A3DAAFE3B4186F6B6457E0 PUSH1 0x40 MLOAD PUSH1 0x40 MLOAD DUP1 SWAP2 SUB SWAP1 LOG3 POP POP JUMP JUMPDEST PUSH0 DUP1 REVERT JUMPDEST PUSH0 PUSH20 0xFFFFFFFFFFFFFFFFFFFFFFFFFFFFFFFFFFFFFFFF DUP3 AND SWAP1 POP SWAP2 SWAP1 POP JUMP JUMPDEST PUSH0 PUSH2 0x1E6 DUP3 PUSH2 0x1BD JUMP JUMPDEST SWAP1 POP SWAP2 SWAP1 POP JUMP JUMPDEST PUSH2 0x1F6 DUP2 PUSH2 0x1DC JUMP JUMPDEST DUP2 EQ PUSH2 0x200 JUMPI PUSH0 DUP1 REVERT JUMPDEST POP JUMP JUMPDEST PUSH0 DUP2 MLOAD SWAP1 POP PUSH2 0x211 DUP2 PUSH2 0x1ED JUMP JUMPDEST SWAP3 SWAP2 POP POP JUMP JUMPDEST PUSH0 PUSH1 0x20 DUP3 DUP5 SUB SLT ISZERO PUSH2 0x22C JUMPI PUSH2 0x22B PUSH2 0x1B9 JUMP JUMPDEST JUMPDEST PUSH0 PUSH2 0x239 DUP5 DUP3 DUP6 ADD PUSH2 0x203 JUMP JUMPDEST SWAP2 POP POP SWAP3 SWAP2 POP POP JUMP JUMPDEST PUSH2 0x24B DUP2 PUSH2 0x1DC JUMP JUMPDEST DUP3 MSTORE POP POP JUMP JUMPDEST PUSH0 PUSH1 0x20 DUP3 ADD SWAP1 POP PUSH2 0x264 PUSH0 DUP4 ADD DUP5 PUSH2 0x242 JUMP JUMPDEST SWAP3 SWAP2 POP POP JUMP JUMPDEST PUSH2 0xC17 DUP1 PUSH2 0x277 PUSH0 CODECOPY PUSH0 RETURN INVALID PUSH1 0x80 PUSH1 0x40 MSTORE CALLVALUE DUP1 ISZERO PUSH2 0xF JUMPI PUSH0 DUP1 REVERT JUMPDEST POP PUSH1 0x4 CALLDATASIZE LT PUSH2 0x86 JUMPI PUSH0 CALLDATALOAD PUSH1 0xE0 SHR DUP1 PUSH4 0x7DC0D1D0 GT PUSH2 0x59 JUMPI DUP1 PUSH4 0x7DC0D1D0 EQ PUSH2 0x102 JUMPI DUP1 PUSH4 0x89370D8B EQ PUSH2 0x120 JUMPI DUP1 PUSH4 0x8DA5CB5B EQ PUSH2 0x150 JUMPI DUP1 PUSH4 0xF2FDE38B EQ PUSH2 0x16E JUMPI PUSH2 0x86 JUMP JUMPDEST DUP1 PUSH4 0x2DAC5EB3 EQ PUSH2 0x8A JUMPI DUP1 PUSH4 0x34461067 EQ PUSH2 0xA6 JUMPI DUP1 PUSH4 0x715018A6 EQ PUSH2 0xDC JUMPI DUP1 PUSH4 0x7ADBF973 EQ PUSH2 0xE6 JUMPI JUMPDEST PUSH0 DUP1 REVERT JUMPDEST PUSH2 0xA4 PUSH1 0x4 DUP1 CALLDATASIZE SUB DUP2 ADD SWAP1 PUSH2 0x9F SWAP2 SWAP1 PUSH2 0x875 JUMP JUMPDEST PUSH2 0x18A JUMP JUMPDEST STOP JUMPDEST PUSH2 0xC0 PUSH1 0x4 DUP1 CALLDATASIZE SUB DUP2 ADD SWAP1 PUSH2 0xBB SWAP2 SWAP1 PUSH2 0x8FE JUMP JUMPDEST PUSH2 0x394 JUMP JUMPDEST PUSH1 0x40 MLOAD PUSH2 0xD3 SWAP8 SWAP7 SWAP6 SWAP5 SWAP4 SWAP3 SWAP2 SWAP1 PUSH2 0x956 JUMP JUMPDEST PUSH1 0x40 MLOAD DUP1 SWAP2 SUB SWAP1 RETURN JUMPDEST PUSH2 0xE4 PUSH2 0x41B JUMP JUMPDEST STOP JUMPDEST PUSH2 0x100 PUSH1 0x4 DUP1 CALLDATASIZE SUB DUP2 ADD SWAP1 PUSH2 0xFB SWAP2 SWAP1 PUSH2 0xA1D JUMP JUMPDEST PUSH2 0x42E JUMP JUMPDEST STOP JUMPDEST PUSH2 0x10A PUSH2 0x479 JUMP JUMPDEST PUSH1 0x40 MLOAD PUSH2 0x117 SWAP2 SWAP1 PUSH2 0xA57 JUMP JUMPDEST PUSH1 0x40 MLOAD DUP1 SWAP2 SUB SWAP1 RETURN JUMPDEST PUSH2 0x13A PUSH1 0x4 DUP1 CALLDATASIZE SUB DUP2 ADD SWAP1 PUSH2 0x135 SWAP2 SWAP1 PUSH2 0x8FE JUMP JUMPDEST PUSH2 0x49E JUMP JUMPDEST PUSH1 0x40 MLOAD PUSH2 0x147 SWAP2 SWAP1 PUSH2 0xB29 JUMP JUMPDEST PUSH1 0x40 MLOAD DUP1 SWAP2 SUB SWAP1 RETURN JUMPDEST PUSH2 0x158 PUSH2 0x587 JUMP JUMPDEST PUSH1 0x40 MLOAD PUSH2 0x165 SWAP2 SWAP1 PUSH2 0xA57 JUMP JUMPDEST PUSH1 0x40 MLOAD DUP1 SWAP2 SUB SWAP1 RETURN JUMPDEST PUSH2 0x188 PUSH1 0x4 DUP1 CALLDATASIZE SUB DUP2 ADD SWAP1 PUSH2 0x183 SWAP2 SWAP1 PUSH2 0xA1D JUMP JUMPDEST PUSH2 0x5AE JUMP JUMPDEST STOP JUMPDEST PUSH1 0x1 PUSH0 SWAP1 SLOAD SWAP1 PUSH2 0x100 EXP SWAP1 DIV PUSH20 0xFFFFFFFFFFFFFFFFFFFFFFFFFFFFFFFFFFFFFFFF AND PUSH20 0xFFFFFFFFFFFFFFFFFFFFFFFFFFFFFFFFFFFFFFFF AND CALLER PUSH20 0xFFFFFFFFFFFFFFFFFFFFFFFFFFFFFFFFFFFFFFFF AND EQ PUSH2 0x219 JUMPI PUSH1 0x40 MLOAD PUSH32 0x8C379A000000000000000000000000000000000000000000000000000000000 DUP2 MSTORE PUSH1 0x4 ADD PUSH2 0x210 SWAP1 PUSH2 0xB9C JUMP JUMPDEST PUSH1 0x40 MLOAD DUP1 SWAP2 SUB SWAP1 REVERT JUMPDEST PUSH1 0x40 MLOAD DUP1 PUSH1 0xE0 ADD PUSH1 0x40 MSTORE DUP1 DUP8 DUP2 MSTORE PUSH1 0x20 ADD DUP7 PUSH4 0xFFFFFFFF AND DUP2 MSTORE PUSH1 0x20 ADD DUP6 PUSH4 0xFFFFFFFF AND DUP2 MSTORE PUSH1 0x20 ADD DUP5 PUSH1 0x3 SIGNEXTEND DUP2 MSTORE PUSH1 0x20 ADD DUP4 PUSH1 0x3 SIGNEXTEND DUP2 MSTORE PUSH1 0x20 ADD DUP3 PUSH4 0xFFFFFFFF AND DUP2 MSTORE PUSH1 0x20 ADD TIMESTAMP DUP2 MSTORE POP PUSH1 0x2 PUSH0 DUP9 DUP2 MSTORE PUSH1 0x20 ADD SWAP1 DUP2 MSTORE PUSH1 0x20 ADD PUSH0 KECCAK256 PUSH0 DUP3 ADD MLOAD DUP2 PUSH0 ADD SSTORE PUSH1 0x20 DUP3 ADD MLOAD DUP2 PUSH1 0x1 ADD PUSH0 PUSH2 0x100 EXP DUP2 SLOAD DUP2 PUSH4 0xFFFFFFFF MUL NOT AND SWAP1 DUP4 PUSH4 0xFFFFFFFF AND MUL OR SWAP1 SSTORE POP PUSH1 0x40 DUP3 ADD MLOAD DUP2 PUSH1 0x1 ADD PUSH1 0x4 PUSH2 0x100 EXP DUP2 SLOAD DUP2 PUSH4 0xFFFFFFFF MUL NOT AND SWAP1 DUP4 PUSH4 0xFFFFFFFF AND MUL OR SWAP1 SSTORE POP PUSH1 0x60 DUP3 ADD MLOAD DUP2 PUSH1 0x1 ADD PUSH1 0x8 PUSH2 0x100 EXP DUP2 SLOAD DUP2 PUSH4 0xFFFFFFFF MUL NOT AND SWAP1 DUP4 PUSH1 0x3 SIGNEXTEND PUSH4 0xFFFFFFFF AND MUL OR SWAP1 SSTORE POP PUSH1 0x80 DUP3 ADD MLOAD DUP2 PUSH1 0x1 ADD PUSH1 0xC PUSH2 0x100 EXP DUP2 SLOAD DUP2 PUSH4 0xFFFFFFFF MUL NOT AND SWAP1 DUP4 PUSH1 0x3 SIGNEXTEND PUSH4 0xFFFFFFFF AND MUL OR SWAP1 SSTORE POP PUSH1 0xA0 DUP3 ADD MLOAD DUP2 PUSH1 0x1 ADD PUSH1 0x10 PUSH2 0x100 EXP DUP2 SLOAD DUP2 PUSH4 0xFFFFFFFF MUL NOT AND SWAP1 DUP4 PUSH4 0xFFFFFFFF AND MUL OR SWAP1 SSTORE POP PUSH1 0xC0 DUP3 ADD MLOAD DUP2 PUSH1 0x2 ADD SSTORE SWAP1 POP POP DUP6 PUSH32 0x6B16F5C437EC90FDB811B46F7D2BA32DE141931AAB7CC27F1B85E6CA10DB6BE7 DUP3 TIMESTAMP PUSH1 0x40 MLOAD PUSH2 0x384 SWAP3 SWAP2 SWAP1 PUSH2 0xBBA JUMP JUMPDEST PUSH1 0x40 MLOAD DUP1 SWAP2 SUB SWAP1 LOG2 POP POP POP POP POP POP JUMP JUMPDEST PUSH1 0x2 PUSH1 0x20 MSTORE DUP1 PUSH0 MSTORE PUSH1 0x40 PUSH0 KECCAK256 PUSH0 SWAP2 POP SWAP1 POP DUP1 PUSH0 ADD SLOAD SWAP1 DUP1 PUSH1 0x1 ADD PUSH0 SWAP1 SLOAD SWAP1 PUSH2 0x100 EXP SWAP1 DIV PUSH4 0xFFFFFFFF AND SWAP1 DUP1 PUSH1 0x1 ADD PUSH1 0x4 SWAP1 SLOAD SWAP1 PUSH2 0x100 EXP SWAP1 DIV PUSH4 0xFFFFFFFF AND SWAP1 DUP1 PUSH1 0x1 ADD PUSH1 0x8 SWAP1 SLOAD SWAP1 PUSH2 0x100 EXP SWAP1 DIV PUSH1 0x3 SIGNEXTEND SWAP1 DUP1 PUSH1 0x1 ADD PUSH1 0xC SWAP1 SLOAD SWAP1 PUSH2 0x100 EXP SWAP1 DIV PUSH1 0x3 SIGNEXTEND SWAP1 DUP1 PUSH1 0x1 ADD PUSH1 0x10 SWAP1 SLOAD SWAP1 PUSH2 0x100 EXP SWAP1 DIV PUSH4 0xFFFFFFFF AND SWAP1 DUP1 PUSH1 0x2 ADD SLOAD SWAP1 POP DUP8 JUMP JUMPDEST PUSH2 0x423 PUSH2 0x632 JUMP JUMPDEST PUSH2 0x42C PUSH0 PUSH2 0x6B9 JUMP JUMPDEST JUMP JUMPDEST PUSH2 0x436 PUSH2 0x632 JUMP JUMPDEST DUP1 PUSH1 0x1 PUSH0 PUSH2 0x100 EXP DUP2 SLOAD DUP2 PUSH20 0xFFFFFFFFFFFFFFFFFFFFFFFFFFFFFFFFFFFFFFFF MUL NOT AND SWAP1 DUP4 PUSH20 0xFFFFFFFFFFFFFFFFFFFFFFFFFFFFFFFFFFFFFFFF AND MUL OR SWAP1 SSTORE POP POP JUMP JUMPDEST PUSH1 0x1 PUSH0 SWAP1 SLOAD SWAP1 PUSH2 0x100 EXP SWAP1 DIV PUSH20 0xFFFFFFFFFFFFFFFFFFFFFFFFFFFFFFFFFFFFFFFF AND DUP2 JUMP JUMPDEST PUSH2 0x4A6 PUSH2 0x781 JUMP JUMPDEST PUSH1 0x2 PUSH0 DUP4 DUP2 MSTORE PUSH1 0x20 ADD SWAP1 DUP2 MSTORE PUSH1 0x20 ADD PUSH0 KECCAK256 PUSH1 0x40 MLOAD DUP1 PUSH1 0xE0 ADD PUSH1 0x40 MSTORE SWAP1 DUP2 PUSH0 DUP3 ADD SLOAD DUP2 MSTORE PUSH1 0x20 ADD PUSH1 0x1 DUP3 ADD PUSH0 SWAP1 SLOAD SWAP1 PUSH2 0x100 EXP SWAP1 DIV PUSH4 0xFFFFFFFF AND PUSH4 0xFFFFFFFF AND PUSH4 0xFFFFFFFF AND DUP2 MSTORE PUSH1 0x20 ADD PUSH1 0x1 DUP3 ADD PUSH1 0x4 SWAP1 SLOAD SWAP1 PUSH2 0x100 EXP SWAP1 DIV PUSH4 0xFFFFFFFF AND PUSH4 0xFFFFFFFF AND PUSH4 0xFFFFFFFF AND DUP2 MSTORE PUSH1 0x20 ADD PUSH1 0x1 DUP3 ADD PUSH1 0x8 SWAP1 SLOAD SWAP1 PUSH2 0x100 EXP SWAP1 DIV PUSH1 0x3 SIGNEXTEND PUSH1 0x3 SIGNEXTEND PUSH1 0x3 SIGNEXTEND DUP2 MSTORE PUSH1 0x20 ADD PUSH1 0x1 DUP3 ADD PUSH1 0xC SWAP1 SLOAD SWAP1 PUSH2 0x100 EXP SWAP1 DIV PUSH1 0x3 SIGNEXTEND PUSH1 0x3 SIGNEXTEND PUSH1 0x3 SIGNEXTEND DUP2 MSTORE PUSH1 0x20 ADD PUSH1 0x1 DUP3 ADD PUSH1 0x10 SWAP1 SLOAD SWAP1 PUSH2 0x100 EXP SWAP1 DIV PUSH4 0xFFFFFFFF AND PUSH4 0xFFFFFFFF AND PUSH4 0xFFFFFFFF AND DUP2 MSTORE PUSH1 0x20 ADD PUSH1 0x2 DUP3 ADD SLOAD DUP2 MSTORE POP POP SWAP1 POP SWAP2 SWAP1 POP JUMP JUMPDEST PUSH0 DUP1 PUSH0 SWAP1 SLOAD SWAP1 PUSH2 0x100 EXP SWAP1 DIV PUSH20 0xFFFFFFFFFFFFFFFFFFFFFFFFFFFFFFFFFFFFFFFF AND SWAP1 POP SWAP1 JUMP JUMPDEST PUSH2 0x5B6 PUSH2 0x632 JUMP JUMPDEST PUSH0 PUSH20 0xFFFFFFFFFFFFFFFFFFFFFFFFFFFFFFFFFFFFFFFF AND DUP2 PUSH20 0xFFFFFFFFFFFFFFFFFFFFFFFFFFFFFFFFFFFFFFFF AND SUB PUSH2 0x626 JUMPI PUSH0 PUSH1 0x40 MLOAD PUSH32 0x1E4FBDF700000000000000000000000000000000000000000000000000000000 DUP2 MSTORE PUSH1 0x4 ADD PUSH2 0x61D SWAP2 SWAP1 PUSH2 0xA57 JUMP JUMPDEST PUSH1 0x40 MLOAD DUP1 SWAP2 SUB SWAP1 REVERT JUMPDEST PUSH2 0x62F DUP2 PUSH2 0x6B9 JUMP JUMPDEST POP JUMP JUMPDEST PUSH2 0x63A PUSH2 0x77A JUMP JUMPDEST PUSH20 0xFFFFFFFFFFFFFFFFFFFFFFFFFFFFFFFFFFFFFFFF AND PUSH2 0x658 PUSH2 0x587 JUMP JUMPDEST PUSH20 0xFFFFFFFFFFFFFFFFFFFFFFFFFFFFFFFFFFFFFFFF AND EQ PUSH2 0x6B7 JUMPI PUSH2 0x67B PUSH2 0x77A JUMP JUMPDEST PUSH1 0x40 MLOAD PUSH32 0x118CDAA700000000000000000000000000000000000000000000000000000000 DUP2 MSTORE PUSH1 0x4 ADD PUSH2 0x6AE SWAP2 SWAP1 PUSH2 0xA57 JUMP JUMPDEST PUSH1 0x40 MLOAD DUP1 SWAP2 SUB SWAP1 REVERT JUMPDEST JUMP JUMPDEST PUSH0 DUP1 PUSH0 SWAP1 SLOAD SWAP1 PUSH2 0x100 EXP SWAP1 DIV PUSH20 0xFFFFFFFFFFFFFFFFFFFFFFFFFFFFFFFFFFFFFFFF AND SWAP1 POP DUP2 PUSH0 DUP1 PUSH2 0x100 EXP DUP2 SLOAD DUP2 PUSH20 0xFFFFFFFFFFFFFFFFFFFFFFFFFFFFFFFFFFFFFFFF MUL NOT AND SWAP1 DUP4 PUSH20 0xFFFFFFFFFFFFFFFFFFFFFFFFFFFFFFFFFFFFFFFF AND MUL OR SWAP1 SSTORE POP DUP2 PUSH20 0xFFFFFFFFFFFFFFFFFFFFFFFFFFFFFFFFFFFFFFFF AND DUP2 PUSH20 0xFFFFFFFFFFFFFFFFFFFFFFFFFFFFFFFFFFFFFFFF AND PUSH32 0x8BE0079C531659141344CD1FD0A4F28419497F9722A3DAAFE3B4186F6B6457E0 PUSH1 0x40 MLOAD PUSH1 0x40 MLOAD DUP1 SWAP2 SUB SWAP1 LOG3 POP POP JUMP JUMPDEST PUSH0 CALLER SWAP1 POP SWAP1 JUMP JUMPDEST PUSH1 0x40 MLOAD DUP1 PUSH1 0xE0 ADD PUSH1 0x40 MSTORE DUP1 PUSH0 DUP2 MSTORE PUSH1 0x20 ADD PUSH0 PUSH4 0xFFFFFFFF AND DUP2 MSTORE PUSH1 0x20 ADD PUSH0 PUSH4 0xFFFFFFFF AND DUP2 MSTORE PUSH1 0x20 ADD PUSH0 PUSH1 0x3 SIGNEXTEND DUP2 MSTORE PUSH1 0x20 ADD PUSH0 PUSH1 0x3 SIGNEXTEND DUP2 MSTORE PUSH1 0x20 ADD PUSH0 PUSH4 0xFFFFFFFF AND DUP2 MSTORE PUSH1 0x20 ADD PUSH0 DUP2 MSTORE POP SWAP1 JUMP JUMPDEST PUSH0 DUP1 REVERT JUMPDEST PUSH0 DUP2 SWAP1 POP SWAP2 SWAP1 POP JUMP JUMPDEST PUSH2 0x7E5 DUP2 PUSH2 0x7D3 JUMP JUMPDEST DUP2 EQ PUSH2 0x7EF JUMPI PUSH0 DUP1 REVERT JUMPDEST POP JUMP JUMPDEST PUSH0 DUP2 CALLDATALOAD SWAP1 POP PUSH2 0x800 DUP2 PUSH2 0x7DC JUMP JUMPDEST SWAP3 SWAP2 POP POP JUMP JUMPDEST PUSH0 PUSH4 0xFFFFFFFF DUP3 AND SWAP1 POP SWAP2 SWAP1 POP JUMP JUMPDEST PUSH2 0x81E DUP2 PUSH2 0x806 JUMP JUMPDEST DUP2 EQ PUSH2 0x828 JUMPI PUSH0 DUP1 REVERT JUMPDEST POP JUMP JUMPDEST PUSH0 DUP2 CALLDATALOAD SWAP1 POP PUSH2 0x839 DUP2 PUSH2 0x815 JUMP JUMPDEST SWAP3 SWAP2 POP POP JUMP JUMPDEST PUSH0 DUP2 PUSH1 0x3 SIGNEXTEND SWAP1 POP SWAP2 SWAP1 POP JUMP JUMPDEST PUSH2 0x854 DUP2 PUSH2 0x83F JUMP JUMPDEST DUP2 EQ PUSH2 0x85E JUMPI PUSH0 DUP1 REVERT JUMPDEST POP JUMP JUMPDEST PUSH0 DUP2 CALLDATALOAD SWAP1 POP PUSH2 0x86F DUP2 PUSH2 0x84B JUMP JUMPDEST SWAP3 SWAP2 POP POP JUMP JUMPDEST PUSH0 DUP1 PUSH0 DUP1 PUSH0 DUP1 PUSH1 0xC0 DUP8 DUP10 SUB SLT ISZERO PUSH2 0x88F JUMPI PUSH2 0x88E PUSH2 0x7CF JUMP JUMPDEST JUMPDEST PUSH0 PUSH2 0x89C DUP10 DUP3 DUP11 ADD PUSH2 0x7F2 JUMP JUMPDEST SWAP7 POP POP PUSH1 0x20 PUSH2 0x8AD DUP10 DUP3 DUP11 ADD PUSH2 0x82B JUMP JUMPDEST SWAP6 POP POP PUSH1 0x40 PUSH2 0x8BE DUP10 DUP3 DUP11 ADD PUSH2 0x82B JUMP JUMPDEST SWAP5 POP POP PUSH1 0x60 PUSH2 0x8CF DUP10 DUP3 DUP11 ADD PUSH2 0x861 JUMP JUMPDEST SWAP4 POP POP PUSH1 0x80 PUSH2 0x8E0 DUP10 DUP3 DUP11 ADD PUSH2 0x861 JUMP JUMPDEST SWAP3 POP POP PUSH1 0xA0 PUSH2 0x8F1 DUP10 DUP3 DUP11 ADD PUSH2 0x82B JUMP JUMPDEST SWAP2 POP POP SWAP3 SWAP6 POP SWAP3 SWAP6 POP SWAP3 SWAP6 JUMP JUMPDEST PUSH0 PUSH1 0x20 DUP3 DUP5 SUB SLT ISZERO PUSH2 0x913 JUMPI PUSH2 0x912 PUSH2 0x7CF JUMP JUMPDEST JUMPDEST PUSH0 PUSH2 0x920 DUP5 DUP3 DUP6 ADD PUSH2 0x7F2 JUMP JUMPDEST SWAP2 POP POP SWAP3 SWAP2 POP POP JUMP JUMPDEST PUSH2 0x932 DUP2 PUSH2 0x7D3 JUMP JUMPDEST DUP3 MSTORE POP POP JUMP JUMPDEST PUSH2 0x941 DUP2 PUSH2 0x806 JUMP JUMPDEST DUP3 MSTORE POP POP JUMP JUMPDEST PUSH2 0x950 DUP2 PUSH2 0x83F JUMP JUMPDEST DUP3 MSTORE POP POP JUMP JUMPDEST PUSH0 PUSH1 0xE0 DUP3 ADD SWAP1 POP PUSH2 0x969 PUSH0 DUP4 ADD DUP11 PUSH2 0x929 JUMP JUMPDEST PUSH2 0x976 PUSH1 0x20 DUP4 ADD DUP10 PUSH2 0x938 JUMP JUMPDEST PUSH2 0x983 PUSH1 0x40 DUP4 ADD DUP9 PUSH2 0x938 JUMP JUMPDEST PUSH2 0x990 PUSH1 0x60 DUP4 ADD DUP8 PUSH2 0x947 JUMP JUMPDEST PUSH2 0x99D PUSH1 0x80 DUP4 ADD DUP7 PUSH2 0x947 JUMP JUMPDEST PUSH2 0x9AA PUSH1 0xA0 DUP4 ADD DUP6 PUSH2 0x938 JUMP JUMPDEST PUSH2 0x9B7 PUSH1 0xC0 DUP4 ADD DUP5 PUSH2 0x929 JUMP JUMPDEST SWAP9 SWAP8 POP POP POP POP POP POP POP POP JUMP JUMPDEST PUSH0 PUSH20 0xFFFFFFFFFFFFFFFFFFFFFFFFFFFFFFFFFFFFFFFF DUP3 AND SWAP1 POP SWAP2 SWAP1 POP JUMP JUMPDEST PUSH0 PUSH2 0x9EC DUP3 PUSH2 0x9C3 JUMP JUMPDEST SWAP1 POP SWAP2 SWAP1 POP JUMP JUMPDEST PUSH2 0x9FC DUP2 PUSH2 0x9E2 JUMP JUMPDEST DUP2 EQ PUSH2 0xA06 JUMPI PUSH0 DUP1 REVERT JUMPDEST POP JUMP JUMPDEST PUSH0 DUP2 CALLDATALOAD SWAP1 POP PUSH2 0xA17 DUP2 PUSH2 0x9F3 JUMP JUMPDEST SWAP3 SWAP2 POP POP JUMP JUMPDEST PUSH0 PUSH1 0x20 DUP3 DUP5 SUB SLT ISZERO PUSH2 0xA32 JUMPI PUSH2 0xA31 PUSH2 0x7CF JUMP JUMPDEST JUMPDEST PUSH0 PUSH2 0xA3F DUP5 DUP3 DUP6 ADD PUSH2 0xA09 JUMP JUMPDEST SWAP2 POP POP SWAP3 SWAP2 POP POP JUMP JUMPDEST PUSH2 0xA51 DUP2 PUSH2 0x9E2 JUMP JUMPDEST DUP3 MSTORE POP POP JUMP JUMPDEST PUSH0 PUSH1 0x20 DUP3 ADD SWAP1 POP PUSH2 0xA6A PUSH0 DUP4 ADD DUP5 PUSH2 0xA48 JUMP JUMPDEST SWAP3 SWAP2 POP POP JUMP JUMPDEST PUSH2 0xA79 DUP2 PUSH2 0x7D3 JUMP JUMPDEST DUP3 MSTORE POP POP JUMP JUMPDEST PUSH2 0xA88 DUP2 PUSH2 0x806 JUMP JUMPDEST DUP3 MSTORE POP POP JUMP JUMPDEST PUSH2 0xA97 DUP2 PUSH2 0x83F JUMP JUMPDEST DUP3 MSTORE POP POP JUMP JUMPDEST PUSH1 0xE0 DUP3 ADD PUSH0 DUP3 ADD MLOAD PUSH2 0xAB1 PUSH0 DUP6 ADD DUP3 PUSH2 0xA70 JUMP JUMPDEST POP PUSH1 0x20 DUP3 ADD MLOAD PUSH2 0xAC4 PUSH1 0x20 DUP6 ADD DUP3 PUSH2 0xA7F JUMP JUMPDEST POP PUSH1 0x40 DUP3 ADD MLOAD PUSH2 0xAD7 PUSH1 0x40 DUP6 ADD DUP3 PUSH2 0xA7F JUMP JUMPDEST POP PUSH1 0x60 DUP3 ADD MLOAD PUSH2 0xAEA PUSH1 0x60 DUP6 ADD DUP3 PUSH2 0xA8E JUMP JUMPDEST POP PUSH1 0x80 DUP3 ADD MLOAD PUSH2 0xAFD PUSH1 0x80 DUP6 ADD DUP3 PUSH2 0xA8E JUMP JUMPDEST POP PUSH1 0xA0 DUP3 ADD MLOAD PUSH2 0xB10 PUSH1 0xA0 DUP6 ADD DUP3 PUSH2 0xA7F JUMP JUMPDEST POP PUSH1 0xC0 DUP3 ADD MLOAD PUSH2 0xB23 PUSH1 0xC0 DUP6 ADD DUP3 PUSH2 0xA70 JUMP JUMPDEST POP POP POP POP JUMP JUMPDEST PUSH0 PUSH1 0xE0 DUP3 ADD SWAP1 POP PUSH2 0xB3C PUSH0 DUP4 ADD DUP5 PUSH2 0xA9D JUMP JUMPDEST SWAP3 SWAP2 POP POP JUMP JUMPDEST PUSH0 DUP3 DUP3 MSTORE PUSH1 0x20 DUP3 ADD SWAP1 POP SWAP3 SWAP2 POP POP JUMP JUMPDEST PUSH32 0x4E6F7420617574686F72697A6564206F7261636C650000000000000000000000 PUSH0 DUP3 ADD MSTORE POP JUMP JUMPDEST PUSH0 PUSH2 0xB86 PUSH1 0x15 DUP4 PUSH2 0xB42 JUMP JUMPDEST SWAP2 POP PUSH2 0xB91 DUP3 PUSH2 0xB52 JUMP JUMPDEST PUSH1 0x20 DUP3 ADD SWAP1 POP SWAP2 SWAP1 POP JUMP JUMPDEST PUSH0 PUSH1 0x20 DUP3 ADD SWAP1 POP DUP2 DUP2 SUB PUSH0 DUP4 ADD MSTORE PUSH2 0xBB3 DUP2 PUSH2 0xB7A JUMP JUMPDEST SWAP1 POP SWAP2 SWAP1 POP JUMP JUMPDEST PUSH0 PUSH1 0x40 DUP3 ADD SWAP1 POP PUSH2 0xBCD PUSH0 DUP4 ADD DUP6 PUSH2 0x938 JUMP JUMPDEST PUSH2 0xBDA PUSH1 0x20 DUP4 ADD DUP5 PUSH2 0x929 JUMP JUMPDEST SWAP4 SWAP3 POP POP POP JUMP INVALID LOG2 PUSH5 0x6970667358 0x22 SLT KECCAK256 INVALID 0x1F CREATE OR 0x2F GASLIMIT 0xEC POP 0xC0 SWAP16 0xC0 0xAF 0x22 AND SWAP4 0xE4 PUSH27 0xE8A6CB76102DA9CA98A3083716CFA864736F6C6343000819003300 "},"methodIdentifiers":{"getReputation(uint256)":"89370d8b","oracle()":"7dc0d1d0","owner()":"8da5cb5b","records(uint256)":"34461067","renounceOwnership()":"715018a6","setOracle(address)":"7adbf973","transferOwnership(address)":"f2fde38b","updateReputation(uint256,uint32,uint32,int32,int32,uint32)":"2dac5eb3"}}}}}