{"contracts/GuardianAI.sol":{"RiskRouter":{"abi":[{"inputs":[{"internalType":"address","name":"_agentRegistry","type":"address"},{"internalType":"address","name":"_reputationRegistry","type":"address"}],"stateMutability":"nonpayable","type":"constructor"},{"inputs":[],"name":"ECDSAInvalidSignature","type":"error"},{"inputs":[{"internalType":"uint256","name":"length","type":"uint256"}],"name":"ECDSAInvalidSignatureLength","type":"error"},{"inputs":[{"internalType":"bytes32","name":"s","type":"bytes32"}],"name":"ECDSAInvalidSignatureS","type":"error"},{"inputs":[],"name":"InvalidShortString","type":"error"},{"inputs":[{"internalType":"address","name":"owner","type":"address"}],"name":"OwnableInvalidOwner","type":"error"},{"inputs":[{"internalType":"address","name":"account","type":"address"}],"name":"OwnableUnauthorizedAccount","type":"error"},{"inputs":[{"internalType":"string","name":"str","type":"string"}],"name":"StringTooLong","type":"error"},{"anonymous":false,"inputs":[{"indexed":false,"internalType":"address","name":"resetBy","type":"address"},{"indexed":false,"internalType":"uint256","name":"timestamp","type":"uint256"}],"name":"CircuitBreakerReset","type":"event"},{"anonymous":false,"inputs":[{"indexed":false,"internalType":"address","name":"triggeredBy","type":"address"},{"indexed":false,"internalType":"uint256","name":"timestamp","type":"uint256"}],"name":"CircuitBreakerTripped","type":"event"},{"anonymous":false,"inputs":[],"name":"EIP712DomainChanged","type":"event"},{"anonymous":false,"inputs":[{"indexed":true,"internalType":"address","name":"previousOwner","type":"address"},{"indexed":true,"internalType":"address","name":"newOwner","type":"address"}],"name":"OwnershipTransferred","type":"event"},{"anonymous":false,"inputs":[{"indexed":true,"internalType":"bytes32","name":"intentHash","type":"bytes32"},{"indexed":true,"internalType":"address","name":"agent","type":"address"},{"indexed":false,"internalType":"bytes32","name":"riskArtifactHash","type":"bytes32"},{"indexed":false,"internalType":"uint256","name":"timestamp","type":"uint256"}],"name":"TradeIntentReceived","type":"event"},{"inputs":[{"internalType":"address","name":"","type":"address"}],"name":"agentNonces","outputs":[{"internalType":"uint256","name":"","type":"uint256"}],"stateMutability":"view","type":"function"},{"inputs":[],"name":"agentRegistry","outputs":[{"internalType":"address","name":"","type":"address"}],"stateMutability":"view","type":"function"},{"inputs":[],"name":"circuitBreakerTripped","outputs":[{"internalType":"bool","name":"","type":"bool"}],"stateMutability":"view","type":"function"},{"inputs":[],"name":"eip712Domain","outputs":[{"internalType":"bytes1","name":"fields","type":"bytes1"},{"internalType":"string","name":"name","type":"string"},{"internalType":"string","name":"version","type":"string"},{"internalType":"uint256","name":"chainId","type":"uint256"},{"internalType":"address","name":"verifyingContract","type":"address"},{"internalType":"bytes32","name":"salt","type":"bytes32"},{"internalType":"uint256[]","name":"extensions","type":"uint256[]"}],"stateMutability":"view","type":"function"},{"inputs":[],"name":"getIntentTypehash","outputs":[{"internalType":"bytes32","name":"","type":"bytes32"}],"stateMutability":"pure","type":"function"},{"inputs":[],"name":"owner","outputs":[{"internalType":"address","name":"","type":"address"}],"stateMutability":"view","type":"function"},{"inputs":[{"internalType":"bytes32","name":"","type":"bytes32"}],"name":"processedIntents","outputs":[{"internalType":"bool","name":"","type":"bool"}],"stateMutability":"view","type":"function"},{"inputs":[],"name":"renounceOwnership","outputs":[],"stateMutability":"nonpayable","type":"function"},{"inputs":[],"name":"reputationRegistry","outputs":[{"internalType":"address","name":"","type":"address"}],"stateMutability":"view","type":"function"},{"inputs":[],"name":"resetCircuitBreaker","outputs":[],"stateMutability":"nonpayable","type":"function"},{"inputs":[{"components":[{"internalType":"address","name":"agent","type":"address"},{"internalType":"address","name":"tokenIn","type":"address"},{"internalType":"address","name":"tokenOut","type":"address"},{"internalType":"uint256","name":"amountIn","type":"uint256"},{"internalType":"uint256","name":"maxSlippageBps","type":"uint256"},{"internalType":"uint256","name":"deadline","type":"uint256"},{"internalType":"bytes32","name":"riskArtifactHash","type":"bytes32"},{"internalType":"uint256","name":"nonce","type":"uint256"}],"internalType":"struct RiskRouter.TradeIntent","name":"intent","type":"tuple"},{"internalType":"bytes","name":"signature","type":"bytes"}],"name":"submitTradeIntent","outputs":[{"internalType":"bytes32","name":"intentHash","type":"bytes32"}],"stateMutability":"nonpayable","type":"function"},{"inputs":[{"internalType":"address","name":"newOwner","type":"address"}],"name":"transferOwnership","outputs":[],"stateMutability":"nonpayable","type":"function"},{"inputs":[],"name":"tripCircuitBreaker","outputs":[],"stateMutability":"nonpayable","type":"function"}],"evm":{"bytecode":{"linkReferences":{},"object":"610160604052348015610010575f80fd5b5060405161240038038061240083398181016040528101906100329190610485565b336040518060400160405280601581526020017f477561726469616e4149205269736b526f7574657200000000000000000000008152506040518060400160405280600181526020017f31000000000000000000000000000000000000000000000000000000000000008152506100b25f8361024f60201b90919060201c565b61012081815250506100ce60018261024f60201b90919060201c565b6101408181525050818051906020012060e08181525050808051906020012061010081815250504660a0818152505061010b61029c60201b60201c565b608081815250503073ffffffffffffffffffffffffffffffffffffffff1660c08173ffffffffffffffffffffffffffffffffffffffff168152505050505f73ffffffffffffffffffffffffffffffffffffffff168173ffffffffffffffffffffffffffffffffffffffff16036101b8575f6040517f1e4fbdf70000000000000000000000000000000000000000000000000000000081526004016101af91906104d2565b60405180910390fd5b6101c7816102f660201b60201c565b508160035f6101000a81548173ffffffffffffffffffffffffffffffffffffffff021916908373ffffffffffffffffffffffffffffffffffffffff1602179055508060045f6101000a81548173ffffffffffffffffffffffffffffffffffffffff021916908373ffffffffffffffffffffffffffffffffffffffff1602179055505050610985565b5f60208351101561027057610269836103b960201b60201c565b9050610296565b826102808361041e60201b60201c565b5f01908161028e9190610725565b5060ff5f1b90505b92915050565b5f7f8b73c3c69bb8fe3d512ecc4cf759cc79239f7b179b0ffacaa9a75d522b39400f60e0516101005146306040516020016102db95949392919061081b565b60405160208183030381529060405280519060200120905090565b5f60025f9054906101000a900473ffffffffffffffffffffffffffffffffffffffff1690508160025f6101000a81548173ffffffffffffffffffffffffffffffffffffffff021916908373ffffffffffffffffffffffffffffffffffffffff1602179055508173ffffffffffffffffffffffffffffffffffffffff168173ffffffffffffffffffffffffffffffffffffffff167f8be0079c531659141344cd1fd0a4f28419497f9722a3daafe3b4186f6b6457e060405160405180910390a35050565b5f80829050601f8151111561040557826040517f305a27a90000000000000000000000000000000000000000000000000000000081526004016103fc91906108d2565b60405180910390fd5b8051816104119061091f565b5f1c175f1b915050919050565b5f819050919050565b5f80fd5b5f73ffffffffffffffffffffffffffffffffffffffff82169050919050565b5f6104548261042b565b9050919050565b6104648161044a565b811461046e575f80fd5b50565b5f8151905061047f8161045b565b92915050565b5f806040838503121561049b5761049a610427565b5b5f6104a885828601610471565b92505060206104b985828601610471565b9150509250929050565b6104cc8161044a565b82525050565b5f6020820190506104e55f8301846104c3565b92915050565b5f81519050919050565b7f4e487b71000000000000000000000000000000000000000000000000000000005f52604160045260245ffd5b7f4e487b71000000000000000000000000000000000000000000000000000000005f52602260045260245ffd5b5f600282049050600182168061056657607f821691505b60208210810361057957610578610522565b5b50919050565b5f819050815f5260205f209050919050565b5f6020601f8301049050919050565b5f82821b905092915050565b5f600883026105db7fffffffffffffffffffffffffffffffffffffffffffffffffffffffffffffffff826105a0565b6105e586836105a0565b95508019841693508086168417925050509392505050565b5f819050919050565b5f819050919050565b5f61062961062461061f846105fd565b610606565b6105fd565b9050919050565b5f819050919050565b6106428361060f565b61065661064e82610630565b8484546105ac565b825550505050565b5f90565b61066a61065e565b610675818484610639565b505050565b5b818110156106985761068d5f82610662565b60018101905061067b565b5050565b601f8211156106dd576106ae8161057f565b6106b784610591565b810160208510156106c6578190505b6106da6106d285610591565b83018261067a565b50505b505050565b5f82821c905092915050565b5f6106fd5f19846008026106e2565b1980831691505092915050565b5f61071583836106ee565b9150826002028217905092915050565b61072e826104eb565b67ffffffffffffffff811115610747576107466104f5565b5b610751825461054f565b61075c82828561069c565b5f60209050601f83116001811461078d575f841561077b578287015190505b610785858261070a565b8655506107ec565b601f19841661079b8661057f565b5f5b828110156107c25784890151825560018201915060208501945060208101905061079d565b868310156107df57848901516107db601f8916826106ee565b8355505b6001600288020188555050505b505050505050565b5f819050919050565b610806816107f4565b82525050565b610815816105fd565b82525050565b5f60a08201905061082e5f8301886107fd565b61083b60208301876107fd565b61084860408301866107fd565b610855606083018561080c565b61086260808301846104c3565b9695505050505050565b5f82825260208201905092915050565b8281835e5f83830152505050565b5f601f19601f8301169050919050565b5f6108a4826104eb565b6108ae818561086c565b93506108be81856020860161087c565b6108c78161088a565b840191505092915050565b5f6020820190508181035f8301526108ea818461089a565b905092915050565b5f81519050919050565b5f819050602082019050919050565b5f61091682516107f4565b80915050919050565b5f610929826108f2565b82610933846108fc565b905061093e8161090b565b9250602082101561097e576109797fffffffffffffffffffffffffffffffffffffffffffffffffffffffffffffffff836020036008026105a0565b831692505b5050919050565b60805160a05160c05160e051610100516101205161014051611a2a6109d65f395f610b0501525f610aca01525f610edd01525f610ebc01525f610b3a01525f610b9001525f610bb90152611a2a5ff3fe608060405234801561000f575f80fd5b50600436106100cd575f3560e01c806384b0196e1161008a578063c2c8a00811610064578063c2c8a008146101e1578063c8db44e314610211578063de5f8d931461022f578063f2fde38b14610239576100cd565b806384b0196e146101815780638da5cb5b146101a55780639513cdfa146101c3576100cd565b80630456d1ec146100d15780630d1cfcae1461010157806318531d771461011f57806326f900991461013d57806359ab03211461016d578063715018a614610177575b5f80fd5b6100eb60048036038101906100e69190611160565b610255565b6040516100f891906111d7565b60405180910390f35b610109610660565b604051610116919061122f565b60405180910390f35b610127610685565b6040516101349190611262565b60405180910390f35b610157600480360381019061015291906112a5565b610698565b60405161016491906112e8565b60405180910390f35b6101756106ad565b005b61017f61070b565b005b61018961071e565b60405161019c9796959493929190611462565b60405180910390f35b6101ad6107c3565b6040516101ba919061122f565b60405180910390f35b6101cb6107eb565b6040516101d891906111d7565b60405180910390f35b6101fb60048036038101906101f6919061150e565b610812565b6040516102089190611262565b60405180910390f35b61021961082f565b604051610226919061122f565b60405180910390f35b610237610854565b005b610253600480360381019061024e91906112a5565b6108b1565b005b5f600460149054906101000a900460ff16156102a6576040517f08c379a000000000000000000000000000000000000000000000000000000000815260040161029d90611583565b60405180910390fd5b428460a0013510156102ed576040517f08c379a00000000000000000000000000000000000000000000000000000000081526004016102e4906115eb565b60405180910390fd5b5f7fdd155a7c2340d28e64fcd098f0398befa9381ed603f8c1aaa88372bb9722ba78855f01602081019061032191906112a5565b86602001602081019061033491906112a5565b87604001602081019061034791906112a5565b886060013589608001358a60a001358b60c001358c60e0013560405160200161037899989796959493929190611609565b60405160208183030381529060405280519060200120905061039981610935565b915060065f8381526020019081526020015f205f9054906101000a900460ff16156103f9576040517f08c379a00000000000000000000000000000000000000000000000000000000081526004016103f0906116de565b60405180910390fd5b5f61045085858080601f0160208091040260200160405190810160405280939291908181526020018383808284375f81840152601f19601f820116905080830192505050505050508461094e90919063ffffffff16565b9050855f01602081019061046491906112a5565b73ffffffffffffffffffffffffffffffffffffffff168173ffffffffffffffffffffffffffffffffffffffff16146104d1576040517f08c379a00000000000000000000000000000000000000000000000000000000081526004016104c890611746565b60405180910390fd5b60055f875f0160208101906104e691906112a5565b73ffffffffffffffffffffffffffffffffffffffff1673ffffffffffffffffffffffffffffffffffffffff1681526020019081526020015f20548660e0013514610565576040517f08c379a000000000000000000000000000000000000000000000000000000000815260040161055c906117ae565b60405180910390fd5b60055f875f01602081019061057a91906112a5565b73ffffffffffffffffffffffffffffffffffffffff1673ffffffffffffffffffffffffffffffffffffffff1681526020019081526020015f205f8154809291906105c3906117f9565b9190505550600160065f8581526020019081526020015f205f6101000a81548160ff021916908315150217905550855f01602081019061060391906112a5565b73ffffffffffffffffffffffffffffffffffffffff16837ff407ec165e9341802503744d7affc5f2ab89fe73ce9139d01187fd2a75b1e8778860c001354260405161064f929190611840565b60405180910390a350509392505050565b60035f9054906101000a900473ffffffffffffffffffffffffffffffffffffffff1681565b600460149054906101000a900460ff1681565b6005602052805f5260405f205f915090505481565b6106b5610978565b6001600460146101000a81548160ff0219169083151502179055507f740691573048f50495383f68a229458dadfcdae5c78e54d17356de53aaf11ce73342604051610701929190611867565b60405180910390a1565b610713610978565b61071c5f6109ff565b565b5f6060805f805f606061072f610ac2565b610737610afc565b46305f801b5f67ffffffffffffffff8111156107565761075561188e565b5b6040519080825280602002602001820160405280156107845781602001602082028036833780820191505090505b507f0f00000000000000000000000000000000000000000000000000000000000000959493929190965096509650965096509650965090919293949596565b5f60025f9054906101000a900473ffffffffffffffffffffffffffffffffffffffff16905090565b5f7fdd155a7c2340d28e64fcd098f0398befa9381ed603f8c1aaa88372bb9722ba78905090565b6006602052805f5260405f205f915054906101000a900460ff1681565b60045f9054906101000a900473ffffffffffffffffffffffffffffffffffffffff1681565b61085c610978565b5f600460146101000a81548160ff0219169083151502179055507fdf2c80869f8349ad696d44d9b3bd9e12796ede774eccaeefcf974f9629d223fa33426040516108a7929190611867565b60405180910390a1565b6108b9610978565b5f73ffffffffffffffffffffffffffffffffffffffff168173ffffffffffffffffffffffffffffffffffffffff1603610929575f6040517f1e4fbdf7000000000000000000000000000000000000000000000000000000008152600401610920919061122f565b60405180910390fd5b610932816109ff565b50565b5f610947610941610b37565b83610bed565b9050919050565b5f805f8061095c8686610c2d565b92509250925061096c8282610c82565b82935050505092915050565b610980610de4565b73ffffffffffffffffffffffffffffffffffffffff1661099e6107c3565b73ffffffffffffffffffffffffffffffffffffffff16146109fd576109c1610de4565b6040517f118cdaa70000000000000000000000000000000000000000000000000000000081526004016109f4919061122f565b60405180910390fd5b565b5f60025f9054906101000a900473ffffffffffffffffffffffffffffffffffffffff1690508160025f6101000a81548173ffffffffffffffffffffffffffffffffffffffff021916908373ffffffffffffffffffffffffffffffffffffffff1602179055508173ffffffffffffffffffffffffffffffffffffffff168173ffffffffffffffffffffffffffffffffffffffff167f8be0079c531659141344cd1fd0a4f28419497f9722a3daafe3b4186f6b6457e060405160405180910390a35050565b6060610af75f7f0000000000000000000000000000000000000000000000000000000000000000610deb90919063ffffffff16565b905090565b6060610b3260017f0000000000000000000000000000000000000000000000000000000000000000610deb90919063ffffffff16565b905090565b5f7f000000000000000000000000000000000000000000000000000000000000000073ffffffffffffffffffffffffffffffffffffffff163073ffffffffffffffffffffffffffffffffffffffff16148015610bb257507f000000000000000000000000000000000000000000000000000000000000000046145b15610bdf577f00000000000000000000000000000000000000000000000000000000000000009050610bea565b610be7610e98565b90505b90565b5f6040517f190100000000000000000000000000000000000000000000000000000000000081528360028201528260228201526042812091505092915050565b5f805f6041845103610c6d575f805f602087015192506040870151915060608701515f1a9050610c5f88828585610f2d565b955095509550505050610c7b565b5f600285515f1b9250925092505b9250925092565b5f6003811115610c9557610c946118bb565b5b826003811115610ca857610ca76118bb565b5b0315610de05760016003811115610cc257610cc16118bb565b5b826003811115610cd557610cd46118bb565b5b03610d0c576040517ff645eedf00000000000000000000000000000000000000000000000000000000815260040160405180910390fd5b60026003811115610d2057610d1f6118bb565b5b826003811115610d3357610d326118bb565b5b03610d7757805f1c6040517ffce698f7000000000000000000000000000000000000000000000000000000008152600401610d6e91906112e8565b60405180910390fd5b600380811115610d8a57610d896118bb565b5b826003811115610d9d57610d9c6118bb565b5b03610ddf57806040517fd78bce0c000000000000000000000000000000000000000000000000000000008152600401610dd691906111d7565b60405180910390fd5b5b5050565b5f33905090565b606060ff5f1b8314610e0757610e0083611014565b9050610e92565b818054610e1390611915565b80601f0160208091040260200160405190810160405280929190818152602001828054610e3f90611915565b8015610e8a5780601f10610e6157610100808354040283529160200191610e8a565b820191905f5260205f20905b815481529060010190602001808311610e6d57829003601f168201915b505050505090505b92915050565b5f7f8b73c3c69bb8fe3d512ecc4cf759cc79239f7b179b0ffacaa9a75d522b39400f7f00000000000000000000000000000000000000000000000000000000000000007f00000000000000000000000000000000000000000000000000000000000000004630604051602001610f12959493929190611945565b60405160208183030381529060405280519060200120905090565b5f805f7f7fffffffffffffffffffffffffffffff5d576e7357a4501ddfe92f46681b20a0845f1c1115610f69575f60038592509250925061100a565b5f6001888888886040515f8152602001604052604051610f8c94939291906119b1565b6020604051602081039080840390855afa158015610fac573d5f803e3d5ffd5b5050506020604051035190505f73ffffffffffffffffffffffffffffffffffffffff168173ffffffffffffffffffffffffffffffffffffffff1603610ffd575f60015f801b9350935093505061100a565b805f805f1b935093509350505b9450945094915050565b60605f61102083611086565b90505f602067ffffffffffffffff81111561103e5761103d61188e565b5b6040519080825280601f01601f1916602001820160405280156110705781602001600182028036833780820191505090505b5090508181528360208201528092505050919050565b5f8060ff835f1c169050601f8111156110cb576040517fb3512b0c00000000000000000000000000000000000000000000000000000000815260040160405180910390fd5b80915050919050565b5f80fd5b5f80fd5b5f80fd5b5f61010082840312156110f6576110f56110dc565b5b81905092915050565b5f80fd5b5f80fd5b5f80fd5b5f8083601f8401126111205761111f6110ff565b5b8235905067ffffffffffffffff81111561113d5761113c611103565b5b60208301915083600182028301111561115957611158611107565b5b9250929050565b5f805f6101208486031215611178576111776110d4565b5b5f611185868287016110e0565b93505061010084013567ffffffffffffffff8111156111a7576111a66110d8565b5b6111b38682870161110b565b92509250509250925092565b5f819050919050565b6111d1816111bf565b82525050565b5f6020820190506111ea5f8301846111c8565b92915050565b5f73ffffffffffffffffffffffffffffffffffffffff82169050919050565b5f611219826111f0565b9050919050565b6112298161120f565b82525050565b5f6020820190506112425f830184611220565b92915050565b5f8115159050919050565b61125c81611248565b82525050565b5f6020820190506112755f830184611253565b92915050565b6112848161120f565b811461128e575f80fd5b50565b5f8135905061129f8161127b565b92915050565b5f602082840312156112ba576112b96110d4565b5b5f6112c784828501611291565b91505092915050565b5f819050919050565b6112e2816112d0565b82525050565b5f6020820190506112fb5f8301846112d9565b92915050565b5f7fff0000000000000000000000000000000000000000000000000000000000000082169050919050565b61133581611301565b82525050565b5f81519050919050565b5f82825260208201905092915050565b8281835e5f83830152505050565b5f601f19601f8301169050919050565b5f61137d8261133b565b6113878185611345565b9350611397818560208601611355565b6113a081611363565b840191505092915050565b5f81519050919050565b5f82825260208201905092915050565b5f819050602082019050919050565b6113dd816112d0565b82525050565b5f6113ee83836113d4565b60208301905092915050565b5f602082019050919050565b5f611410826113ab565b61141a81856113b5565b9350611425836113c5565b805f5b8381101561145557815161143c88826113e3565b9750611447836113fa565b925050600181019050611428565b5085935050505092915050565b5f60e0820190506114755f83018a61132c565b81810360208301526114878189611373565b9050818103604083015261149b8188611373565b90506114aa60608301876112d9565b6114b76080830186611220565b6114c460a08301856111c8565b81810360c08301526114d68184611406565b905098975050505050505050565b6114ed816111bf565b81146114f7575f80fd5b50565b5f81359050611508816114e4565b92915050565b5f60208284031215611523576115226110d4565b5b5f611530848285016114fa565b91505092915050565b7f4369726375697420627265616b657220697320616374697665000000000000005f82015250565b5f61156d601983611345565b915061157882611539565b602082019050919050565b5f6020820190508181035f83015261159a81611561565b9050919050565b7f496e74656e7420657870697265640000000000000000000000000000000000005f82015250565b5f6115d5600e83611345565b91506115e0826115a1565b602082019050919050565b5f6020820190508181035f830152611602816115c9565b9050919050565b5f6101208201905061161d5f83018c6111c8565b61162a602083018b611220565b611637604083018a611220565b6116446060830189611220565b61165160808301886112d9565b61165e60a08301876112d9565b61166b60c08301866112d9565b61167860e08301856111c8565b6116866101008301846112d9565b9a9950505050505050505050565b7f496e74656e7420616c72656164792070726f63657373656400000000000000005f82015250565b5f6116c8601883611345565b91506116d382611694565b602082019050919050565b5f6020820190508181035f8301526116f5816116bc565b9050919050565b7f496e76616c6964206167656e74207369676e61747572650000000000000000005f82015250565b5f611730601783611345565b915061173b826116fc565b602082019050919050565b5f6020820190508181035f83015261175d81611724565b9050919050565b7f496e76616c6964206e6f6e6365000000000000000000000000000000000000005f82015250565b5f611798600d83611345565b91506117a382611764565b602082019050919050565b5f6020820190508181035f8301526117c58161178c565b9050919050565b7f4e487b71000000000000000000000000000000000000000000000000000000005f52601160045260245ffd5b5f611803826112d0565b91507fffffffffffffffffffffffffffffffffffffffffffffffffffffffffffffffff8203611835576118346117cc565b5b600182019050919050565b5f6040820190506118535f8301856111c8565b61186060208301846112d9565b9392505050565b5f60408201905061187a5f830185611220565b61188760208301846112d9565b9392505050565b7f4e487b71000000000000000000000000000000000000000000000000000000005f52604160045260245ffd5b7f4e487b71000000000000000000000000000000000000000000000000000000005f52602160045260245ffd5b7f4e487b71000000000000000000000000000000000000000000000000000000005f52602260045260245ffd5b5f600282049050600182168061192c57607f821691505b60208210810361193f5761193e6118e8565b5b50919050565b5f60a0820190506119585f8301886111c8565b61196560208301876111c8565b61197260408301866111c8565b61197f60608301856112d9565b61198c6080830184611220565b9695505050505050565b5f60ff82169050919050565b6119ab81611996565b82525050565b5f6080820190506119c45f8301876111c8565b6119d160208301866119a2565b6119de60408301856111c8565b6119eb60608301846111c8565b9594505050505056fea26469706673582212202bb551235e3fc527d4134a949a8402721649f79890ff32c2bddaf7f7ff0c8a7c64736f6c63430008190033","opcodes":"PUSH2 0x160 PUSH1 0x40 MSTORE CALLVALUE DUP1 ISZERO PUSH2 0x10 JUMPI PUSH0 DUP1 REVERT JUMPDEST POP PUSH1 0x40 MLOAD PUSH2 0x2400 CODESIZE SUB DUP1 PUSH2 0x2400 DUP4 CODECOPY DUP2 DUP2 ADD PUSH1 0x40 MSTORE DUP2 ADD SWAP1 PUSH2 0x32 SWAP2 SWAP1 PUSH2 0x485 JUMP JUMPDEST CALLER PUSH1 0x40 MLOAD DUP1 PUSH1 0x40 ADD PUSH1 0x40 MSTORE DUP1 PUSH1 0x15 DUP2 MSTORE PUSH1 0x20 ADD PUSH32 0x477561726469616E4149205269736B526F757465720000000000000000000000 DUP2 MSTORE POP PUSH1 0x40 MLOAD DUP1 PUSH1 0x40 ADD PUSH1 0x40 MSTORE DUP1 PUSH1 0x1 DUP2 MSTORE PUSH1 0x20 ADD PUSH32 0x3100000000000000000000000000000000000000000000000000000000000000 DUP2 MSTORE POP PUSH2 0xB2 PUSH0 DUP4 PUSH2 0x24F PUSH1 0x20 SHL SWAP1 SWAP2 SWAP1 PUSH1 0x20 SHR JUMP JUMPDEST PUSH2 0x120 DUP2 DUP2 MSTORE POP POP PUSH2 0xCE PUSH1 0x1 DUP3 PUSH2 0x24F PUSH1 0x20 SHL SWAP1 SWAP2 SWAP1 PUSH1 0x20 SHR JUMP JUMPDEST PUSH2 0x140 DUP2 DUP2 MSTORE POP POP DUP2 DUP1 MLOAD SWAP1 PUSH1 0x20 ADD KECCAK256 PUSH1 0xE0 DUP2 DUP2 MSTORE POP POP DUP1 DUP1 MLOAD SWAP1 PUSH1 0x20 ADD KECCAK256 PUSH2 0x100 DUP2 DUP2 MSTORE POP POP CHAINID PUSH1 0xA0 DUP2 DUP2 MSTORE POP POP PUSH2 0x10B PUSH2 0x29C PUSH1 0x20 SHL PUSH1 0x20 SHR JUMP JUMPDEST PUSH1 0x80 DUP2 DUP2 MSTORE POP POP ADDRESS PUSH20 0xFFFFFFFFFFFFFFFFFFFFFFFFFFFFFFFFFFFFFFFF AND PUSH1 0xC0 DUP2 PUSH20 0xFFFFFFFFFFFFFFFFFFFFFFFFFFFFFFFFFFFFFFFF AND DUP2 MSTORE POP POP POP POP PUSH0 PUSH20 0xFFFFFFFFFFFFFFFFFFFFFFFFFFFFFFFFFFFFFFFF AND DUP2 PUSH20 0xFFFFFFFFFFFFFFFFFFFFFFFFFFFFFFFFFFFFFFFF AND SUB PUSH2 0x1B8 JUMPI PUSH0 PUSH1 0x40 MLOAD PUSH32 0x1E4FBDF700000000000000000000000000000000000000000000000000000000 DUP2 MSTORE PUSH1 0x4 ADD PUSH2 0x1AF SWAP2 SWAP1 PUSH2 0x4D2 JUMP JUMPDEST PUSH1 0x40 MLOAD DUP1 SWAP2 SUB SWAP1 REVERT JUMPDEST PUSH2 0x1C7 DUP2 PUSH2 0x2F6 PUSH1 0x20 SHL PUSH1 0x20 SHR JUMP JUMPDEST POP DUP2 PUSH1 0x3 PUSH0 PUSH2 0x100 EXP DUP2 SLOAD DUP2 PUSH20 0xFFFFFFFFFFFFFFFFFFFFFFFFFFFFFFFFFFFFFFFF MUL NOT AND SWAP1 DUP4 PUSH20 0xFFFFFFFFFFFFFFFFFFFFFFFFFFFFFFFFFFFFFFFF AND MUL OR SWAP1 SSTORE POP DUP1 PUSH1 0x4 PUSH0 PUSH2 0x100 EXP DUP2 SLOAD DUP2 PUSH20 0xFFFFFFFFFFFFFFFFFFFFFFFFFFFFFFFFFFFFFFFF MUL NOT AND SWAP1 DUP4 PUSH20 0xFFFFFFFFFFFFFFFFFFFFFFFFFFFFFFFFFFFFFFFF AND MUL OR SWAP1 SSTORE POP POP POP PUSH2 0x985 JUMP JUMPDEST PUSH0 PUSH1 0x20 DUP4 MLOAD LT ISZERO PUSH2 0x270 JUMPI PUSH2 0x269 DUP4 PUSH2 0x3B9 PUSH1 0x20 SHL PUSH1 0x20 SHR JUMP JUMPDEST SWAP1 POP PUSH2 0x296 JUMP JUMPDEST DUP3 PUSH2 0x280 DUP4 PUSH2 0x41E PUSH1 0x20 SHL PUSH1 0x20 SHR JUMP JUMPDEST PUSH0 ADD SWAP1 DUP2 PUSH2 0x28E SWAP2 SWAP1 PUSH2 0x725 JUMP JUMPDEST POP PUSH1 0xFF PUSH0 SHL SWAP1 POP JUMPDEST SWAP3 SWAP2 POP POP JUMP JUMPDEST PUSH0 PUSH32 0x8B73C3C69BB8FE3D512ECC4CF759CC79239F7B179B0FFACAA9A75D522B39400F PUSH1 0xE0 MLOAD PUSH2 0x100 MLOAD CHAINID ADDRESS PUSH1 0x40 MLOAD PUSH1 0x20 ADD PUSH2 0x2DB SWAP6 SWAP5 SWAP4 SWAP3 SWAP2 SWAP1 PUSH2 0x81B JUMP JUMPDEST PUSH1 0x40 MLOAD PUSH1 0x20 DUP2 DUP4 SUB SUB DUP2 MSTORE SWAP1 PUSH1 0x40 MSTORE DUP1 MLOAD SWAP1 PUSH1 0x20 ADD KECCAK256 SWAP1 POP SWAP1 JUMP JUMPDEST PUSH0 PUSH1 0x2 PUSH0 SWAP1 SLOAD SWAP1 PUSH2 0x100 EXP SWAP1 DIV PUSH20 0xFFFFFFFFFFFFFFFFFFFFFFFFFFFFFFFFFFFFFFFF AND SWAP1 POP DUP2 PUSH1 0x2 PUSH0 PUSH2 0x100 EXP DUP2 SLOAD DUP2 PUSH20 0xFFFFFFFFFFFFFFFFFFFFFFFFFFFFFFFFFFFFFFFF MUL NOT AND SWAP1 DUP4 PUSH20 0xFFFFFFFFFFFFFFFFFFFFFFFFFFFFFFFFFFFFFFFF AND MUL OR SWAP1 SSTORE POP DUP2 PUSH20 0xFFFFFFFFFFFFFFFFFFFFFFFFFFFFFFFFFFFFFFFF AND DUP2 PUSH20 0xFFFFFFFFFFFFFFFFFFFFFFFFFFFFFFFFFFFFFFFF AND PUSH32 0x8BE0079C531659141344CD1FD0A4F28419497F9722A3DAAFE3B4186F6B6457E0 PUSH1 0x40 MLOAD PUSH1 0x40 MLOAD DUP1 SWAP2 SUB SWAP1 LOG3 POP POP JUMP JUMPDEST PUSH0 DUP1 DUP3 SWAP1 POP PUSH1 0x1F DUP2 MLOAD GT ISZERO PUSH2 0x405 JUMPI DUP3 PUSH1 0x40 MLOAD PUSH32 0x305A27A900000000000000000000000000000000000000000000000000000000 DUP2 MSTORE PUSH1 0x4 ADD PUSH2 0x3FC SWAP2 SWAP1 PUSH2 0x8D2 JUMP JUMPDEST PUSH1 0x40 MLOAD DUP1 SWAP2 SUB SWAP1 REVERT JUMPDEST DUP1 MLOAD DUP2 PUSH2 0x411 SWAP1 PUSH2 0x91F JUMP JUMPDEST PUSH0 SHR OR PUSH0 SHL SWAP2 POP POP SWAP2 SWAP1 POP JUMP JUMPDEST PUSH0 DUP2 SWAP1 POP SWAP2 SWAP1 POP JUMP JUMPDEST PUSH0 DUP1 REVERT JUMPDEST PUSH0 PUSH20 0xFFFFFFFFFFFFFFFFFFFFFFFFFFFFFFFFFFFFFFFF DUP3 AND SWAP1 POP SWAP2 SWAP1 POP JUMP JUMPDEST PUSH0 PUSH2 0x454 DUP3 PUSH2 0x42B JUMP JUMPDEST SWAP1 POP SWAP2 SWAP1 POP JUMP JUMPDEST PUSH2 0x464 DUP2 PUSH2 0x44A JUMP JUMPDEST DUP2 EQ PUSH2 0x46E JUMPI PUSH0 DUP1 REVERT JUMPDEST POP JUMP JUMPDEST PUSH0 DUP2 MLOAD SWAP1 POP PUSH2 0x47F DUP2 PUSH2 0x45B JUMP JUMPDEST SWAP3 SWAP2 POP POP JUMP JUMPDEST PUSH0 DUP1 PUSH1 0x40 DUP4 DUP6 SUB SLT ISZERO PUSH2 0x49B JUMPI PUSH2 0x49A PUSH2 0x427 JUMP JUMPDEST JUMPDEST PUSH0 PUSH2 0x4A8 DUP6 DUP3 DUP7 ADD PUSH2 0x471 JUMP JUMPDEST SWAP3 POP POP PUSH1 0x20 PUSH2 0x4B9 DUP6 DUP3 DUP7 ADD PUSH2 0x471 JUMP JUMPDEST SWAP2 POP POP SWAP3 POP SWAP3 SWAP1 POP JUMP JUMPDEST PUSH2 0x4CC DUP2 PUSH2 0x44A JUMP JUMPDEST DUP3 MSTORE POP POP JUMP JUMPDEST PUSH0 PUSH1 0x20 DUP3 ADD SWAP1 POP PUSH2 0x4E5 PUSH0 DUP4 ADD DUP5 PUSH2 0x4C3 JUMP JUMPDEST SWAP3 SWAP2 POP POP JUMP JUMPDEST PUSH0 DUP2 MLOAD SWAP1 POP SWAP2 SWAP1 POP JUMP JUMPDEST PUSH32 0x4E487B7100000000000000000000000000000000000000000000000000000000 PUSH0 MSTORE PUSH1 0x41 PUSH1 0x4 MSTORE PUSH1 0x24 PUSH0 REVERT JUMPDEST PUSH32 0x4E487B7100000000000000000000000000000000000000000000000000000000 PUSH0 MSTORE PUSH1 0x22 PUSH1 0x4 MSTORE PUSH1 0x24 PUSH0 REVERT JUMPDEST PUSH0 PUSH1 0x2 DUP3 DIV SWAP1 POP PUSH1 0x1 DUP3 AND DUP1 PUSH2 0x566 JUMPI PUSH1 0x7F DUP3 AND SWAP2 POP JUMPDEST PUSH1 0x20 DUP3 LT DUP2 SUB PUSH2 0x579 JUMPI PUSH2 0x578 PUSH2 0x522 JUMP JUMPDEST JUMPDEST POP SWAP2 SWAP1 POP JUMP JUMPDEST PUSH0 DUP2 SWAP1 POP DUP2 PUSH0 MSTORE PUSH1 0x20 PUSH0 KECCAK256 SWAP1 POP SWAP2 SWAP1 POP JUMP JUMPDEST PUSH0 PUSH1 0x20 PUSH1 0x1F DUP4 ADD DIV SWAP1 POP SWAP2 SWAP1 POP JUMP JUMPDEST PUSH0 DUP3 DUP3 SHL SWAP1 POP SWAP3 SWAP2 POP POP JUMP JUMPDEST PUSH0 PUSH1 0x8 DUP4 MUL PUSH2 0x5DB PUSH32 0xFFFFFFFFFFFFFFFFFFFFFFFFFFFFFFFFFFFFFFFFFFFFFFFFFFFFFFFFFFFFFFFF DUP3 PUSH2 0x5A0 JUMP JUMPDEST PUSH2 0x5E5 DUP7 DUP4 PUSH2 0x5A0 JUMP JUMPDEST SWAP6 POP DUP1 NOT DUP5 AND SWAP4 POP DUP1 DUP7 AND DUP5 OR SWAP3 POP POP POP SWAP4 SWAP3 POP POP POP JUMP JUMPDEST PUSH0 DUP2 SWAP1 POP SWAP2 SWAP1 POP JUMP JUMPDEST PUSH0 DUP2 SWAP1 POP SWAP2 SWAP1 POP JUMP JUMPDEST PUSH0 PUSH2 0x629 PUSH2 0x624 PUSH2 0x61F DUP5 PUSH2 0x5FD JUMP JUMPDEST PUSH2 0x606 JUMP JUMPDEST PUSH2 0x5FD JUMP JUMPDEST SWAP1 POP SWAP2 SWAP1 POP JUMP JUMPDEST PUSH0 DUP2 SWAP1 POP SWAP2 SWAP1 POP JUMP JUMPDEST PUSH2 0x642 DUP4 PUSH2 0x60F JUMP JUMPDEST PUSH2 0x656 PUSH2 0x64E DUP3 PUSH2 0x630 JUMP JUMPDEST DUP5 DUP5 SLOAD PUSH2 0x5AC JUMP JUMPDEST DUP3 SSTORE POP POP POP POP JUMP JUMPDEST PUSH0 SWAP1 JUMP JUMPDEST PUSH2 0x66A PUSH2 0x65E JUMP JUMPDEST PUSH2 0x675 DUP2 DUP5 DUP5 PUSH2 0x639 JUMP JUMPDEST POP POP POP JUMP JUMPDEST JUMPDEST DUP2 DUP2 LT ISZERO PUSH2 0x698 JUMPI PUSH2 0x68D PUSH0 DUP3 PUSH2 0x662 JUMP JUMPDEST PUSH1 0x1 DUP2 ADD SWAP1 POP PUSH2 0x67B JUMP JUMPDEST POP POP JUMP JUMPDEST PUSH1 0x1F DUP3 GT ISZERO PUSH2 0x6DD JUMPI PUSH2 0x6AE DUP2 PUSH2 0x57F JUMP JUMPDEST PUSH2 0x6B7 DUP5 PUSH2 0x591 JUMP JUMPDEST DUP2 ADD PUSH1 0x20 DUP6 LT ISZERO PUSH2 0x6C6 JUMPI DUP2 SWAP1 POP JUMPDEST PUSH2 0x6DA PUSH2 0x6D2 DUP6 PUSH2 0x591 JUMP JUMPDEST DUP4 ADD DUP3 PUSH2 0x67A JUMP JUMPDEST POP POP JUMPDEST POP POP POP JUMP JUMPDEST PUSH0 DUP3 DUP3 SHR SWAP1 POP SWAP3 SWAP2 POP POP JUMP JUMPDEST PUSH0 PUSH2 0x6FD PUSH0 NOT DUP5 PUSH1 0x8 MUL PUSH2 0x6E2 JUMP JUMPDEST NOT DUP1 DUP4 AND SWAP2 POP POP SWAP3 SWAP2 POP POP JUMP JUMPDEST PUSH0 PUSH2 0x715 DUP4 DUP4 PUSH2 0x6EE JUMP JUMPDEST SWAP2 POP DUP3 PUSH1 0x2 MUL DUP3 OR SWAP1 POP SWAP3 SWAP2 POP POP JUMP JUMPDEST PUSH2 0x72E DUP3 PUSH2 0x4EB JUMP JUMPDEST PUSH8 0xFFFFFFFFFFFFFFFF DUP2 GT ISZERO PUSH2 0x747 JUMPI PUSH2 0x746 PUSH2 0x4F5 JUMP JUMPDEST JUMPDEST PUSH2 0x751 DUP3 SLOAD PUSH2 0x54F JUMP JUMPDEST PUSH2 0x75C DUP3 DUP3 DUP6 PUSH2 0x69C JUMP JUMPDEST PUSH0 PUSH1 0x20 SWAP1 POP PUSH1 0x1F DUP4 GT PUSH1 0x1 DUP2 EQ PUSH2 0x78D JUMPI PUSH0 DUP5 ISZERO PUSH2 0x77B JUMPI DUP3 DUP8 ADD MLOAD SWAP1 POP JUMPDEST PUSH2 0x785 DUP6 DUP3 PUSH2 0x70A JUMP JUMPDEST DUP7 SSTORE POP PUSH2 0x7EC JUMP JUMPDEST PUSH1 0x1F NOT DUP5 AND PUSH2 0x79B DUP7 PUSH2 0x57F JUMP JUMPDEST PUSH0 JUMPDEST DUP3 DUP2 LT ISZERO PUSH2 0x7C2 JUMPI DUP5 DUP10 ADD MLOAD DUP3 SSTORE PUSH1 0x1 DUP3 ADD SWAP2 POP PUSH1 0x20 DUP6 ADD SWAP5 POP PUSH1 0x20 DUP2 ADD SWAP1 POP PUSH2 0x79D JUMP JUMPDEST DUP7 DUP4 LT ISZERO PUSH2 0x7DF JUMPI DUP5 DUP10 ADD MLOAD PUSH2 0x7DB PUSH1 0x1F DUP10 AND DUP3 PUSH2 0x6EE JUMP JUMPDEST DUP4 SSTORE POP JUMPDEST PUSH1 0x1 PUSH1 0x2 DUP9 MUL ADD DUP9 SSTORE POP POP POP JUMPDEST POP POP POP POP POP POP JUMP JUMPDEST PUSH0 DUP2 SWAP1 POP SWAP2 SWAP1 POP JUMP JUMPDEST PUSH2 0x806 DUP2 PUSH2 0x7F4 JUMP JUMPDEST DUP3 MSTORE POP POP JUMP JUMPDEST PUSH2 0x815 DUP2 PUSH2 0x5FD JUMP JUMPDEST DUP3 MSTORE POP POP JUMP JUMPDEST PUSH0 PUSH1 0xA0 DUP3 ADD SWAP1 POP PUSH2 0x82E PUSH0 DUP4 ADD DUP9 PUSH2 0x7FD JUMP JUMPDEST PUSH2 0x83B PUSH1 0x20 DUP4 ADD DUP8 PUSH2 0x7FD JUMP JUMPDEST PUSH2 0x848 PUSH1 0x40 DUP4 ADD DUP7 PUSH2 0x7FD JUMP JUMPDEST PUSH2 0x855 PUSH1 0x60 DUP4 ADD DUP6 PUSH2 0x80C JUMP JUMPDEST PUSH2 0x862 PUSH1 0x80 DUP4 ADD DUP5 PUSH2 0x4C3 JUMP JUMPDEST SWAP7 SWAP6 POP POP POP POP POP POP JUMP JUMPDEST PUSH0 DUP3 DUP3 MSTORE PUSH1 0x20 DUP3 ADD SWAP1 POP SWAP3 SWAP2 POP POP JUMP JUMPDEST DUP3 DUP2 DUP4 MCOPY PUSH0 DUP4 DUP4 ADD MSTORE POP POP POP JUMP JUMPDEST PUSH0 PUSH1 0x1F NOT PUSH1 0x1F DUP4 ADD AND SWAP1 POP SWAP2 SWAP1 POP JUMP JUMPDEST PUSH0 PUSH2 0x8A4 DUP3 PUSH2 0x4EB JUMP JUMPDEST PUSH2 0x8AE DUP2 DUP6 PUSH2 0x86C JUMP JUMPDEST SWAP4 POP PUSH2 0x8BE DUP2 DUP6 PUSH1 0x20 DUP7 ADD PUSH2 0x87C JUMP JUMPDEST PUSH2 0x8C7 DUP2 PUSH2 0x88A JUMP JUMPDEST DUP5 ADD SWAP2 POP POP SWAP3 SWAP2 POP POP JUMP JUMPDEST PUSH0 PUSH1 0x20 DUP3 ADD SWAP1 POP DUP2 DUP2 SUB PUSH0 DUP4 ADD MSTORE PUSH2 0x8EA DUP2 DUP5 PUSH2 0x89A JUMP JUMPDEST SWAP1 POP SWAP3 SWAP2 POP POP JUMP JUMPDEST PUSH0 DUP2 MLOAD SWAP1 POP SWAP2 SWAP1 POP JUMP JUMPDEST PUSH0 DUP2 SWAP1 POP PUSH1 0x20 DUP3 ADD SWAP1 POP SWAP2 SWAP1 POP JUMP JUMPDEST PUSH0 PUSH2 0x916 DUP3 MLOAD PUSH2 0x7F4 JUMP JUMPDEST DUP1 SWAP2 POP POP SWAP2 SWAP1 POP JUMP JUMPDEST PUSH0 PUSH2 0x929 DUP3 PUSH2 0x8F2 JUMP JUMPDEST DUP3 PUSH2 0x933 DUP5 PUSH2 0x8FC JUMP JUMPDEST SWAP1 POP PUSH2 0x93E DUP2 PUSH2 0x90B JUMP JUMPDEST SWAP3 POP PUSH1 0x20 DUP3 LT ISZERO PUSH2 0x97E JUMPI PUSH2 0x979 PUSH32 0xFFFFFFFFFFFFFFFFFFFFFFFFFFFFFFFFFFFFFFFFFFFFFFFFFFFFFFFFFFFFFFFF DUP4 PUSH1 0x20 SUB PUSH1 0x8 MUL PUSH2 0x5A0 JUMP JUMPDEST DUP4 AND SWAP3 POP JUMPDEST POP POP SWAP2 SWAP1 POP JUMP JUMPDEST PUSH1 0x80 MLOAD PUSH1 0xA0 MLOAD PUSH1 0xC0 MLOAD PUSH1 0xE0 MLOAD PUSH2 0x100 MLOAD PUSH2 0x120 MLOAD PUSH2 0x140 MLOAD PUSH2 0x1A2A PUSH2 0x9D6 PUSH0 CODECOPY PUSH0 PUSH2 0xB05 ADD MSTORE PUSH0 PUSH2 0xACA ADD MSTORE PUSH0 PUSH2 0xEDD ADD MSTORE PUSH0 PUSH2 0xEBC ADD MSTORE PUSH0 PUSH2 0xB3A ADD MSTORE PUSH0 PUSH2 0xB90 ADD MSTORE PUSH0 PUSH2 0xBB9 ADD MSTORE PUSH2 0x1A2A PUSH0 RETURN INVALID PUSH1 0x80 PUSH1 0x40 MSTORE CALLVALUE DUP1 ISZERO PUSH2 0xF JUMPI PUSH0 DUP1 REVERT JUMPDEST POP PUSH1 0x4 CALLDATASIZE LT PUSH2 0xCD JUMPI PUSH0 CALLDATALOAD PUSH1 0xE0 SHR DUP1 PUSH4 0x84B0196E GT PUSH2 0x8A JUMPI DUP1 PUSH4 0xC2C8A008 GT PUSH2 0x64 JUMPI DUP1 PUSH4 0xC2C8A008 EQ PUSH2 0x1E1 JUMPI DUP1 PUSH4 0xC8DB44E3 EQ PUSH2 0x211 JUMPI DUP1 PUSH4 0xDE5F8D93 EQ PUSH2 0x22F JUMPI DUP1 PUSH4 0xF2FDE38B EQ PUSH2 0x239 JUMPI PUSH2 0xCD JUMP JUMPDEST DUP1 PUSH4 0x84B0196E EQ PUSH2 0x181 JUMPI DUP1 PUSH4 0x8DA5CB5B EQ PUSH2 0x1A5 JUMPI DUP1 PUSH4 0x9513CDFA EQ PUSH2 0x1C3 JUMPI PUSH2 0xCD JUMP JUMPDEST DUP1 PUSH4 0x456D1EC EQ PUSH2 0xD1 JUMPI DUP1 PUSH4 0xD1CFCAE EQ PUSH2 0x101 JUMPI DUP1 PUSH4 0x18531D77 EQ PUSH2 0x11F JUMPI DUP1 PUSH4 0x26F90099 EQ PUSH2 0x13D JUMPI DUP1 PUSH4 0x59AB0321 EQ PUSH2 0x16D JUMPI DUP1 PUSH4 0x715018A6 EQ PUSH2 0x177 JUMPI JUMPDEST PUSH0 DUP1 REVERT JUMPDEST PUSH2 0xEB PUSH1 0x4 DUP1 CALLDATASIZE SUB DUP2 ADD SWAP1 PUSH2 0xE6 SWAP2 SWAP1 PUSH2 0x1160 JUMP JUMPDEST PUSH2 0x255 JUMP JUMPDEST PUSH1 0x40 MLOAD PUSH2 0xF8 SWAP2 SWAP1 PUSH2 0x11D7 JUMP JUMPDEST PUSH1 0x40 MLOAD DUP1 SWAP2 SUB SWAP1 RETURN JUMPDEST PUSH2 0x109 PUSH2 0x660 JUMP JUMPDEST PUSH1 0x40 MLOAD PUSH2 0x116 SWAP2 SWAP1 PUSH2 0x122F JUMP JUMPDEST PUSH1 0x40 MLOAD DUP1 SWAP2 SUB SWAP1 RETURN JUMPDEST PUSH2 0x127 PUSH2 0x685 JUMP JUMPDEST PUSH1 0x40 MLOAD PUSH2 0x134 SWAP2 SWAP1 PUSH2 0x1262 JUMP JUMPDEST PUSH1 0x40 MLOAD DUP1 SWAP2 SUB SWAP1 RETURN JUMPDEST PUSH2 0x157 PUSH1 0x4 DUP1 CALLDATASIZE SUB DUP2 ADD SWAP1 PUSH2 0x152 SWAP2 SWAP1 PUSH2 0x12A5 JUMP JUMPDEST PUSH2 0x698 JUMP JUMPDEST PUSH1 0x40 MLOAD PUSH2 0x164 SWAP2 SWAP1 PUSH2 0x12E8 JUMP JUMPDEST PUSH1 0x40 MLOAD DUP1 SWAP2 SUB SWAP1 RETURN JUMPDEST PUSH2 0x175 PUSH2 0x6AD JUMP JUMPDEST STOP JUMPDEST PUSH2 0x17F PUSH2 0x70B JUMP JUMPDEST STOP JUMPDEST PUSH2 0x189 PUSH2 0x71E JUMP JUMPDEST PUSH1 0x40 MLOAD PUSH2 0x19C SWAP8 SWAP7 SWAP6 SWAP5 SWAP4 SWAP3 SWAP2 SWAP1 PUSH2 0x1462 JUMP JUMPDEST PUSH1 0x40 MLOAD DUP1 SWAP2 SUB SWAP1 RETURN JUMPDEST PUSH2 0x1AD PUSH2 0x7C3 JUMP JUMPDEST PUSH1 0x40 MLOAD PUSH2 0x1BA SWAP2 SWAP1 PUSH2 0x122F JUMP JUMPDEST PUSH1 0x40 MLOAD DUP1 SWAP2 SUB SWAP1 RETURN JUMPDEST PUSH2 0x1CB PUSH2 0x7EB JUMP JUMPDEST PUSH1 0x40 MLOAD PUSH2 0x1D8 SWAP2 SWAP1 PUSH2 0x11D7 JUMP JUMPDEST PUSH1 0x40 MLOAD DUP1 SWAP2 SUB SWAP1 RETURN JUMPDEST PUSH2 0x1FB PUSH1 0x4 DUP1 CALLDATASIZE SUB DUP2 ADD SWAP1 PUSH2 0x1F6 SWAP2 SWAP1 PUSH2 0x150E JUMP JUMPDEST PUSH2 0x812 JUMP JUMPDEST PUSH1 0x40 MLOAD PUSH2 0x208 SWAP2 SWAP1 PUSH2 0x1262 JUMP JUMPDEST PUSH1 0x40 MLOAD DUP1 SWAP2 SUB SWAP1 RETURN JUMPDEST PUSH2 0x219 PUSH2 0x82F JUMP JUMPDEST PUSH1 0x40 MLOAD PUSH2 0x226 SWAP2 SWAP1 PUSH2 0x122F JUMP JUMPDEST PUSH1 0x40 MLOAD DUP1 SWAP2 SUB SWAP1 RETURN JUMPDEST PUSH2 0x237 PUSH2 0x854 JUMP JUMPDEST STOP JUMPDEST PUSH2 0x253 PUSH1 0x4 DUP1 CALLDATASIZE SUB DUP2 ADD SWAP1 PUSH2 0x24E SWAP2 SWAP1 PUSH2 0x12A5 JUMP JUMPDEST PUSH2 0x8B1 JUMP JUMPDEST STOP JUMPDEST PUSH0 PUSH1 0x4 PUSH1 0x14 SWAP1 SLOAD SWAP1 PUSH2 0x100 EXP SWAP1 DIV PUSH1 0xFF AND ISZERO PUSH2 0x2A6 JUMPI PUSH1 0x40 MLOAD PUSH32 0x8C379A000000000000000000000000000000000000000000000000000000000 DUP2 MSTORE PUSH1 0x4 ADD PUSH2 0x29D SWAP1 PUSH2 0x1583 JUMP JUMPDEST PUSH1 0x40 MLOAD DUP1 SWAP2 SUB SWAP1 REVERT JUMPDEST TIMESTAMP DUP5 PUSH1 0xA0 ADD CALLDATALOAD LT ISZERO PUSH2 0x2ED JUMPI PUSH1 0x40 MLOAD PUSH32 0x8C379A000000000000000000000000000000000000000000000000000000000 DUP2 MSTORE PUSH1 0x4 ADD PUSH2 0x2E4 SWAP1 PUSH2 0x15EB JUMP JUMPDEST PUSH1 0x40 MLOAD DUP1 SWAP2 SUB SWAP1 REVERT JUMPDEST PUSH0 PUSH32 0xDD155A7C2340D28E64FCD098F0398BEFA9381ED603F8C1AAA88372BB9722BA78 DUP6 PUSH0 ADD PUSH1 0x20 DUP2 ADD SWAP1 PUSH2 0x321 SWAP2 SWAP1 PUSH2 0x12A5 JUMP JUMPDEST DUP7 PUSH1 0x20 ADD PUSH1 0x20 DUP2 ADD SWAP1 PUSH2 0x334 SWAP2 SWAP1 PUSH2 0x12A5 JUMP JUMPDEST DUP8 PUSH1 0x40 ADD PUSH1 0x20 DUP2 ADD SWAP1 PUSH2 0x347 SWAP2 SWAP1 PUSH2 0x12A5 JUMP JUMPDEST DUP9 PUSH1 0x60 ADD CALLDATALOAD DUP10 PUSH1 0x80 ADD CALLDATALOAD DUP11 PUSH1 0xA0 ADD CALLDATALOAD DUP12 PUSH1 0xC0 ADD CALLDATALOAD DUP13 PUSH1 0xE0 ADD CALLDATALOAD PUSH1 0x40 MLOAD PUSH1 0x20 ADD PUSH2 0x378 SWAP10 SWAP9 SWAP8 SWAP7 SWAP6 SWAP5 SWAP4 SWAP3 SWAP2 SWAP1 PUSH2 0x1609 JUMP JUMPDEST PUSH1 0x40 MLOAD PUSH1 0x20 DUP2 DUP4 SUB SUB DUP2 MSTORE SWAP1 PUSH1 0x40 MSTORE DUP1 MLOAD SWAP1 PUSH1 0x20 ADD KECCAK256 SWAP1 POP PUSH2 0x399 DUP2 PUSH2 0x935 JUMP JUMPDEST SWAP2 POP PUSH1 0x6 PUSH0 DUP4 DUP2 MSTORE PUSH1 0x20 ADD SWAP1 DUP2 MSTORE PUSH1 0x20 ADD PUSH0 KECCAK256 PUSH0 SWAP1 SLOAD SWAP1 PUSH2 0x100 EXP SWAP1 DIV PUSH1 0xFF AND ISZERO PUSH2 0x3F9 JUMPI PUSH1 0x40 MLOAD PUSH32 0x8C379A000000000000000000000000000000000000000000000000000000000 DUP2 MSTORE PUSH1 0x4 ADD PUSH2 0x3F0 SWAP1 PUSH2 0x16DE JUMP JUMPDEST PUSH1 0x40 MLOAD DUP1 SWAP2 SUB SWAP1 REVERT JUMPDEST PUSH0 PUSH2 0x450 DUP6 DUP6 DUP1 DUP1 PUSH1 0x1F ADD PUSH1 0x20 DUP1 SWAP2 DIV MUL PUSH1 0x20 ADD PUSH1 0x40 MLOAD SWAP1 DUP2 ADD PUSH1 0x40 MSTORE DUP1 SWAP4 SWAP3 SWAP2 SWAP1 DUP2 DUP2 MSTORE PUSH1 0x20 ADD DUP4 DUP4 DUP1 DUP3 DUP5 CALLDATACOPY PUSH0 DUP2 DUP5 ADD MSTORE PUSH1 0x1F NOT PUSH1 0x1F DUP3 ADD AND SWAP1 POP DUP1 DUP4 ADD SWAP3 POP POP POP POP POP POP POP DUP5 PUSH2 0x94E SWAP1 SWAP2 SWAP1 PUSH4 0xFFFFFFFF AND JUMP JUMPDEST SWAP1 POP DUP6 PUSH0 ADD PUSH1 0x20 DUP2 ADD SWAP1 PUSH2 0x464 SWAP2 SWAP1 PUSH2 0x12A5 JUMP JUMPDEST PUSH20 0xFFFFFFFFFFFFFFFFFFFFFFFFFFFFFFFFFFFFFFFF AND DUP2 PUSH20 0xFFFFFFFFFFFFFFFFFFFFFFFFFFFFFFFFFFFFFFFF AND EQ PUSH2 0x4D1 JUMPI PUSH1 0x40 MLOAD PUSH32 0x8C379A000000000000000000000000000000000000000000000000000000000 DUP2 MSTORE PUSH1 0x4 ADD PUSH2 0x4C8 SWAP1 PUSH2 0x1746 JUMP JUMPDEST PUSH1 0x40 MLOAD DUP1 SWAP2 SUB SWAP1 REVERT JUMPDEST PUSH1 0x5 PUSH0 DUP8 PUSH0 ADD PUSH1 0x20 DUP2 ADD SWAP1 PUSH2 0x4E6 SWAP2 SWAP1 PUSH2 0x12A5 JUMP JUMPDEST PUSH20 0xFFFFFFFFFFFFFFFFFFFFFFFFFFFFFFFFFFFFFFFF AND PUSH20 0xFFFFFFFFFFFFFFFFFFFFFFFFFFFFFFFFFFFFFFFF AND DUP2 MSTORE PUSH1 0x20 ADD SWAP1 DUP2 MSTORE PUSH1 0x20 ADD PUSH0 KECCAK256 SLOAD DUP7 PUSH1 0xE0 ADD CALLDATALOAD EQ PUSH2 0x565 JUMPI PUSH1 0x40 MLOAD PUSH32 0x8C379A000000000000000000000000000000000000000000000000000000000 DUP2 MSTORE PUSH1 0x4 ADD PUSH2 0x55C SWAP1 PUSH2 0x17AE JUMP JUMPDEST PUSH1 0x40 MLOAD DUP1 SWAP2 SUB SWAP1 REVERT JUMPDEST PUSH1 0x5 PUSH0 DUP8 PUSH0 ADD PUSH1 0x20 DUP2 ADD SWAP1 PUSH2 0x57A SWAP2 SWAP1 PUSH2 0x12A5 JUMP JUMPDEST PUSH20 0xFFFFFFFFFFFFFFFFFFFFFFFFFFFFFFFFFFFFFFFF AND PUSH20 0xFFFFFFFFFFFFFFFFFFFFFFFFFFFFFFFFFFFFFFFF AND DUP2 MSTORE PUSH1 0x20 ADD SWAP1 DUP2 MSTORE PUSH1 0x20 ADD PUSH0 KECCAK256 PUSH0 DUP2 SLOAD DUP1 SWAP3 SWAP2 SWAP1 PUSH2 0x5C3 SWAP1 PUSH2 0x17F9 JUMP JUMPDEST SWAP2 SWAP1 POP SSTORE POP PUSH1 0x1 PUSH1 0x6 PUSH0 DUP6 DUP2 MSTORE PUSH1 0x20 ADD SWAP1 DUP2 MSTORE PUSH1 0x20 ADD PUSH0 KECCAK256 PUSH0 PUSH2 0x100 EXP DUP2 SLOAD DUP2 PUSH1 0xFF MUL NOT AND SWAP1 DUP4 ISZERO ISZERO MUL OR SWAP1 SSTORE POP DUP6 PUSH0 ADD PUSH1 0x20 DUP2 ADD SWAP1 PUSH2 0x603 SWAP2 SWAP1 PUSH2 0x12A5 JUMP JUMPDEST PUSH20 0xFFFFFFFFFFFFFFFFFFFFFFFFFFFFFFFFFFFFFFFF AND DUP4 PUSH32 0xF407EC165E9341802503744D7AFFC5F2AB89FE73CE9139D01187FD2A75B1E877 DUP9 PUSH1 0xC0 ADD CALLDATALOAD TIMESTAMP PUSH1 0x40 MLOAD PUSH2 0x64F SWAP3 SWAP2 SWAP1 PUSH2 0x1840 JUMP JUMPDEST PUSH1 0x40 MLOAD DUP1 SWAP2 SUB SWAP1 LOG3 POP POP SWAP4 SWAP3 POP POP POP JUMP JUMPDEST PUSH1 0x3 PUSH0 SWAP1 SLOAD SWAP1 PUSH2 0x100 EXP SWAP1 DIV PUSH20 0xFFFFFFFFFFFFFFFFFFFFFFFFFFFFFFFFFFFFFFFF AND DUP2 JUMP JUMPDEST PUSH1 0x4 PUSH1 0x14 SWAP1 SLOAD SWAP1 PUSH2 0x100 EXP SWAP1 DIV PUSH1 0xFF AND DUP2 JUMP JUMPDEST PUSH1 0x5 PUSH1 0x20 MSTORE DUP1 PUSH0 MSTORE PUSH1 0x40 PUSH0 KECCAK256 PUSH0 SWAP2 POP SWAP1 POP SLOAD DUP2 JUMP JUMPDEST PUSH2 0x6B5 PUSH2 0x978 JUMP JUMPDEST PUSH1 0x1 PUSH1 0x4 PUSH1 0x14 PUSH2 0x100 EXP DUP2 SLOAD DUP2 PUSH1 0xFF MUL NOT AND SWAP1 DUP4 ISZERO ISZERO MUL OR SWAP1 SSTORE POP PUSH32 0x740691573048F50495383F68A229458DADFCDAE5C78E54D17356DE53AAF11CE7 CALLER TIMESTAMP PUSH1 0x40 MLOAD PUSH2 0x701 SWAP3 SWAP2 SWAP1 PUSH2 0x1867 JUMP JUMPDEST PUSH1 0x40 MLOAD DUP1 SWAP2 SUB SWAP1 LOG1 JUMP JUMPDEST PUSH2 0x713 PUSH2 0x978 JUMP JUMPDEST PUSH2 0x71C PUSH0 PUSH2 0x9FF JUMP JUMPDEST JUMP JUMPDEST PUSH0 PUSH1 0x60 DUP1 PUSH0 DUP1 PUSH0 PUSH1 0x60 PUSH2 0x72F PUSH2 0xAC2 JUMP JUMPDEST PUSH2 0x737 PUSH2 0xAFC JUMP JUMPDEST CHAINID ADDRESS PUSH0 DUP1 SHL PUSH0 PUSH8 0xFFFFFFFFFFFFFFFF DUP2 GT ISZERO PUSH2 0x756 JUMPI PUSH2 0x755 PUSH2 0x188E JUMP JUMPDEST JUMPDEST PUSH1 0x40 MLOAD SWAP1 DUP1 DUP3 MSTORE DUP1 PUSH1 0x20 MUL PUSH1 0x20 ADD DUP3 ADD PUSH1 0x40 MSTORE DUP1 ISZERO PUSH2 0x784 JUMPI DUP2 PUSH1 0x20 ADD PUSH1 0x20 DUP3 MUL DUP1 CALLDATASIZE DUP4 CALLDATACOPY DUP1 DUP3 ADD SWAP2 POP POP SWAP1 POP JUMPDEST POP PUSH32 0xF00000000000000000000000000000000000000000000000000000000000000 SWAP6 SWAP5 SWAP4 SWAP3 SWAP2 SWAP1 SWAP7 POP SWAP7 POP SWAP7 POP SWAP7 POP SWAP7 POP SWAP7 POP SWAP7 POP SWAP1 SWAP2 SWAP3 SWAP4 SWAP5 SWAP6 SWAP7 JUMP JUMPDEST PUSH0 PUSH1 0x2 PUSH0 SWAP1 SLOAD SWAP1 PUSH2 0x100 EXP SWAP1 DIV PUSH20 0xFFFFFFFFFFFFFFFFFFFFFFFFFFFFFFFFFFFFFFFF AND SWAP1 POP SWAP1 JUMP JUMPDEST PUSH0 PUSH32 0xDD155A7C2340D28E64FCD098F0398BEFA9381ED603F8C1AAA88372BB9722BA78 SWAP1 POP SWAP1 JUMP JUMPDEST PUSH1 0x6 PUSH1 0x20 MSTORE DUP1 PUSH0 MSTORE PUSH1 0x40 PUSH0 KECCAK256 PUSH0 SWAP2 POP SLOAD SWAP1 PUSH2 0x100 EXP SWAP1 DIV PUSH1 0xFF AND DUP2 JUMP JUMPDEST PUSH1 0x4 PUSH0 SWAP1 SLOAD SWAP1 PUSH2 0x100 EXP SWAP1 DIV PUSH20 0xFFFFFFFFFFFFFFFFFFFFFFFFFFFFFFFFFFFFFFFF AND DUP2 JUMP JUMPDEST PUSH2 0x85C PUSH2 0x978 JUMP JUMPDEST PUSH0 PUSH1 0x4 PUSH1 0x14 PUSH2 0x100 EXP DUP2 SLOAD DUP2 PUSH1 0xFF MUL NOT AND SWAP1 DUP4 ISZERO ISZERO MUL OR SWAP1 SSTORE POP PUSH32 0xDF2C80869F8349AD696D44D9B3BD9E12796EDE774ECCAEEFCF974F9629D223FA CALLER TIMESTAMP PUSH1 0x40 MLOAD PUSH2 0x8A7 SWAP3 SWAP2 SWAP1 PUSH2 0x1867 JUMP JUMPDEST PUSH1 0x40 MLOAD DUP1 SWAP2 SUB SWAP1 LOG1 JUMP JUMPDEST PUSH2 0x8B9 PUSH2 0x978 JUMP JUMPDEST PUSH0 PUSH20 0xFFFFFFFFFFFFFFFFFFFFFFFFFFFFFFFFFFFFFFFF AND DUP2 PUSH20 0xFFFFFFFFFFFFFFFFFFFFFFFFFFFFFFFFFFFFFFFF AND SUB PUSH2 0x929 JUMPI PUSH0 PUSH1 0x40 MLOAD PUSH32 0x1E4FBDF700000000000000000000000000000000000000000000000000000000 DUP2 MSTORE PUSH1 0x4 ADD PUSH2 0x920 SWAP2 SWAP1 PUSH2 0x122F JUMP JUMPDEST PUSH1 0x40 MLOAD DUP1 SWAP2 SUB SWAP1 REVERT JUMPDEST PUSH2 0x932 DUP2 PUSH2 0x9FF JUMP JUMPDEST POP JUMP JUMPDEST PUSH0 PUSH2 0x947 PUSH2 0x941 PUSH2 0xB37 JUMP JUMPDEST DUP4 PUSH2 0xBED JUMP JUMPDEST SWAP1 POP SWAP2 SWAP1 POP JUMP JUMPDEST PUSH0 DUP1 PUSH0 DUP1 PUSH2 0x95C DUP7 DUP7 PUSH2 0xC2D JUMP JUMPDEST SWAP3 POP SWAP3 POP SWAP3 POP PUSH2 0x96C DUP3 DUP3 PUSH2 0xC82 JUMP JUMPDEST DUP3 SWAP4 POP POP POP POP SWAP3 SWAP2 POP POP JUMP JUMPDEST PUSH2 0x980 PUSH2 0xDE4 JUMP JUMPDEST PUSH20 0xFFFFFFFFFFFFFFFFFFFFFFFFFFFFFFFFFFFFFFFF AND PUSH2 0x99E PUSH2 0x7C3 JUMP JUMPDEST PUSH20 0xFFFFFFFFFFFFFFFFFFFFFFFFFFFFFFFFFFFFFFFF AND EQ PUSH2 0x9FD JUMPI PUSH2 0x9C1 PUSH2 0xDE4 JUMP JUMPDEST PUSH1 0x40 MLOAD PUSH32 0x118CDAA700000000000000000000000000000000000000000000000000000000 DUP2 MSTORE PUSH1 0x4 ADD PUSH2 0x9F4 SWAP2 SWAP1 PUSH2 0x122F JUMP JUMPDEST PUSH1 0x40 MLOAD DUP1 SWAP2 SUB SWAP1 REVERT JUMPDEST JUMP JUMPDEST PUSH0 PUSH1 0x2 PUSH0 SWAP1 SLOAD SWAP1 PUSH2 0x100 EXP SWAP1 DIV PUSH20 0xFFFFFFFFFFFFFFFFFFFFFFFFFFFFFFFFFFFFFFFF AND SWAP1 POP DUP2 PUSH1 0x2 PUSH0 PUSH2 0x100 EXP DUP2 SLOAD DUP2 PUSH20 0xFFFFFFFFFFFFFFFFFFFFFFFFFFFFFFFFFFFFFFFF MUL NOT AND SWAP1 DUP4 PUSH20 0xFFFFFFFFFFFFFFFFFFFFFFFFFFFFFFFFFFFFFFFF AND MUL OR SWAP1 SSTORE POP DUP2 PUSH20 0xFFFFFFFFFFFFFFFFFFFFFFFFFFFFFFFFFFFFFFFF AND DUP2 PUSH20 0xFFFFFFFFFFFFFFFFFFFFFFFFFFFFFFFFFFFFFFFF AND PUSH32 0x8BE0079C531659141344CD1FD0A4F28419497F9722A3DAAFE3B4186F6B6457E0 PUSH1 0x40 MLOAD PUSH1 0x40 MLOAD DUP1 SWAP2 SUB SWAP1 LOG3 POP POP JUMP JUMPDEST PUSH1 0x60 PUSH2 0xAF7 PUSH0 PUSH32 0x0 PUSH2 0xDEB SWAP1 SWAP2 SWAP1 PUSH4 0xFFFFFFFF AND JUMP JUMPDEST SWAP1 POP SWAP1 JUMP JUMPDEST PUSH1 0x60 PUSH2 0xB32 PUSH1 0x1 PUSH32 0x0 PUSH2 0xDEB SWAP1 SWAP2 SWAP1 PUSH4 0xFFFFFFFF AND JUMP JUMPDEST SWAP1 POP SWAP1 JUMP JUMPDEST PUSH0 PUSH32 0x0 PUSH20 0xFFFFFFFFFFFFFFFFFFFFFFFFFFFFFFFFFFFFFFFF AND ADDRESS PUSH20 0xFFFFFFFFFFFFFFFFFFFFFFFFFFFFFFFFFFFFFFFF AND EQ DUP1 ISZERO PUSH2 0xBB2 JUMPI POP PUSH32 0x0 CHAINID EQ JUMPDEST ISZERO PUSH2 0xBDF JUMPI PUSH32 0x0 SWAP1 POP PUSH2 0xBEA JUMP JUMPDEST PUSH2 0xBE7 PUSH2 0xE98 JUMP JUMPDEST SWAP1 POP JUMPDEST SWAP1 JUMP JUMPDEST PUSH0 PUSH1 0x40 MLOAD PUSH32 0x1901000000000000000000000000000000000000000000000000000000000000 DUP2 MSTORE DUP4 PUSH1 0x2 DUP3 ADD MSTORE DUP3 PUSH1 0x22 DUP3 ADD MSTORE PUSH1 0x42 DUP2 KECCAK256 SWAP2 POP POP SWAP3 SWAP2 POP POP JUMP JUMPDEST PUSH0 DUP1 PUSH0 PUSH1 0x41 DUP5 MLOAD SUB PUSH2 0xC6D JUMPI PUSH0 DUP1 PUSH0 PUSH1 0x20 DUP8 ADD MLOAD SWAP3 POP PUSH1 0x40 DUP8 ADD MLOAD SWAP2 POP PUSH1 0x60 DUP8 ADD MLOAD PUSH0 BYTE SWAP1 POP PUSH2 0xC5F DUP9 DUP3 DUP6 DUP6 PUSH2 0xF2D JUMP JUMPDEST SWAP6 POP SWAP6 POP SWAP6 POP POP POP POP PUSH2 0xC7B JUMP JUMPDEST PUSH0 PUSH1 0x2 DUP6 MLOAD PUSH0 SHL SWAP3 POP SWAP3 POP SWAP3 POP JUMPDEST SWAP3 POP SWAP3 POP SWAP3 JUMP JUMPDEST PUSH0 PUSH1 0x3 DUP2 GT ISZERO PUSH2 0xC95 JUMPI PUSH2 0xC94 PUSH2 0x18BB JUMP JUMPDEST JUMPDEST DUP3 PUSH1 0x3 DUP2 GT ISZERO PUSH2 0xCA8 JUMPI PUSH2 0xCA7 PUSH2 0x18BB JUMP JUMPDEST JUMPDEST SUB ISZERO PUSH2 0xDE0 JUMPI PUSH1 0x1 PUSH1 0x3 DUP2 GT ISZERO PUSH2 0xCC2 JUMPI PUSH2 0xCC1 PUSH2 0x18BB JUMP JUMPDEST JUMPDEST DUP3 PUSH1 0x3 DUP2 GT ISZERO PUSH2 0xCD5 JUMPI PUSH2 0xCD4 PUSH2 0x18BB JUMP JUMPDEST JUMPDEST SUB PUSH2 0xD0C JUMPI PUSH1 0x40 MLOAD PUSH32 0xF645EEDF00000000000000000000000000000000000000000000000000000000 DUP2 MSTORE PUSH1 0x4 ADD PUSH1 0x40 MLOAD DUP1 SWAP2 SUB SWAP1 REVERT JUMPDEST PUSH1 0x2 PUSH1 0x3 DUP2 GT ISZERO PUSH2 0xD20 JUMPI PUSH2 0xD1F PUSH2 0x18BB JUMP JUMPDEST JUMPDEST DUP3 PUSH1 0x3 DUP2 GT ISZERO PUSH2 0xD33 JUMPI PUSH2 0xD32 PUSH2 0x18BB JUMP JUMPDEST JUMPDEST SUB PUSH2 0xD77 JUMPI DUP1 PUSH0 SHR PUSH1 0x40 MLOAD PUSH32 0xFCE698F700000000000000000000000000000000000000000000000000000000 DUP2 MSTORE PUSH1 0x4 ADD PUSH2 0xD6E SWAP2 SWAP1 PUSH2 0x12E8 JUMP JUMPDEST PUSH1 0x40 MLOAD DUP1 SWAP2 SUB SWAP1 REVERT JUMPDEST PUSH1 0x3 DUP1 DUP2 GT ISZERO PUSH2 0xD8A JUMPI PUSH2 0xD89 PUSH2 0x18BB JUMP JUMPDEST JUMPDEST DUP3 PUSH1 0x3 DUP2 GT ISZERO PUSH2 0xD9D JUMPI PUSH2 0xD9C PUSH2 0x18BB JUMP JUMPDEST JUMPDEST SUB PUSH2 0xDDF JUMPI DUP1 PUSH1 0x40 MLOAD PUSH32 0xD78BCE0C00000000000000000000000000000000000000000000000000000000 DUP2 MSTORE PUSH1 0x4 ADD PUSH2 0xDD6 SWAP2 SWAP1 PUSH2 0x11D7 JUMP JUMPDEST PUSH1 0x40 MLOAD DUP1 SWAP2 SUB SWAP1 REVERT JUMPDEST JUMPDEST POP POP JUMP JUMPDEST PUSH0 CALLER SWAP1 POP SWAP1 JUMP JUMPDEST PUSH1 0x60 PUSH1 0xFF PUSH0 SHL DUP4 EQ PUSH2 0xE07 JUMPI PUSH2 0xE00 DUP4 PUSH2 0x1014 JUMP JUMPDEST SWAP1 POP PUSH2 0xE92 JUMP JUMPDEST DUP2 DUP1 SLOAD PUSH2 0xE13 SWAP1 PUSH2 0x1915 JUMP JUMPDEST DUP1 PUSH1 0x1F ADD PUSH1 0x20 DUP1 SWAP2 DIV MUL PUSH1 0x20 ADD PUSH1 0x40 MLOAD SWAP1 DUP2 ADD PUSH1 0x40 MSTORE DUP1 SWAP3 SWAP2 SWAP1 DUP2 DUP2 MSTORE PUSH1 0x20 ADD DUP3 DUP1 SLOAD PUSH2 0xE3F SWAP1 PUSH2 0x1915 JUMP JUMPDEST DUP1 ISZERO PUSH2 0xE8A JUMPI DUP1 PUSH1 0x1F LT PUSH2 0xE61 JUMPI PUSH2 0x100 DUP1 DUP4 SLOAD DIV MUL DUP4 MSTORE SWAP2 PUSH1 0x20 ADD SWAP2 PUSH2 0xE8A JUMP JUMPDEST DUP3 ADD SWAP2 SWAP1 PUSH0 MSTORE PUSH1 0x20 PUSH0 KECCAK256 SWAP1 JUMPDEST DUP2 SLOAD DUP2 MSTORE SWAP1 PUSH1 0x1 ADD SWAP1 PUSH1 0x20 ADD DUP1 DUP4 GT PUSH2 0xE6D JUMPI DUP3 SWAP1 SUB PUSH1 0x1F AND DUP3 ADD SWAP2 JUMPDEST POP POP POP POP POP SWAP1 POP JUMPDEST SWAP3 SWAP2 POP POP JUMP JUMPDEST PUSH0 PUSH32 0x8B73C3C69BB8FE3D512ECC4CF759CC79239F7B179B0FFACAA9A75D522B39400F PUSH32 0x0 PUSH32 0x0 CHAINID ADDRESS PUSH1 0x40 MLOAD PUSH1 0x20 ADD PUSH2 0xF12 SWAP6 SWAP5 SWAP4 SWAP3 SWAP2 SWAP1 PUSH2 0x1945 JUMP JUMPDEST PUSH1 0x40 MLOAD PUSH1 0x20 DUP2 DUP4 SUB SUB DUP2 MSTORE SWAP1 PUSH1 0x40 MSTORE DUP1 MLOAD SWAP1 PUSH1 0x20 ADD KECCAK256 SWAP1 POP SWAP1 JUMP JUMPDEST PUSH0 DUP1 PUSH0 PUSH32 0x7FFFFFFFFFFFFFFFFFFFFFFFFFFFFFFF5D576E7357A4501DDFE92F46681B20A0 DUP5 PUSH0 SHR GT ISZERO PUSH2 0xF69 JUMPI PUSH0 PUSH1 0x3 DUP6 SWAP3 POP SWAP3 POP SWAP3 POP PUSH2 0x100A JUMP JUMPDEST PUSH0 PUSH1 0x1 DUP9 DUP9 DUP9 DUP9 PUSH1 0x40 MLOAD PUSH0 DUP2 MSTORE PUSH1 0x20 ADD PUSH1 0x40 MSTORE PUSH1 0x40 MLOAD PUSH2 0xF8C SWAP5 SWAP4 SWAP3 SWAP2 SWAP1 PUSH2 0x19B1 JUMP JUMPDEST PUSH1 0x20 PUSH1 0x40 MLOAD PUSH1 0x20 DUP2 SUB SWAP1 DUP1 DUP5 SUB SWAP1 DUP6 GAS STATICCALL ISZERO DUP1 ISZERO PUSH2 0xFAC JUMPI RETURNDATASIZE PUSH0 DUP1 RETURNDATACOPY RETURNDATASIZE PUSH0 REVERT JUMPDEST POP POP POP PUSH1 0x20 PUSH1 0x40 MLOAD SUB MLOAD SWAP1 POP PUSH0 PUSH20 0xFFFFFFFFFFFFFFFFFFFFFFFFFFFFFFFFFFFFFFFF AND DUP2 PUSH20 0xFFFFFFFFFFFFFFFFFFFFFFFFFFFFFFFFFFFFFFFF AND SUB PUSH2 0xFFD JUMPI PUSH0 PUSH1 0x1 PUSH0 DUP1 SHL SWAP4 POP SWAP4 POP SWAP4 POP POP PUSH2 0x100A JUMP JUMPDEST DUP1 PUSH0 DUP1 PUSH0 SHL SWAP4 POP SWAP4 POP SWAP4 POP POP JUMPDEST SWAP5 POP SWAP5 POP SWAP5 SWAP2 POP POP JUMP JUMPDEST PUSH1 0x60 PUSH0 PUSH2 0x1020 DUP4 PUSH2 0x1086 JUMP JUMPDEST SWAP1 POP PUSH0 PUSH1 0x20 PUSH8 0xFFFFFFFFFFFFFFFF DUP2 GT ISZERO PUSH2 0x103E JUMPI PUSH2 0x103D PUSH2 0x188E JUMP JUMPDEST JUMPDEST PUSH1 0x40 MLOAD SWAP1 DUP1 DUP3 MSTORE DUP1 PUSH1 0x1F ADD PUSH1 0x1F NOT AND PUSH1 0x20 ADD DUP3 ADD PUSH1 0x40 MSTORE DUP1 ISZERO PUSH2 0x1070 JUMPI DUP2 PUSH1 0x20 ADD PUSH1 0x1 DUP3 MUL DUP1 CALLDATASIZE DUP4 CALLDATACOPY DUP1 DUP3 ADD SWAP2 POP POP SWAP1 POP JUMPDEST POP SWAP1 POP DUP2 DUP2 MSTORE DUP4 PUSH1 0x20 DUP3 ADD MSTORE DUP1 SWAP3 POP POP POP SWAP2 SWAP1 POP JUMP JUMPDEST PUSH0 DUP1 PUSH1 0xFF DUP4 PUSH0 SHR AND SWAP1 POP PUSH1 0x1F DUP2 GT ISZERO PUSH2 0x10CB JUMPI PUSH1 0x40 MLOAD PUSH32 0xB3512B0C00000000000000000000000000000000000000000000000000000000 DUP2 MSTORE PUSH1 0x4 ADD PUSH1 0x40 MLOAD DUP1 SWAP2 SUB SWAP1 REVERT JUMPDEST DUP1 SWAP2 POP POP SWAP2 SWAP1 POP JUMP JUMPDEST PUSH0 DUP1 REVERT JUMPDEST PUSH0 DUP1 REVERT JUMPDEST PUSH0 DUP1 REVERT JUMPDEST PUSH0 PUSH2 0x100 DUP3 DUP5 SUB SLT ISZERO PUSH2 0x10F6 JUMPI PUSH2 0x10F5 PUSH2 0x10DC JUMP JUMPDEST JUMPDEST DUP2 SWAP1 POP SWAP3 SWAP2 POP POP JUMP JUMPDEST PUSH0 DUP1 REVERT JUMPDEST PUSH0 DUP1 REVERT JUMPDEST PUSH0 DUP1 REVERT JUMPDEST PUSH0 DUP1 DUP4 PUSH1 0x1F DUP5 ADD SLT PUSH2 0x1120 JUMPI PUSH2 0x111F PUSH2 0x10FF JUMP JUMPDEST JUMPDEST DUP3 CALLDATALOAD SWAP1 POP PUSH8 0xFFFFFFFFFFFFFFFF DUP2 GT ISZERO PUSH2 0x113D JUMPI PUSH2 0x113C PUSH2 0x1103 JUMP JUMPDEST JUMPDEST PUSH1 0x20 DUP4 ADD SWAP2 POP DUP4 PUSH1 0x1 DUP3 MUL DUP4 ADD GT ISZERO PUSH2 0x1159 JUMPI PUSH2 0x1158 PUSH2 0x1107 JUMP JUMPDEST JUMPDEST SWAP3 POP SWAP3 SWAP1 POP JUMP JUMPDEST PUSH0 DUP1 PUSH0 PUSH2 0x120 DUP5 DUP7 SUB SLT ISZERO PUSH2 0x1178 JUMPI PUSH2 0x1177 PUSH2 0x10D4 JUMP JUMPDEST JUMPDEST PUSH0 PUSH2 0x1185 DUP7 DUP3 DUP8 ADD PUSH2 0x10E0 JUMP JUMPDEST SWAP4 POP POP PUSH2 0x100 DUP5 ADD CALLDATALOAD PUSH8 0xFFFFFFFFFFFFFFFF DUP2 GT ISZERO PUSH2 0x11A7 JUMPI PUSH2 0x11A6 PUSH2 0x10D8 JUMP JUMPDEST JUMPDEST PUSH2 0x11B3 DUP7 DUP3 DUP8 ADD PUSH2 0x110B JUMP JUMPDEST SWAP3 POP SWAP3 POP POP SWAP3 POP SWAP3 POP SWAP3 JUMP JUMPDEST PUSH0 DUP2 SWAP1 POP SWAP2 SWAP1 POP JUMP JUMPDEST PUSH2 0x11D1 DUP2 PUSH2 0x11BF JUMP JUMPDEST DUP3 MSTORE POP POP JUMP JUMPDEST PUSH0 PUSH1 0x20 DUP3 ADD SWAP1 POP PUSH2 0x11EA PUSH0 DUP4 ADD DUP5 PUSH2 0x11C8 JUMP JUMPDEST SWAP3 SWAP2 POP POP JUMP JUMPDEST PUSH0 PUSH20 0xFFFFFFFFFFFFFFFFFFFFFFFFFFFFFFFFFFFFFFFF DUP3 AND SWAP1 POP SWAP2 SWAP1 POP JUMP JUMPDEST PUSH0 PUSH2 0x1219 DUP3 PUSH2 0x11F0 JUMP JUMPDEST SWAP1 POP SWAP2 SWAP1 POP JUMP JUMPDEST PUSH2 0x1229 DUP2 PUSH2 0x120F JUMP JUMPDEST DUP3 MSTORE POP POP JUMP JUMPDEST PUSH0 PUSH1 0x20 DUP3 ADD SWAP1 POP PUSH2 0x1242 PUSH0 DUP4 ADD DUP5 PUSH2 0x1220 JUMP JUMPDEST SWAP3 SWAP2 POP POP JUMP JUMPDEST PUSH0 DUP2 ISZERO ISZERO SWAP1 POP SWAP2 SWAP1 POP JUMP JUMPDEST PUSH2 0x125C DUP2 PUSH2 0x1248 JUMP JUMPDEST DUP3 MSTORE POP POP JUMP JUMPDEST PUSH0 PUSH1 0x20 DUP3 ADD SWAP1 POP PUSH2 0x1275 PUSH0 DUP4 ADD DUP5 PUSH2 0x1253 JUMP JUMPDEST SWAP3 SWAP2 POP POP JUMP JUMPDEST PUSH2 0x1284 DUP2 PUSH2 0x120F JUMP JUMPDEST DUP2 EQ PUSH2 0x128E JUMPI PUSH0 DUP1 REVERT JUMPDEST POP JUMP JUMPDEST PUSH0 DUP2 CALLDATALOAD SWAP1 POP PUSH2 0x129F DUP2 PUSH2 0x127B JUMP JUMPDEST SWAP3 SWAP2 POP POP JUMP JUMPDEST PUSH0 PUSH1 0x20 DUP3 DUP5 SUB SLT ISZERO PUSH2 0x12BA JUMPI PUSH2 0x12B9 PUSH2 0x10D4 JUMP JUMPDEST JUMPDEST PUSH0 PUSH2 0x12C7 DUP5 DUP3 DUP6 ADD PUSH2 0x1291 JUMP JUMPDEST SWAP2 POP POP SWAP3 SWAP2 POP POP JUMP JUMPDEST PUSH0 DUP2 SWAP1 POP SWAP2 SWAP1 POP JUMP JUMPDEST PUSH2 0x12E2 DUP2 PUSH2 0x12D0 JUMP JUMPDEST DUP3 MSTORE POP POP JUMP JUMPDEST PUSH0 PUSH1 0x20 DUP3 ADD SWAP1 POP PUSH2 0x12FB PUSH0 DUP4 ADD DUP5 PUSH2 0x12D9 JUMP JUMPDEST SWAP3 SWAP2 POP POP JUMP JUMPDEST PUSH0 PUSH32 0xFF00000000000000000000000000000000000000000000000000000000000000 DUP3 AND SWAP1 POP SWAP2 SWAP1 POP JUMP JUMPDEST PUSH2 0x1335 DUP2 PUSH2 0x1301 JUMP JUMPDEST DUP3 MSTORE POP POP JUMP JUMPDEST PUSH0 DUP2 MLOAD SWAP1 POP SWAP2 SWAP1 POP JUMP JUMPDEST PUSH0 DUP3 DUP3 MSTORE PUSH1 0x20 DUP3 ADD SWAP1 POP SWAP3 SWAP2 POP POP JUMP JUMPDEST DUP3 DUP2 DUP4 MCOPY PUSH0 DUP4 DUP4 ADD MSTORE POP POP POP JUMP JUMPDEST PUSH0 PUSH1 0x1F NOT PUSH1 0x1F DUP4 ADD AND SWAP1 POP SWAP2 SWAP1 POP JUMP JUMPDEST PUSH0 PUSH2 0x137D DUP3 PUSH2 0x133B JUMP JUMPDEST PUSH2 0x1387 DUP2 DUP6 PUSH2 0x1345 JUMP JUMPDEST SWAP4 POP PUSH2 0x1397 DUP2 DUP6 PUSH1 0x20 DUP7 ADD PUSH2 0x1355 JUMP JUMPDEST PUSH2 0x13A0 DUP2 PUSH2 0x1363 JUMP JUMPDEST DUP5 ADD SWAP2 POP POP SWAP3 SWAP2 POP POP JUMP JUMPDEST PUSH0 DUP2 MLOAD SWAP1 POP SWAP2 SWAP1 POP JUMP JUMPDEST PUSH0 DUP3 DUP3 MSTORE PUSH1 0x20 DUP3 ADD SWAP1 POP SWAP3 SWAP2 POP POP JUMP JUMPDEST PUSH0 DUP2 SWAP1 POP PUSH1 0x20 DUP3 ADD SWAP1 POP SWAP2 SWAP1 POP JUMP JUMPDEST PUSH2 0x13DD DUP2 PUSH2 0x12D0 JUMP JUMPDEST DUP3 MSTORE POP POP JUMP JUMPDEST PUSH0 PUSH2 0x13EE DUP4 DUP4 PUSH2 0x13D4 JUMP JUMPDEST PUSH1 0x20 DUP4 ADD SWAP1 POP SWAP3 SWAP2 POP POP JUMP JUMPDEST PUSH0 PUSH1 0x20 DUP3 ADD SWAP1 POP SWAP2 SWAP1 POP JUMP JUMPDEST PUSH0 PUSH2 0x1410 DUP3 PUSH2 0x13AB JUMP JUMPDEST PUSH2 0x141A DUP2 DUP6 PUSH2 0x13B5 JUMP JUMPDEST SWAP4 POP PUSH2 0x1425 DUP4 PUSH2 0x13C5 JUMP JUMPDEST DUP1 PUSH0 JUMPDEST DUP4 DUP2 LT ISZERO PUSH2 0x1455 JUMPI DUP2 MLOAD PUSH2 0x143C DUP9 DUP3 PUSH2 0x13E3 JUMP JUMPDEST SWAP8 POP PUSH2 0x1447 DUP4 PUSH2 0x13FA JUMP JUMPDEST SWAP3 POP POP PUSH1 0x1 DUP2 ADD SWAP1 POP PUSH2 0x1428 JUMP JUMPDEST POP DUP6 SWAP4 POP POP POP POP SWAP3 SWAP2 POP POP JUMP JUMPDEST PUSH0 PUSH1 0xE0 DUP3 ADD SWAP1 POP PUSH2 0x1475 PUSH0 DUP4 ADD DUP11 PUSH2 0x132C JUMP JUMPDEST DUP2 DUP2 SUB PUSH1 0x20 DUP4 ADD MSTORE PUSH2 0x1487 DUP2 DUP10 PUSH2 0x1373 JUMP JUMPDEST SWAP1 POP DUP2 DUP2 SUB PUSH1 0x40 DUP4 ADD MSTORE PUSH2 0x149B DUP2 DUP9 PUSH2 0x1373 JUMP JUMPDEST SWAP1 POP PUSH2 0x14AA PUSH1 0x60 DUP4 ADD DUP8 PUSH2 0x12D9 JUMP JUMPDEST PUSH2 0x14B7 PUSH1 0x80 DUP4 ADD DUP7 PUSH2 0x1220 JUMP JUMPDEST PUSH2 0x14C4 PUSH1 0xA0 DUP4 ADD DUP6 PUSH2 0x11C8 JUMP JUMPDEST DUP2 DUP2 SUB PUSH1 0xC0 DUP4 ADD MSTORE PUSH2 0x14D6 DUP2 DUP5 PUSH2 0x1406 JUMP JUMPDEST SWAP1 POP SWAP9 SWAP8 POP POP POP POP POP POP POP POP JUMP JUMPDEST PUSH2 0x14ED DUP2 PUSH2 0x11BF JUMP JUMPDEST DUP2 EQ PUSH2 0x14F7 JUMPI PUSH0 DUP1 REVERT JUMPDEST POP JUMP JUMPDEST PUSH0 DUP2 CALLDATALOAD SWAP1 POP PUSH2 0x1508 DUP2 PUSH2 0x14E4 JUMP JUMPDEST SWAP3 SWAP2 POP POP JUMP JUMPDEST PUSH0 PUSH1 0x20 DUP3 DUP5 SUB SLT ISZERO PUSH2 0x1523 JUMPI PUSH2 0x1522 PUSH2 0x10D4 JUMP JUMPDEST JUMPDEST PUSH0 PUSH2 0x1530 DUP5 DUP3 DUP6 ADD PUSH2 0x14FA JUMP JUMPDEST SWAP2 POP POP SWAP3 SWAP2 POP POP JUMP JUMPDEST PUSH32 0x4369726375697420627265616B65722069732061637469766500000000000000 PUSH0 DUP3 ADD MSTORE POP JUMP JUMPDEST PUSH0 PUSH2 0x156D PUSH1 0x19 DUP4 PUSH2 0x1345 JUMP JUMPDEST SWAP2 POP PUSH2 0x1578 DUP3 PUSH2 0x1539 JUMP JUMPDEST PUSH1 0x20 DUP3 ADD SWAP1 POP SWAP2 SWAP1 POP JUMP JUMPDEST PUSH0 PUSH1 0x20 DUP3 ADD SWAP1 POP DUP2 DUP2 SUB PUSH0 DUP4 ADD MSTORE PUSH2 0x159A DUP2 PUSH2 0x1561 JUMP JUMPDEST SWAP1 POP SWAP2 SWAP1 POP JUMP JUMPDEST PUSH32 0x496E74656E742065787069726564000000000000000000000000000000000000 PUSH0 DUP3 ADD MSTORE POP JUMP JUMPDEST PUSH0 PUSH2 0x15D5 PUSH1 0xE DUP4 PUSH2 0x1345 JUMP JUMPDEST SWAP2 POP PUSH2 0x15E0 DUP3 PUSH2 0x15A1 JUMP JUMPDEST PUSH1 0x20 DUP3 ADD SWAP1 POP SWAP2 SWAP1 POP JUMP JUMPDEST PUSH0 PUSH1 0x20 DUP3 ADD SWAP1 POP DUP2 DUP2 SUB PUSH0 DUP4 ADD MSTORE PUSH2 0x1602 DUP2 PUSH2 0x15C9 JUMP JUMPDEST SWAP1 POP SWAP2 SWAP1 POP JUMP JUMPDEST PUSH0 PUSH2 0x120 DUP3 ADD SWAP1 POP PUSH2 0x161D PUSH0 DUP4 ADD DUP13 PUSH2 0x11C8 JUMP JUMPDEST PUSH2 0x162A PUSH1 0x20 DUP4 ADD DUP12 PUSH2 0x1220 JUMP JUMPDEST PUSH2 0x1637 PUSH1 0x40 DUP4 ADD DUP11 PUSH2 0x1220 JUMP JUMPDEST PUSH2 0x1644 PUSH1 0x60 DUP4 ADD DUP10 PUSH2 0x1220 JUMP JUMPDEST PUSH2 0x1651 PUSH1 0x80 DUP4 ADD DUP9 PUSH2 0x12D9 JUMP JUMPDEST PUSH2 0x165E PUSH1 0xA0 DUP4 ADD DUP8 PUSH2 0x12D9 JUMP JUMPDEST PUSH2 0x166B PUSH1 0xC0 DUP4 ADD DUP7 PUSH2 0x12D9 JUMP JUMPDEST PUSH2 0x1678 PUSH1 0xE0 DUP4 ADD DUP6 PUSH2 0x11C8 JUMP JUMPDEST PUSH2 0x1686 PUSH2 0x100 DUP4 ADD DUP5 PUSH2 0x12D9 JUMP JUMPDEST SWAP11 SWAP10 POP POP POP POP POP POP POP POP POP POP JUMP JUMPDEST PUSH32 0x496E74656E7420616C72656164792070726F6365737365640000000000000000 PUSH0 DUP3 ADD MSTORE POP JUMP JUMPDEST PUSH0 PUSH2 0x16C8 PUSH1 0x18 DUP4 PUSH2 0x1345 JUMP JUMPDEST SWAP2 POP PUSH2 0x16D3 DUP3 PUSH2 0x1694 JUMP JUMPDEST PUSH1 0x20 DUP3 ADD SWAP1 POP SWAP2 SWAP1 POP JUMP JUMPDEST PUSH0 PUSH1 0x20 DUP3 ADD SWAP1 POP DUP2 DUP2 SUB PUSH0 DUP4 ADD MSTORE PUSH2 0x16F5 DUP2 PUSH2 0x16BC JUMP JUMPDEST SWAP1 POP SWAP2 SWAP1 POP JUMP JUMPDEST PUSH32 0x496E76616C6964206167656E74207369676E6174757265000000000000000000 PUSH0 DUP3 ADD MSTORE POP JUMP JUMPDEST PUSH0 PUSH2 0x1730 PUSH1 0x17 DUP4 PUSH2 0x1345 JUMP JUMPDEST SWAP2 POP PUSH2 0x173B DUP3 PUSH2 0x16FC JUMP JUMPDEST PUSH1 0x20 DUP3 ADD SWAP1 POP SWAP2 SWAP1 POP JUMP JUMPDEST PUSH0 PUSH1 0x20 DUP3 ADD SWAP1 POP DUP2 DUP2 SUB PUSH0 DUP4 ADD MSTORE PUSH2 0x175D DUP2 PUSH2 0x1724 JUMP JUMPDEST SWAP1 POP SWAP2 SWAP1 POP JUMP JUMPDEST PUSH32 0x496E76616C6964206E6F6E636500000000000000000000000000000000000000 PUSH0 DUP3 ADD MSTORE POP JUMP JUMPDEST PUSH0 PUSH2 0x1798 PUSH1 0xD DUP4 PUSH2 0x1345 JUMP JUMPDEST SWAP2 POP PUSH2 0x17A3 DUP3 PUSH2 0x1764 JUMP JUMPDEST PUSH1 0x20 DUP3 ADD SWAP1 POP SWAP2 SWAP1 POP JUMP JUMPDEST PUSH0 PUSH1 0x20 DUP3 ADD SWAP1 POP DUP2 DUP2 SUB PUSH0 DUP4 ADD MSTORE PUSH2 0x17C5 DUP2 PUSH2 0x178C JUMP JUMPDEST SWAP1 POP SWAP2 SWAP1 POP JUMP JUMPDEST PUSH32 0x4E487B7100000000000000000000000000000000000000000000000000000000 PUSH0 MSTORE PUSH1 0x11 PUSH1 0x4 MSTORE PUSH1 0x24 PUSH0 REVERT JUMPDEST PUSH0 PUSH2 0x1803 DUP3 PUSH2 0x12D0 JUMP JUMPDEST SWAP2 POP PUSH32 0xFFFFFFFFFFFFFFFFFFFFFFFFFFFFFFFFFFFFFFFFFFFFFFFFFFFFFFFFFFFFFFFF DUP3 SUB PUSH2 0x1835 JUMPI PUSH2 0x1834 PUSH2 0x17CC JUMP JUMPDEST JUMPDEST PUSH1 0x1 DUP3 ADD SWAP1 POP SWAP2 SWAP1 POP JUMP JUMPDEST PUSH0 PUSH1 0x40 DUP3 ADD SWAP1 POP PUSH2 0x1853 PUSH0 DUP4 ADD DUP6 PUSH2 0x11C8 JUMP JUMPDEST PUSH2 0x1860 PUSH1 0x20 DUP4 ADD DUP5 PUSH2 0x12D9 JUMP JUMPDEST SWAP4 SWAP3 POP POP POP JUMP JUMPDEST PUSH0 PUSH1 0x40 DUP3 ADD SWAP1 POP PUSH2 0x187A PUSH0 DUP4 ADD DUP6 PUSH2 0x1220 JUMP JUMPDEST PUSH2 0x1887 PUSH1 0x20 DUP4 ADD DUP5 PUSH2 0x12D9 JUMP JUMPDEST SWAP4 SWAP3 POP POP POP JUMP JUMPDEST PUSH32 0x4E487B7100000000000000000000000000000000000000000000000000000000 PUSH0 MSTORE PUSH1 0x41 PUSH1 0x4 MSTORE PUSH1 0x24 PUSH0 REVERT JUMPDEST PUSH32 0x4E487B7100000000000000000000000000000000000000000000000000000000 PUSH0 MSTORE PUSH1 0x21 PUSH1 0x4 MSTORE PUSH1 0x24 PUSH0 REVERT JUMPDEST PUSH32 0x4E487B7100000000000000000000000000000000000000000000000000000000 PUSH0 MSTORE PUSH1 0x22 PUSH1 0x4 MSTORE PUSH1 0x24 PUSH0 REVERT JUMPDEST PUSH0 PUSH1 0x2 DUP3 DIV SWAP1 POP PUSH1 0x1 DUP3 AND DUP1 PUSH2 0x192C JUMPI PUSH1 0x7F DUP3 AND SWAP2 POP JUMPDEST PUSH1 0x20 DUP3 LT DUP2 SUB PUSH2 0x193F JUMPI PUSH2 0x193E PUSH2 0x18E8 JUMP JUMPDEST JUMPDEST POP SWAP2 SWAP1 POP JUMP JUMPDEST PUSH0 PUSH1 0xA0 DUP3 ADD SWAP1 POP PUSH2 0x1958 PUSH0 DUP4 ADD DUP9 PUSH2 0x11C8 JUMP JUMPDEST PUSH2 0x1965 PUSH1 0x20 DUP4 ADD DUP8 PUSH2 0x11C8 JUMP JUMPDEST PUSH2 0x1972 PUSH1 0x40 DUP4 ADD DUP7 PUSH2 0x11C8 JUMP JUMPDEST PUSH2 0x197F PUSH1 0x60 DUP4 ADD DUP6 PUSH2 0x12D9 JUMP JUMPDEST PUSH2 0x198C PUSH1 0x80 DUP4 ADD DUP5 PUSH2 0x1220 JUMP JUMPDEST SWAP7 SWAP6 POP POP POP POP POP POP JUMP JUMPDEST PUSH0 PUSH1 0xFF DUP3 AND SWAP1 POP SWAP2 SWAP1 POP JUMP JUMPDEST PUSH2 0x19AB DUP2 PUSH2 0x1996 JUMP JUMPDEST DUP3 MSTORE POP POP JUMP JUMPDEST PUSH0 PUSH1 0x80 DUP3 ADD SWAP1 POP PUSH2 0x19C4 PUSH0 DUP4 ADD DUP8 PUSH2 0x11C8 JUMP JUMPDEST PUSH2 0x19D1 PUSH1 0x20 DUP4 ADD DUP7 PUSH2 0x19A2 JUMP JUMPDEST PUSH2 0x19DE PUSH1 0x40 DUP4 ADD DUP6 PUSH2 0x11C8 JUMP JUMPDEST PUSH2 0x19EB PUSH1 0x60 DUP4 ADD DUP5 PUSH2 0x11C8 JUMP JUMPDEST SWAP6 SWAP5 POP POP POP POP POP JUMP INVALID LOG2 PUSH5 0x6970667358 0x22 SLT KECCAK256 0x2B 0xB5 MLOAD 0x23 MCOPY EXTCODEHASH 0xC5 0x27 0xD4 SGT BLOBBASEFEE SWAP5 SWAP11 DUP5 MUL PUSH19 0x1649F79890FF32C2BDDAF7F7FF0C8A7C64736F PUSH13 0x63430008190033000000000000 "},"methodIdentifiers":{"agentNonces(address)":"26f90099","agentRegistry()":"0d1cfcae","circuitBreakerTripped()":"18531d77","eip712Domain()":"84b0196e","getIntentTypehash()":"9513cdfa","owner()":"8da5cb5b","processedIntents(bytes32)":"c2c8a008","renounceOwnership()":"715018a6","reputationRegistry()":"c8db44e3","resetCircuitBreaker()":"de5f8d93","submitTradeIntent((address,address,address,uint256,uint256,uint256,bytes32,uint256),bytes)":"0456d1ec","transferOwnership(address)":"f2fde38b","tripCircuitBreaker()":"59ab0321"}}}}}