{
  "_format": "hh-sol-artifact-1",
  "contractName": "AgentIdentityRegistry",
  "sourceName": "contracts/GuardianAI.sol",
  "abi": [
    {
      "inputs": [],
      "stateMutability": "nonpayable",
      "type": "constructor"
    },
    {
      "inputs": [],
      "name": "ECDSAInvalidSignature",
      "type": "error"
    },
    {
      "inputs": [
        {
          "internalType": "uint256",
          "name": "length",
          "type": "uint256"
        }
      ],
      "name": "ECDSAInvalidSignatureLength",
      "type": "error"
    },
    {
      "inputs": [
        {
          "internalType": "bytes32",
          "name": "s",
          "type": "bytes32"
        }
      ],
      "name": "ECDSAInvalidSignatureS",
      "type": "error"
    },
    {
      "inputs": [
        {
          "internalType": "address",
          "name": "sender",
          "type": "address"
        },
        {
          "internalType": "uint256",
          "name": "tokenId",
          "type": "uint256"
        },
        {
          "internalType": "address",
          "name": "owner",
          "type": "address"
        }
      ],
      "name": "ERC721IncorrectOwner",
      "type": "error"
    },
    {
      "inputs": [
        {
          "internalType": "address",
          "name": "operator",
          "type": "address"
        },
        {
          "internalType": "uint256",
          "name": "tokenId",
          "type": "uint256"
        }
      ],
      "name": "ERC721InsufficientApproval",
      "type": "error"
    },
    {
      "inputs": [
        {
          "internalType": "address",
          "name": "approver",
          "type": "address"
        }
      ],
      "name": "ERC721InvalidApprover",
      "type": "error"
    },
    {
      "inputs": [
        {
          "internalType": "address",
          "name": "operator",
          "type": "address"
        }
      ],
      "name": "ERC721InvalidOperator",
      "type": "error"
    },
    {
      "inputs": [
        {
          "internalType": "address",
          "name": "owner",
          "type": "address"
        }
      ],
      "name": "ERC721InvalidOwner",
      "type": "error"
    },
    {
      "inputs": [
        {
          "internalType": "address",
          "name": "receiver",
          "type": "address"
        }
      ],
      "name": "ERC721InvalidReceiver",
      "type": "error"
    },
    {
      "inputs": [
        {
          "internalType": "address",
          "name": "sender",
          "type": "address"
        }
      ],
      "name": "ERC721InvalidSender",
      "type": "error"
    },
    {
      "inputs": [
        {
          "internalType": "uint256",
          "name": "tokenId",
          "type": "uint256"
        }
      ],
      "name": "ERC721NonexistentToken",
      "type": "error"
    },
    {
      "inputs": [],
      "name": "InvalidShortString",
      "type": "error"
    },
    {
      "inputs": [
        {
          "internalType": "address",
          "name": "owner",
          "type": "address"
        }
      ],
      "name": "OwnableInvalidOwner",
      "type": "error"
    },
    {
      "inputs": [
        {
          "internalType": "address",
          "name": "account",
          "type": "address"
        }
      ],
      "name": "OwnableUnauthorizedAccount",
      "type": "error"
    },
    {
      "inputs": [
        {
          "internalType": "string",
          "name": "str",
          "type": "string"
        }
      ],
      "name": "StringTooLong",
      "type": "error"
    },
    {
      "anonymous": false,
      "inputs": [
        {
          "indexed": true,
          "internalType": "uint256",
          "name": "tokenId",
          "type": "uint256"
        }
      ],
      "name": "AgentDeactivated",
      "type": "event"
    },
    {
      "anonymous": false,
      "inputs": [
        {
          "indexed": true,
          "internalType": "uint256",
          "name": "tokenId",
          "type": "uint256"
        },
        {
          "indexed": false,
          "internalType": "string",
          "name": "handle",
          "type": "string"
        },
        {
          "indexed": false,
          "internalType": "address",
          "name": "boundWallet",
          "type": "address"
        }
      ],
      "name": "AgentRegistered",
      "type": "event"
    },
    {
      "anonymous": false,
      "inputs": [
        {
          "indexed": true,
          "internalType": "address",
          "name": "owner",
          "type": "address"
        },
        {
          "indexed": true,
          "internalType": "address",
          "name": "approved",
          "type": "address"
        },
        {
          "indexed": true,
          "internalType": "uint256",
          "name": "tokenId",
          "type": "uint256"
        }
      ],
      "name": "Approval",
      "type": "event"
    },
    {
      "anonymous": false,
      "inputs": [
        {
          "indexed": true,
          "internalType": "address",
          "name": "owner",
          "type": "address"
        },
        {
          "indexed": true,
          "internalType": "address",
          "name": "operator",
          "type": "address"
        },
        {
          "indexed": false,
          "internalType": "bool",
          "name": "approved",
          "type": "bool"
        }
      ],
      "name": "ApprovalForAll",
      "type": "event"
    },
    {
      "anonymous": false,
      "inputs": [],
      "name": "EIP712DomainChanged",
      "type": "event"
    },
    {
      "anonymous": false,
      "inputs": [
        {
          "indexed": true,
          "internalType": "address",
          "name": "previousOwner",
          "type": "address"
        },
        {
          "indexed": true,
          "internalType": "address",
          "name": "newOwner",
          "type": "address"
        }
      ],
      "name": "OwnershipTransferred",
      "type": "event"
    },
    {
      "anonymous": false,
      "inputs": [
        {
          "indexed": true,
          "internalType": "address",
          "name": "from",
          "type": "address"
        },
        {
          "indexed": true,
          "internalType": "address",
          "name": "to",
          "type": "address"
        },
        {
          "indexed": true,
          "internalType": "uint256",
          "name": "tokenId",
          "type": "uint256"
        }
      ],
      "name": "Transfer",
      "type": "event"
    },
    {
      "inputs": [
        {
          "internalType": "address",
          "name": "to",
          "type": "address"
        },
        {
          "internalType": "uint256",
          "name": "tokenId",
          "type": "uint256"
        }
      ],
      "name": "approve",
      "outputs": [],
      "stateMutability": "nonpayable",
      "type": "function"
    },
    {
      "inputs": [
        {
          "internalType": "address",
          "name": "owner",
          "type": "address"
        }
      ],
      "name": "balanceOf",
      "outputs": [
        {
          "internalType": "uint256",
          "name": "",
          "type": "uint256"
        }
      ],
      "stateMutability": "view",
      "type": "function"
    },
    {
      "inputs": [
        {
          "internalType": "uint256",
          "name": "tokenId",
          "type": "uint256"
        }
      ],
      "name": "deactivateAgent",
      "outputs": [],
      "stateMutability": "nonpayable",
      "type": "function"
    },
    {
      "inputs": [],
      "name": "domainSeparator",
      "outputs": [
        {
          "internalType": "bytes32",
          "name": "",
          "type": "bytes32"
        }
      ],
      "stateMutability": "view",
      "type": "function"
    },
    {
      "inputs": [],
      "name": "eip712Domain",
      "outputs": [
        {
          "internalType": "bytes1",
          "name": "fields",
          "type": "bytes1"
        },
        {
          "internalType": "string",
          "name": "name",
          "type": "string"
        },
        {
          "internalType": "string",
          "name": "version",
          "type": "string"
        },
        {
          "internalType": "uint256",
          "name": "chainId",
          "type": "uint256"
        },
        {
          "internalType": "address",
          "name": "verifyingContract",
          "type": "address"
        },
        {
          "internalType": "bytes32",
          "name": "salt",
          "type": "bytes32"
        },
        {
          "internalType": "uint256[]",
          "name": "extensions",
          "type": "uint256[]"
        }
      ],
      "stateMutability": "view",
      "type": "function"
    },
    {
      "inputs": [
        {
          "internalType": "address",
          "name": "wallet",
          "type": "address"
        }
      ],
      "name": "getAgentByWallet",
      "outputs": [
        {
          "components": [
            {
              "internalType": "string",
              "name": "handle",
              "type": "string"
            },
            {
              "internalType": "string",
              "name": "metadataURI",
              "type": "string"
            },
            {
              "internalType": "address",
              "name": "boundWallet",
              "type": "address"
            },
            {
              "internalType": "uint256",
              "name": "chainId",
              "type": "uint256"
            },
            {
              "internalType": "uint256",
              "name": "registeredAt",
              "type": "uint256"
            },
            {
              "internalType": "bool",
              "name": "active",
              "type": "bool"
            }
          ],
          "internalType": "struct AgentIdentityRegistry.AgentIdentity",
          "name": "",
          "type": "tuple"
        }
      ],
      "stateMutability": "view",
      "type": "function"
    },
    {
      "inputs": [
        {
          "internalType": "uint256",
          "name": "tokenId",
          "type": "uint256"
        }
      ],
      "name": "getApproved",
      "outputs": [
        {
          "internalType": "address",
          "name": "",
          "type": "address"
        }
      ],
      "stateMutability": "view",
      "type": "function"
    },
    {
      "inputs": [
        {
          "internalType": "string",
          "name": "",
          "type": "string"
        }
      ],
      "name": "handleTaken",
      "outputs": [
        {
          "internalType": "bool",
          "name": "",
          "type": "bool"
        }
      ],
      "stateMutability": "view",
      "type": "function"
    },
    {
      "inputs": [
        {
          "internalType": "uint256",
          "name": "",
          "type": "uint256"
        }
      ],
      "name": "identities",
      "outputs": [
        {
          "internalType": "string",
          "name": "handle",
          "type": "string"
        },
        {
          "internalType": "string",
          "name": "metadataURI",
          "type": "string"
        },
        {
          "internalType": "address",
          "name": "boundWallet",
          "type": "address"
        },
        {
          "internalType": "uint256",
          "name": "chainId",
          "type": "uint256"
        },
        {
          "internalType": "uint256",
          "name": "registeredAt",
          "type": "uint256"
        },
        {
          "internalType": "bool",
          "name": "active",
          "type": "bool"
        }
      ],
      "stateMutability": "view",
      "type": "function"
    },
    {
      "inputs": [
        {
          "internalType": "address",
          "name": "owner",
          "type": "address"
        },
        {
          "internalType": "address",
          "name": "operator",
          "type": "address"
        }
      ],
      "name": "isApprovedForAll",
      "outputs": [
        {
          "internalType": "bool",
          "name": "",
          "type": "bool"
        }
      ],
      "stateMutability": "view",
      "type": "function"
    },
    {
      "inputs": [],
      "name": "name",
      "outputs": [
        {
          "internalType": "string",
          "name": "",
          "type": "string"
        }
      ],
      "stateMutability": "view",
      "type": "function"
    },
    {
      "inputs": [
        {
          "internalType": "address",
          "name": "",
          "type": "address"
        }
      ],
      "name": "nonces",
      "outputs": [
        {
          "internalType": "uint256",
          "name": "",
          "type": "uint256"
        }
      ],
      "stateMutability": "view",
      "type": "function"
    },
    {
      "inputs": [],
      "name": "owner",
      "outputs": [
        {
          "internalType": "address",
          "name": "",
          "type": "address"
        }
      ],
      "stateMutability": "view",
      "type": "function"
    },
    {
      "inputs": [
        {
          "internalType": "uint256",
          "name": "tokenId",
          "type": "uint256"
        }
      ],
      "name": "ownerOf",
      "outputs": [
        {
          "internalType": "address",
          "name": "",
          "type": "address"
        }
      ],
      "stateMutability": "view",
      "type": "function"
    },
    {
      "inputs": [
        {
          "internalType": "string",
          "name": "handle",
          "type": "string"
        },
        {
          "internalType": "string",
          "name": "metadataURI",
          "type": "string"
        },
        {
          "internalType": "address",
          "name": "wallet",
          "type": "address"
        },
        {
          "internalType": "bytes",
          "name": "signature",
          "type": "bytes"
        }
      ],
      "name": "registerAgent",
      "outputs": [
        {
          "internalType": "uint256",
          "name": "tokenId",
          "type": "uint256"
        }
      ],
      "stateMutability": "nonpayable",
      "type": "function"
    },
    {
      "inputs": [],
      "name": "renounceOwnership",
      "outputs": [],
      "stateMutability": "nonpayable",
      "type": "function"
    },
    {
      "inputs": [
        {
          "internalType": "address",
          "name": "from",
          "type": "address"
        },
        {
          "internalType": "address",
          "name": "to",
          "type": "address"
        },
        {
          "internalType": "uint256",
          "name": "tokenId",
          "type": "uint256"
        }
      ],
      "name": "safeTransferFrom",
      "outputs": [],
      "stateMutability": "nonpayable",
      "type": "function"
    },
    {
      "inputs": [
        {
          "internalType": "address",
          "name": "from",
          "type": "address"
        },
        {
          "internalType": "address",
          "name": "to",
          "type": "address"
        },
        {
          "internalType": "uint256",
          "name": "tokenId",
          "type": "uint256"
        },
        {
          "internalType": "bytes",
          "name": "data",
          "type": "bytes"
        }
      ],
      "name": "safeTransferFrom",
      "outputs": [],
      "stateMutability": "nonpayable",
      "type": "function"
    },
    {
      "inputs": [
        {
          "internalType": "address",
          "name": "operator",
          "type": "address"
        },
        {
          "internalType": "bool",
          "name": "approved",
          "type": "bool"
        }
      ],
      "name": "setApprovalForAll",
      "outputs": [],
      "stateMutability": "nonpayable",
      "type": "function"
    },
    {
      "inputs": [
        {
          "internalType": "bytes4",
          "name": "interfaceId",
          "type": "bytes4"
        }
      ],
      "name": "supportsInterface",
      "outputs": [
        {
          "internalType": "bool",
          "name": "",
          "type": "bool"
        }
      ],
      "stateMutability": "view",
      "type": "function"
    },
    {
      "inputs": [],
      "name": "symbol",
      "outputs": [
        {
          "internalType": "string",
          "name": "",
          "type": "string"
        }
      ],
      "stateMutability": "view",
      "type": "function"
    },
    {
      "inputs": [
        {
          "internalType": "uint256",
          "name": "tokenId",
          "type": "uint256"
        }
      ],
      "name": "tokenURI",
      "outputs": [
        {
          "internalType": "string",
          "name": "",
          "type": "string"
        }
      ],
      "stateMutability": "view",
      "type": "function"
    },
    {
      "inputs": [
        {
          "internalType": "address",
          "name": "from",
          "type": "address"
        },
        {
          "internalType": "address",
          "name": "to",
          "type": "address"
        },
        {
          "internalType": "uint256",
          "name": "tokenId",
          "type": "uint256"
        }
      ],
      "name": "transferFrom",
      "outputs": [],
      "stateMutability": "nonpayable",
      "type": "function"
    },
    {
      "inputs": [
        {
          "internalType": "address",
          "name": "newOwner",
          "type": "address"
        }
      ],
      "name": "transferOwnership",
      "outputs": [],
      "stateMutability": "nonpayable",
      "type": "function"
    },
    {
      "inputs": [
        {
          "internalType": "address",
          "name": "",
          "type": "address"
        }
      ],
      "name": "walletToAgent",
      "outputs": [
        {
          "internalType": "uint256",
          "name": "",
          "type": "uint256"
        }
      ],
      "stateMutability": "view",
      "type": "function"
    }
  ],
  "bytecode": "0x610160604052348015610010575f80fd5b50336040518060400160405280600a81526020017f477561726469616e4149000000000000000000000000000000000000000000008152506040518060400160405280600181526020017f31000000000000000000000000000000000000000000000000000000000000008152506040518060400160405280601081526020017f477561726469616e4149204167656e74000000000000000000000000000000008152506040518060400160405280600481526020017f4741494100000000000000000000000000000000000000000000000000000000815250815f90816100f8919061064c565b508060019081610108919061064c565b50505061011f60068361023a60201b90919060201c565b610120818152505061013b60078261023a60201b90919060201c565b6101408181525050818051906020012060e08181525050808051906020012061010081815250504660a0818152505061017861028760201b60201c565b608081815250503073ffffffffffffffffffffffffffffffffffffffff1660c08173ffffffffffffffffffffffffffffffffffffffff168152505050505f73ffffffffffffffffffffffffffffffffffffffff168173ffffffffffffffffffffffffffffffffffffffff1603610225575f6040517f1e4fbdf700000000000000000000000000000000000000000000000000000000815260040161021c919061075a565b60405180910390fd5b610234816102e160201b60201c565b50610904565b5f60208351101561025b57610254836103a460201b60201c565b9050610281565b8261026b8361040960201b60201c565b5f019081610279919061064c565b5060ff5f1b90505b92915050565b5f7f8b73c3c69bb8fe3d512ecc4cf759cc79239f7b179b0ffacaa9a75d522b39400f60e0516101005146306040516020016102c695949392919061079a565b60405160208183030381529060405280519060200120905090565b5f60085f9054906101000a900473ffffffffffffffffffffffffffffffffffffffff1690508160085f6101000a81548173ffffffffffffffffffffffffffffffffffffffff021916908373ffffffffffffffffffffffffffffffffffffffff1602179055508173ffffffffffffffffffffffffffffffffffffffff168173ffffffffffffffffffffffffffffffffffffffff167f8be0079c531659141344cd1fd0a4f28419497f9722a3daafe3b4186f6b6457e060405160405180910390a35050565b5f80829050601f815111156103f057826040517f305a27a90000000000000000000000000000000000000000000000000000000081526004016103e79190610851565b60405180910390fd5b8051816103fc9061089e565b5f1c175f1b915050919050565b5f819050919050565b5f81519050919050565b7f4e487b71000000000000000000000000000000000000000000000000000000005f52604160045260245ffd5b7f4e487b71000000000000000000000000000000000000000000000000000000005f52602260045260245ffd5b5f600282049050600182168061048d57607f821691505b6020821081036104a05761049f610449565b5b50919050565b5f819050815f5260205f209050919050565b5f6020601f8301049050919050565b5f82821b905092915050565b5f600883026105027fffffffffffffffffffffffffffffffffffffffffffffffffffffffffffffffff826104c7565b61050c86836104c7565b95508019841693508086168417925050509392505050565b5f819050919050565b5f819050919050565b5f61055061054b61054684610524565b61052d565b610524565b9050919050565b5f819050919050565b61056983610536565b61057d61057582610557565b8484546104d3565b825550505050565b5f90565b610591610585565b61059c818484610560565b505050565b5b818110156105bf576105b45f82610589565b6001810190506105a2565b5050565b601f821115610604576105d5816104a6565b6105de846104b8565b810160208510156105ed578190505b6106016105f9856104b8565b8301826105a1565b50505b505050565b5f82821c905092915050565b5f6106245f1984600802610609565b1980831691505092915050565b5f61063c8383610615565b9150826002028217905092915050565b61065582610412565b67ffffffffffffffff81111561066e5761066d61041c565b5b6106788254610476565b6106838282856105c3565b5f60209050601f8311600181146106b4575f84156106a2578287015190505b6106ac8582610631565b865550610713565b601f1984166106c2866104a6565b5f5b828110156106e9578489015182556001820191506020850194506020810190506106c4565b868310156107065784890151610702601f891682610615565b8355505b6001600288020188555050505b505050505050565b5f73ffffffffffffffffffffffffffffffffffffffff82169050919050565b5f6107448261071b565b9050919050565b6107548161073a565b82525050565b5f60208201905061076d5f83018461074b565b92915050565b5f819050919050565b61078581610773565b82525050565b61079481610524565b82525050565b5f60a0820190506107ad5f83018861077c565b6107ba602083018761077c565b6107c7604083018661077c565b6107d4606083018561078b565b6107e1608083018461074b565b9695505050505050565b5f82825260208201905092915050565b8281835e5f83830152505050565b5f601f19601f8301169050919050565b5f61082382610412565b61082d81856107eb565b935061083d8185602086016107fb565b61084681610809565b840191505092915050565b5f6020820190508181035f8301526108698184610819565b905092915050565b5f81519050919050565b5f819050602082019050919050565b5f6108958251610773565b80915050919050565b5f6108a882610871565b826108b28461087b565b90506108bd8161088a565b925060208210156108fd576108f87fffffffffffffffffffffffffffffffffffffffffffffffffffffffffffffffff836020036008026104c7565b831692505b5050919050565b60805160a05160c05160e051610100516101205161014051613d306109555f395f611b0e01525f611ad301525f6125a201525f61258101525f611f2801525f611f7e01525f611fa70152613d305ff3fe608060405234801561000f575f80fd5b5060043610610171575f3560e01c806384b0196e116100dc578063b88d4fde11610095578063e985e9c51161006f578063e985e9c514610485578063eaaf77e6146104b5578063f2fde38b146104ea578063f698da251461050657610171565b8063b88d4fde14610409578063c87b56dd14610425578063e16abb171461045557610171565b806384b0196e1461032d57806385f8dd8d146103515780638da5cb5b1461038157806395d89b411461039f578063a22cb465146103bd578063a6828210146103d957610171565b806323b872dd1161012e57806323b872dd1461025b57806342842e0e146102775780636352211e1461029357806370a08231146102c3578063715018a6146102f35780637ecebe00146102fd57610171565b806301ffc9a71461017557806306fdde03146101a5578063081812fc146101c3578063095ea7b3146101f357806311ba6b4a1461020f5780631ac797331461022b575b5f80fd5b61018f600480360381019061018a91906129fc565b610524565b60405161019c9190612a41565b60405180910390f35b6101ad610605565b6040516101ba9190612aca565b60405180910390f35b6101dd60048036038101906101d89190612b1d565b610694565b6040516101ea9190612b87565b60405180910390f35b61020d60048036038101906102089190612bca565b6106af565b005b61022960048036038101906102249190612b1d565b6106c5565b005b61024560048036038101906102409190612d34565b610796565b6040516102529190612a41565b60405180910390f35b61027560048036038101906102709190612d7b565b6107cb565b005b610291600480360381019061028c9190612d7b565b6108ca565b005b6102ad60048036038101906102a89190612b1d565b6108e9565b6040516102ba9190612b87565b60405180910390f35b6102dd60048036038101906102d89190612dcb565b6108fa565b6040516102ea9190612e05565b60405180910390f35b6102fb6109b0565b005b61031760048036038101906103129190612dcb565b6109c3565b6040516103249190612e05565b60405180910390f35b6103356109d8565b6040516103489796959493929190612f27565b60405180910390f35b61036b60048036038101906103669190612dcb565b610a7d565b604051610378919061309c565b60405180910390f35b610389610cce565b6040516103969190612b87565b60405180910390f35b6103a7610cf6565b6040516103b49190612aca565b60405180910390f35b6103d760048036038101906103d291906130e6565b610d86565b005b6103f360048036038101906103ee91906131d6565b610d9c565b6040516104009190612e05565b60405180910390f35b610423600480360381019061041e9190613338565b6112bd565b005b61043f600480360381019061043a9190612b1d565b6112e2565b60405161044c9190612aca565b60405180910390f35b61046f600480360381019061046a9190612dcb565b611390565b60405161047c9190612e05565b60405180910390f35b61049f600480360381019061049a91906133b8565b6113a5565b6040516104ac9190612a41565b60405180910390f35b6104cf60048036038101906104ca9190612b1d565b611433565b6040516104e1969594939291906133f6565b60405180910390f35b61050460048036038101906104ff9190612dcb565b6115a2565b005b61050e611626565b60405161051b9190613463565b60405180910390f35b5f7f80ac58cd000000000000000000000000000000000000000000000000000000007bffffffffffffffffffffffffffffffffffffffffffffffffffffffff1916827bffffffffffffffffffffffffffffffffffffffffffffffffffffffff191614806105ee57507f5b5e139f000000000000000000000000000000000000000000000000000000007bffffffffffffffffffffffffffffffffffffffffffffffffffffffff1916827bffffffffffffffffffffffffffffffffffffffffffffffffffffffff1916145b806105fe57506105fd82611634565b5b9050919050565b60605f8054610613906134a9565b80601f016020809104026020016040519081016040528092919081815260200182805461063f906134a9565b801561068a5780601f106106615761010080835404028352916020019161068a565b820191905f5260205f20905b81548152906001019060200180831161066d57829003601f168201915b5050505050905090565b5f61069e8261169d565b506106a882611723565b9050919050565b6106c182826106bc61175c565b611763565b5050565b3373ffffffffffffffffffffffffffffffffffffffff166106e5826108e9565b73ffffffffffffffffffffffffffffffffffffffff161461073b576040517f08c379a000000000000000000000000000000000000000000000000000000000815260040161073290613523565b60405180910390fd5b5f600a5f8381526020019081526020015f206005015f6101000a81548160ff021916908315150217905550807fc2fb7f8575ac3990e70361684edfc4d283931ea9a03dfa28766bf376a3934aa260405160405180910390a250565b600c818051602081018201805184825260208301602085012081835280955050505050505f915054906101000a900460ff1681565b5f73ffffffffffffffffffffffffffffffffffffffff168273ffffffffffffffffffffffffffffffffffffffff160361083b575f6040517f64a0ae920000000000000000000000000000000000000000000000000000000081526004016108329190612b87565b60405180910390fd5b5f61084e838361084961175c565b611775565b90508373ffffffffffffffffffffffffffffffffffffffff168173ffffffffffffffffffffffffffffffffffffffff16146108c4578382826040517f64283d7b0000000000000000000000000000000000000000000000000000000081526004016108bb93929190613541565b60405180910390fd5b50505050565b6108e483838360405180602001604052805f8152506112bd565b505050565b5f6108f38261169d565b9050919050565b5f8073ffffffffffffffffffffffffffffffffffffffff168273ffffffffffffffffffffffffffffffffffffffff160361096b575f6040517f89c62b640000000000000000000000000000000000000000000000000000000081526004016109629190612b87565b60405180910390fd5b60035f8373ffffffffffffffffffffffffffffffffffffffff1673ffffffffffffffffffffffffffffffffffffffff1681526020019081526020015f20549050919050565b6109b8611980565b6109c15f611a07565b565b600d602052805f5260405f205f915090505481565b5f6060805f805f60606109e9611aca565b6109f1611b05565b46305f801b5f67ffffffffffffffff811115610a1057610a0f612c10565b5b604051908082528060200260200182016040528015610a3e5781602001602082028036833780820191505090505b507f0f00000000000000000000000000000000000000000000000000000000000000959493929190965096509650965096509650965090919293949596565b610a8561294c565b5f600b5f8473ffffffffffffffffffffffffffffffffffffffff1673ffffffffffffffffffffffffffffffffffffffff1681526020019081526020015f205490505f8103610b08576040517f08c379a0000000000000000000000000000000000000000000000000000000008152600401610aff906135c0565b60405180910390fd5b600a5f8281526020019081526020015f206040518060c00160405290815f82018054610b33906134a9565b80601f0160208091040260200160405190810160405280929190818152602001828054610b5f906134a9565b8015610baa5780601f10610b8157610100808354040283529160200191610baa565b820191905f5260205f20905b815481529060010190602001808311610b8d57829003601f168201915b50505050508152602001600182018054610bc3906134a9565b80601f0160208091040260200160405190810160405280929190818152602001828054610bef906134a9565b8015610c3a5780601f10610c1157610100808354040283529160200191610c3a565b820191905f5260205f20905b815481529060010190602001808311610c1d57829003601f168201915b50505050508152602001600282015f9054906101000a900473ffffffffffffffffffffffffffffffffffffffff1673ffffffffffffffffffffffffffffffffffffffff1673ffffffffffffffffffffffffffffffffffffffff1681526020016003820154815260200160048201548152602001600582015f9054906101000a900460ff161515151581525050915050919050565b5f60085f9054906101000a900473ffffffffffffffffffffffffffffffffffffffff16905090565b606060018054610d05906134a9565b80601f0160208091040260200160405190810160405280929190818152602001828054610d31906134a9565b8015610d7c5780601f10610d5357610100808354040283529160200191610d7c565b820191905f5260205f20905b815481529060010190602001808311610d5f57829003601f168201915b5050505050905090565b610d98610d9161175c565b8383611b40565b5050565b5f600c8888604051610daf92919061360c565b90815260200160405180910390205f9054906101000a900460ff1615610e0a576040517f08c379a0000000000000000000000000000000000000000000000000000000008152600401610e019061366e565b60405180910390fd5b5f600b5f8673ffffffffffffffffffffffffffffffffffffffff1673ffffffffffffffffffffffffffffffffffffffff1681526020019081526020015f205414610e89576040517f08c379a0000000000000000000000000000000000000000000000000000000008152600401610e80906136d6565b60405180910390fd5b5f600d5f8673ffffffffffffffffffffffffffffffffffffffff1673ffffffffffffffffffffffffffffffffffffffff1681526020019081526020015f205490505f7f77a61a3ec2719092e9cc92a88ab043326fec71914047eb0b3ff39a689360fec5866001600954610efc9190613721565b4685604051602001610f12959493929190613754565b6040516020818303038152906040528051906020012090505f610f3482611d19565b90505f610f8d87878080601f0160208091040260200160405190810160405280939291908181526020018383808284375f81840152601f19601f8201169050808301925050505050505083611d3290919063ffffffff16565b90508773ffffffffffffffffffffffffffffffffffffffff168173ffffffffffffffffffffffffffffffffffffffff1614610ffd576040517f08c379a0000000000000000000000000000000000000000000000000000000008152600401610ff4906137ef565b60405180910390fd5b600d5f8973ffffffffffffffffffffffffffffffffffffffff1673ffffffffffffffffffffffffffffffffffffffff1681526020019081526020015f205f81548092919061104a9061380d565b919050555060095f8154809291906110619061380d565b919050555060095494506110753386611d5c565b6040518060c001604052808d8d8080601f0160208091040260200160405190810160405280939291908181526020018383808284375f81840152601f19601f8201169050808301925050505050505081526020018b8b8080601f0160208091040260200160405190810160405280939291908181526020018383808284375f81840152601f19601f8201169050808301925050505050505081526020018973ffffffffffffffffffffffffffffffffffffffff16815260200146815260200142815260200160011515815250600a5f8781526020019081526020015f205f820151815f01908161116591906139f1565b50602082015181600101908161117b91906139f1565b506040820151816002015f6101000a81548173ffffffffffffffffffffffffffffffffffffffff021916908373ffffffffffffffffffffffffffffffffffffffff160217905550606082015181600301556080820151816004015560a0820151816005015f6101000a81548160ff02191690831515021790555090505084600b5f8a73ffffffffffffffffffffffffffffffffffffffff1673ffffffffffffffffffffffffffffffffffffffff1681526020019081526020015f20819055506001600c8d8d60405161124e92919061360c565b90815260200160405180910390205f6101000a81548160ff021916908315150217905550847faef1fcdf962a03943b677ae3b92ef1b34c972aeef794ed6e9ba5f599b461883b8d8d8b6040516112a693929190613aec565b60405180910390a250505050979650505050505050565b6112c88484846107cb565b6112dc6112d361175c565b85858585611d79565b50505050565b60606112ed8261169d565b50600a5f8381526020019081526020015f20600101805461130d906134a9565b80601f0160208091040260200160405190810160405280929190818152602001828054611339906134a9565b80156113845780601f1061135b57610100808354040283529160200191611384565b820191905f5260205f20905b81548152906001019060200180831161136757829003601f168201915b50505050509050919050565b600b602052805f5260405f205f915090505481565b5f60055f8473ffffffffffffffffffffffffffffffffffffffff1673ffffffffffffffffffffffffffffffffffffffff1681526020019081526020015f205f8373ffffffffffffffffffffffffffffffffffffffff1673ffffffffffffffffffffffffffffffffffffffff1681526020019081526020015f205f9054906101000a900460ff16905092915050565b600a602052805f5260405f205f91509050805f018054611452906134a9565b80601f016020809104026020016040519081016040528092919081815260200182805461147e906134a9565b80156114c95780601f106114a0576101008083540402835291602001916114c9565b820191905f5260205f20905b8154815290600101906020018083116114ac57829003601f168201915b5050505050908060010180546114de906134a9565b80601f016020809104026020016040519081016040528092919081815260200182805461150a906134a9565b80156115555780601f1061152c57610100808354040283529160200191611555565b820191905f5260205f20905b81548152906001019060200180831161153857829003601f168201915b505050505090806002015f9054906101000a900473ffffffffffffffffffffffffffffffffffffffff1690806003015490806004015490806005015f9054906101000a900460ff16905086565b6115aa611980565b5f73ffffffffffffffffffffffffffffffffffffffff168173ffffffffffffffffffffffffffffffffffffffff160361161a575f6040517f1e4fbdf70000000000000000000000000000000000000000000000000000000081526004016116119190612b87565b60405180910390fd5b61162381611a07565b50565b5f61162f611f25565b905090565b5f7f01ffc9a7000000000000000000000000000000000000000000000000000000007bffffffffffffffffffffffffffffffffffffffffffffffffffffffff1916827bffffffffffffffffffffffffffffffffffffffffffffffffffffffff1916149050919050565b5f806116a883611fdb565b90505f73ffffffffffffffffffffffffffffffffffffffff168173ffffffffffffffffffffffffffffffffffffffff160361171a57826040517f7e2732890000000000000000000000000000000000000000000000000000000081526004016117119190612e05565b60405180910390fd5b80915050919050565b5f60045f8381526020019081526020015f205f9054906101000a900473ffffffffffffffffffffffffffffffffffffffff169050919050565b5f33905090565b6117708383836001612014565b505050565b5f8061178084611fdb565b90505f73ffffffffffffffffffffffffffffffffffffffff168373ffffffffffffffffffffffffffffffffffffffff16146117c1576117c08184866121d3565b5b5f73ffffffffffffffffffffffffffffffffffffffff168173ffffffffffffffffffffffffffffffffffffffff161461184c576118005f855f80612014565b600160035f8373ffffffffffffffffffffffffffffffffffffffff1673ffffffffffffffffffffffffffffffffffffffff1681526020019081526020015f205f82825403925050819055505b5f73ffffffffffffffffffffffffffffffffffffffff168573ffffffffffffffffffffffffffffffffffffffff16146118cb57600160035f8773ffffffffffffffffffffffffffffffffffffffff1673ffffffffffffffffffffffffffffffffffffffff1681526020019081526020015f205f82825401925050819055505b8460025f8681526020019081526020015f205f6101000a81548173ffffffffffffffffffffffffffffffffffffffff021916908373ffffffffffffffffffffffffffffffffffffffff160217905550838573ffffffffffffffffffffffffffffffffffffffff168273ffffffffffffffffffffffffffffffffffffffff167fddf252ad1be2c89b69c2b068fc378daa952ba7f163c4a11628f55a4df523b3ef60405160405180910390a4809150509392505050565b61198861175c565b73ffffffffffffffffffffffffffffffffffffffff166119a6610cce565b73ffffffffffffffffffffffffffffffffffffffff1614611a05576119c961175c565b6040517f118cdaa70000000000000000000000000000000000000000000000000000000081526004016119fc9190612b87565b60405180910390fd5b565b5f60085f9054906101000a900473ffffffffffffffffffffffffffffffffffffffff1690508160085f6101000a81548173ffffffffffffffffffffffffffffffffffffffff021916908373ffffffffffffffffffffffffffffffffffffffff1602179055508173ffffffffffffffffffffffffffffffffffffffff168173ffffffffffffffffffffffffffffffffffffffff167f8be0079c531659141344cd1fd0a4f28419497f9722a3daafe3b4186f6b6457e060405160405180910390a35050565b6060611b0060067f000000000000000000000000000000000000000000000000000000000000000061229690919063ffffffff16565b905090565b6060611b3b60077f000000000000000000000000000000000000000000000000000000000000000061229690919063ffffffff16565b905090565b5f73ffffffffffffffffffffffffffffffffffffffff168373ffffffffffffffffffffffffffffffffffffffff1603611bb0575f6040517fa9fbf51f000000000000000000000000000000000000000000000000000000008152600401611ba79190612b87565b60405180910390fd5b5f73ffffffffffffffffffffffffffffffffffffffff168273ffffffffffffffffffffffffffffffffffffffff1603611c2057816040517f5b08ba18000000000000000000000000000000000000000000000000000000008152600401611c179190612b87565b60405180910390fd5b8060055f8573ffffffffffffffffffffffffffffffffffffffff1673ffffffffffffffffffffffffffffffffffffffff1681526020019081526020015f205f8473ffffffffffffffffffffffffffffffffffffffff1673ffffffffffffffffffffffffffffffffffffffff1681526020019081526020015f205f6101000a81548160ff0219169083151502179055508173ffffffffffffffffffffffffffffffffffffffff168373ffffffffffffffffffffffffffffffffffffffff167f17307eab39ab6107e8899845ad3d59bd9653f200f220920489ca2b5937696c3183604051611d0c9190612a41565b60405180910390a3505050565b5f611d2b611d25611f25565b83612343565b9050919050565b5f805f80611d408686612383565b925092509250611d5082826123d8565b82935050505092915050565b611d75828260405180602001604052805f81525061253a565b5050565b5f8373ffffffffffffffffffffffffffffffffffffffff163b1115611f1e578273ffffffffffffffffffffffffffffffffffffffff1663150b7a02868685856040518563ffffffff1660e01b8152600401611dd79493929190613b6e565b6020604051808303815f875af1925050508015611e1257506040513d601f19601f82011682018060405250810190611e0f9190613bcc565b60015b611e93573d805f8114611e40576040519150601f19603f3d011682016040523d82523d5f602084013e611e45565b606091505b505f815103611e8b57836040517f64a0ae92000000000000000000000000000000000000000000000000000000008152600401611e829190612b87565b60405180910390fd5b805160208201fd5b63150b7a0260e01b7bffffffffffffffffffffffffffffffffffffffffffffffffffffffff1916817bffffffffffffffffffffffffffffffffffffffffffffffffffffffff191614611f1c57836040517f64a0ae92000000000000000000000000000000000000000000000000000000008152600401611f139190612b87565b60405180910390fd5b505b5050505050565b5f7f000000000000000000000000000000000000000000000000000000000000000073ffffffffffffffffffffffffffffffffffffffff163073ffffffffffffffffffffffffffffffffffffffff16148015611fa057507f000000000000000000000000000000000000000000000000000000000000000046145b15611fcd577f00000000000000000000000000000000000000000000000000000000000000009050611fd8565b611fd561255d565b90505b90565b5f60025f8381526020019081526020015f205f9054906101000a900473ffffffffffffffffffffffffffffffffffffffff169050919050565b808061204c57505f73ffffffffffffffffffffffffffffffffffffffff168273ffffffffffffffffffffffffffffffffffffffff1614155b1561217e575f61205b8461169d565b90505f73ffffffffffffffffffffffffffffffffffffffff168373ffffffffffffffffffffffffffffffffffffffff16141580156120c557508273ffffffffffffffffffffffffffffffffffffffff168173ffffffffffffffffffffffffffffffffffffffff1614155b80156120d857506120d681846113a5565b155b1561211a57826040517fa9fbf51f0000000000000000000000000000000000000000000000000000000081526004016121119190612b87565b60405180910390fd5b811561217c57838573ffffffffffffffffffffffffffffffffffffffff168273ffffffffffffffffffffffffffffffffffffffff167f8c5be1e5ebec7d5bd14f71427d1e84f3dd0314c0f7b2291e5b200ac8c7c3b92560405160405180910390a45b505b8360045f8581526020019081526020015f205f6101000a81548173ffffffffffffffffffffffffffffffffffffffff021916908373ffffffffffffffffffffffffffffffffffffffff16021790555050505050565b6121de8383836125f2565b612291575f73ffffffffffffffffffffffffffffffffffffffff168373ffffffffffffffffffffffffffffffffffffffff160361225257806040517f7e2732890000000000000000000000000000000000000000000000000000000081526004016122499190612e05565b60405180910390fd5b81816040517f177e802f000000000000000000000000000000000000000000000000000000008152600401612288929190613bf7565b60405180910390fd5b505050565b606060ff5f1b83146122b2576122ab836126b2565b905061233d565b8180546122be906134a9565b80601f01602080910402602001604051908101604052809291908181526020018280546122ea906134a9565b80156123355780601f1061230c57610100808354040283529160200191612335565b820191905f5260205f20905b81548152906001019060200180831161231857829003601f168201915b505050505090505b92915050565b5f6040517f190100000000000000000000000000000000000000000000000000000000000081528360028201528260228201526042812091505092915050565b5f805f60418451036123c3575f805f602087015192506040870151915060608701515f1a90506123b588828585612724565b9550955095505050506123d1565b5f600285515f1b9250925092505b9250925092565b5f60038111156123eb576123ea613c1e565b5b8260038111156123fe576123fd613c1e565b5b0315612536576001600381111561241857612417613c1e565b5b82600381111561242b5761242a613c1e565b5b03612462576040517ff645eedf00000000000000000000000000000000000000000000000000000000815260040160405180910390fd5b6002600381111561247657612475613c1e565b5b82600381111561248957612488613c1e565b5b036124cd57805f1c6040517ffce698f70000000000000000000000000000000000000000000000000000000081526004016124c49190612e05565b60405180910390fd5b6003808111156124e0576124df613c1e565b5b8260038111156124f3576124f2613c1e565b5b0361253557806040517fd78bce0c00000000000000000000000000000000000000000000000000000000815260040161252c9190613463565b60405180910390fd5b5b5050565b612544838361280b565b61255861254f61175c565b5f858585611d79565b505050565b5f7f8b73c3c69bb8fe3d512ecc4cf759cc79239f7b179b0ffacaa9a75d522b39400f7f00000000000000000000000000000000000000000000000000000000000000007f000000000000000000000000000000000000000000000000000000000000000046306040516020016125d7959493929190613c4b565b60405160208183030381529060405280519060200120905090565b5f8073ffffffffffffffffffffffffffffffffffffffff168373ffffffffffffffffffffffffffffffffffffffff16141580156126a957508273ffffffffffffffffffffffffffffffffffffffff168473ffffffffffffffffffffffffffffffffffffffff16148061266a575061266984846113a5565b5b806126a857508273ffffffffffffffffffffffffffffffffffffffff1661269083611723565b73ffffffffffffffffffffffffffffffffffffffff16145b5b90509392505050565b60605f6126be836128fe565b90505f602067ffffffffffffffff8111156126dc576126db612c10565b5b6040519080825280601f01601f19166020018201604052801561270e5781602001600182028036833780820191505090505b5090508181528360208201528092505050919050565b5f805f7f7fffffffffffffffffffffffffffffff5d576e7357a4501ddfe92f46681b20a0845f1c1115612760575f600385925092509250612801565b5f6001888888886040515f81526020016040526040516127839493929190613cb7565b6020604051602081039080840390855afa1580156127a3573d5f803e3d5ffd5b5050506020604051035190505f73ffffffffffffffffffffffffffffffffffffffff168173ffffffffffffffffffffffffffffffffffffffff16036127f4575f60015f801b93509350935050612801565b805f805f1b935093509350505b9450945094915050565b5f73ffffffffffffffffffffffffffffffffffffffff168273ffffffffffffffffffffffffffffffffffffffff160361287b575f6040517f64a0ae920000000000000000000000000000000000000000000000000000000081526004016128729190612b87565b60405180910390fd5b5f61288783835f611775565b90505f73ffffffffffffffffffffffffffffffffffffffff168173ffffffffffffffffffffffffffffffffffffffff16146128f9575f6040517f73c6ac6e0000000000000000000000000000000000000000000000000000000081526004016128f09190612b87565b60405180910390fd5b505050565b5f8060ff835f1c169050601f811115612943576040517fb3512b0c00000000000000000000000000000000000000000000000000000000815260040160405180910390fd5b80915050919050565b6040518060c0016040528060608152602001606081526020015f73ffffffffffffffffffffffffffffffffffffffff1681526020015f81526020015f81526020015f151581525090565b5f604051905090565b5f80fd5b5f80fd5b5f7fffffffff0000000000000000000000000000000000000000000000000000000082169050919050565b6129db816129a7565b81146129e5575f80fd5b50565b5f813590506129f6816129d2565b92915050565b5f60208284031215612a1157612a1061299f565b5b5f612a1e848285016129e8565b91505092915050565b5f8115159050919050565b612a3b81612a27565b82525050565b5f602082019050612a545f830184612a32565b92915050565b5f81519050919050565b5f82825260208201905092915050565b8281835e5f83830152505050565b5f601f19601f8301169050919050565b5f612a9c82612a5a565b612aa68185612a64565b9350612ab6818560208601612a74565b612abf81612a82565b840191505092915050565b5f6020820190508181035f830152612ae28184612a92565b905092915050565b5f819050919050565b612afc81612aea565b8114612b06575f80fd5b50565b5f81359050612b1781612af3565b92915050565b5f60208284031215612b3257612b3161299f565b5b5f612b3f84828501612b09565b91505092915050565b5f73ffffffffffffffffffffffffffffffffffffffff82169050919050565b5f612b7182612b48565b9050919050565b612b8181612b67565b82525050565b5f602082019050612b9a5f830184612b78565b92915050565b612ba981612b67565b8114612bb3575f80fd5b50565b5f81359050612bc481612ba0565b92915050565b5f8060408385031215612be057612bdf61299f565b5b5f612bed85828601612bb6565b9250506020612bfe85828601612b09565b9150509250929050565b5f80fd5b5f80fd5b7f4e487b71000000000000000000000000000000000000000000000000000000005f52604160045260245ffd5b612c4682612a82565b810181811067ffffffffffffffff82111715612c6557612c64612c10565b5b80604052505050565b5f612c77612996565b9050612c838282612c3d565b919050565b5f67ffffffffffffffff821115612ca257612ca1612c10565b5b612cab82612a82565b9050602081019050919050565b828183375f83830152505050565b5f612cd8612cd384612c88565b612c6e565b905082815260208101848484011115612cf457612cf3612c0c565b5b612cff848285612cb8565b509392505050565b5f82601f830112612d1b57612d1a612c08565b5b8135612d2b848260208601612cc6565b91505092915050565b5f60208284031215612d4957612d4861299f565b5b5f82013567ffffffffffffffff811115612d6657612d656129a3565b5b612d7284828501612d07565b91505092915050565b5f805f60608486031215612d9257612d9161299f565b5b5f612d9f86828701612bb6565b9350506020612db086828701612bb6565b9250506040612dc186828701612b09565b9150509250925092565b5f60208284031215612de057612ddf61299f565b5b5f612ded84828501612bb6565b91505092915050565b612dff81612aea565b82525050565b5f602082019050612e185f830184612df6565b92915050565b5f7fff0000000000000000000000000000000000000000000000000000000000000082169050919050565b612e5281612e1e565b82525050565b5f819050919050565b612e6a81612e58565b82525050565b5f81519050919050565b5f82825260208201905092915050565b5f819050602082019050919050565b612ea281612aea565b82525050565b5f612eb38383612e99565b60208301905092915050565b5f602082019050919050565b5f612ed582612e70565b612edf8185612e7a565b9350612eea83612e8a565b805f5b83811015612f1a578151612f018882612ea8565b9750612f0c83612ebf565b925050600181019050612eed565b5085935050505092915050565b5f60e082019050612f3a5f83018a612e49565b8181036020830152612f4c8189612a92565b90508181036040830152612f608188612a92565b9050612f6f6060830187612df6565b612f7c6080830186612b78565b612f8960a0830185612e61565b81810360c0830152612f9b8184612ecb565b905098975050505050505050565b5f82825260208201905092915050565b5f612fc382612a5a565b612fcd8185612fa9565b9350612fdd818560208601612a74565b612fe681612a82565b840191505092915050565b612ffa81612b67565b82525050565b61300981612a27565b82525050565b5f60c083015f8301518482035f8601526130298282612fb9565b915050602083015184820360208601526130438282612fb9565b91505060408301516130586040860182612ff1565b50606083015161306b6060860182612e99565b50608083015161307e6080860182612e99565b5060a083015161309160a0860182613000565b508091505092915050565b5f6020820190508181035f8301526130b4818461300f565b905092915050565b6130c581612a27565b81146130cf575f80fd5b50565b5f813590506130e0816130bc565b92915050565b5f80604083850312156130fc576130fb61299f565b5b5f61310985828601612bb6565b925050602061311a858286016130d2565b9150509250929050565b5f80fd5b5f80fd5b5f8083601f84011261314157613140612c08565b5b8235905067ffffffffffffffff81111561315e5761315d613124565b5b60208301915083600182028301111561317a57613179613128565b5b9250929050565b5f8083601f84011261319657613195612c08565b5b8235905067ffffffffffffffff8111156131b3576131b2613124565b5b6020830191508360018202830111156131cf576131ce613128565b5b9250929050565b5f805f805f805f6080888a0312156131f1576131f061299f565b5b5f88013567ffffffffffffffff81111561320e5761320d6129a3565b5b61321a8a828b0161312c565b9750975050602088013567ffffffffffffffff81111561323d5761323c6129a3565b5b6132498a828b0161312c565b9550955050604061325c8a828b01612bb6565b935050606088013567ffffffffffffffff81111561327d5761327c6129a3565b5b6132898a828b01613181565b925092505092959891949750929550565b5f67ffffffffffffffff8211156132b4576132b3612c10565b5b6132bd82612a82565b9050602081019050919050565b5f6132dc6132d78461329a565b612c6e565b9050828152602081018484840111156132f8576132f7612c0c565b5b613303848285612cb8565b509392505050565b5f82601f83011261331f5761331e612c08565b5b813561332f8482602086016132ca565b91505092915050565b5f805f80608085870312156133505761334f61299f565b5b5f61335d87828801612bb6565b945050602061336e87828801612bb6565b935050604061337f87828801612b09565b925050606085013567ffffffffffffffff8111156133a05761339f6129a3565b5b6133ac8782880161330b565b91505092959194509250565b5f80604083850312156133ce576133cd61299f565b5b5f6133db85828601612bb6565b92505060206133ec85828601612bb6565b9150509250929050565b5f60c0820190508181035f83015261340e8189612a92565b905081810360208301526134228188612a92565b90506134316040830187612b78565b61343e6060830186612df6565b61344b6080830185612df6565b61345860a0830184612a32565b979650505050505050565b5f6020820190506134765f830184612e61565b92915050565b7f4e487b71000000000000000000000000000000000000000000000000000000005f52602260045260245ffd5b5f60028204905060018216806134c057607f821691505b6020821081036134d3576134d261347c565b5b50919050565b7f4e6f74206f776e657200000000000000000000000000000000000000000000005f82015250565b5f61350d600983612a64565b9150613518826134d9565b602082019050919050565b5f6020820190508181035f83015261353a81613501565b9050919050565b5f6060820190506135545f830186612b78565b6135616020830185612df6565b61356e6040830184612b78565b949350505050565b7f4e6f206167656e7420666f7220746869732077616c6c657400000000000000005f82015250565b5f6135aa601883612a64565b91506135b582613576565b602082019050919050565b5f6020820190508181035f8301526135d78161359e565b9050919050565b5f81905092915050565b5f6135f383856135de565b9350613600838584612cb8565b82840190509392505050565b5f6136188284866135e8565b91508190509392505050565b7f48616e646c6520616c72656164792074616b656e0000000000000000000000005f82015250565b5f613658601483612a64565b915061366382613624565b602082019050919050565b5f6020820190508181035f8301526136858161364c565b9050919050565b7f57616c6c657420616c726561647920626f756e6420746f20616e206167656e745f82015250565b5f6136c0602083612a64565b91506136cb8261368c565b602082019050919050565b5f6020820190508181035f8301526136ed816136b4565b9050919050565b7f4e487b71000000000000000000000000000000000000000000000000000000005f52601160045260245ffd5b5f61372b82612aea565b915061373683612aea565b925082820190508082111561374e5761374d6136f4565b5b92915050565b5f60a0820190506137675f830188612e61565b6137746020830187612b78565b6137816040830186612df6565b61378e6060830185612df6565b61379b6080830184612df6565b9695505050505050565b7f496e76616c69642077616c6c65742062696e64696e67207369676e61747572655f82015250565b5f6137d9602083612a64565b91506137e4826137a5565b602082019050919050565b5f6020820190508181035f830152613806816137cd565b9050919050565b5f61381782612aea565b91507fffffffffffffffffffffffffffffffffffffffffffffffffffffffffffffffff8203613849576138486136f4565b5b600182019050919050565b5f819050815f5260205f209050919050565b5f6020601f8301049050919050565b5f82821b905092915050565b5f600883026138b07fffffffffffffffffffffffffffffffffffffffffffffffffffffffffffffffff82613875565b6138ba8683613875565b95508019841693508086168417925050509392505050565b5f819050919050565b5f6138f56138f06138eb84612aea565b6138d2565b612aea565b9050919050565b5f819050919050565b61390e836138db565b61392261391a826138fc565b848454613881565b825550505050565b5f90565b61393661392a565b613941818484613905565b505050565b5b81811015613964576139595f8261392e565b600181019050613947565b5050565b601f8211156139a95761397a81613854565b61398384613866565b81016020851015613992578190505b6139a661399e85613866565b830182613946565b50505b505050565b5f82821c905092915050565b5f6139c95f19846008026139ae565b1980831691505092915050565b5f6139e183836139ba565b9150826002028217905092915050565b6139fa82612a5a565b67ffffffffffffffff811115613a1357613a12612c10565b5b613a1d82546134a9565b613a28828285613968565b5f60209050601f831160018114613a59575f8415613a47578287015190505b613a5185826139d6565b865550613ab8565b601f198416613a6786613854565b5f5b82811015613a8e57848901518255600182019150602085019450602081019050613a69565b86831015613aab5784890151613aa7601f8916826139ba565b8355505b6001600288020188555050505b505050505050565b5f613acb8385612a64565b9350613ad8838584612cb8565b613ae183612a82565b840190509392505050565b5f6040820190508181035f830152613b05818587613ac0565b9050613b146020830184612b78565b949350505050565b5f81519050919050565b5f82825260208201905092915050565b5f613b4082613b1c565b613b4a8185613b26565b9350613b5a818560208601612a74565b613b6381612a82565b840191505092915050565b5f608082019050613b815f830187612b78565b613b8e6020830186612b78565b613b9b6040830185612df6565b8181036060830152613bad8184613b36565b905095945050505050565b5f81519050613bc6816129d2565b92915050565b5f60208284031215613be157613be061299f565b5b5f613bee84828501613bb8565b91505092915050565b5f604082019050613c0a5f830185612b78565b613c176020830184612df6565b9392505050565b7f4e487b71000000000000000000000000000000000000000000000000000000005f52602160045260245ffd5b5f60a082019050613c5e5f830188612e61565b613c6b6020830187612e61565b613c786040830186612e61565b613c856060830185612df6565b613c926080830184612b78565b9695505050505050565b5f60ff82169050919050565b613cb181613c9c565b82525050565b5f608082019050613cca5f830187612e61565b613cd76020830186613ca8565b613ce46040830185612e61565b613cf16060830184612e61565b9594505050505056fea264697066735822122000b8c56ccecb76b66a7b7d65e87beae549d7d7f2c1694dac0787c742b08267b864736f6c63430008190033",
  "linkReferences": {},
  "deployedLinkReferences": {}
}