{
  "_format": "hh-sol-artifact-1",
  "contractName": "ReputationRegistry",
  "sourceName": "contracts/GuardianAI.sol",
  "abi": [
    {
      "inputs": [
        {
          "internalType": "address",
          "name": "_oracle",
          "type": "address"
        }
      ],
      "stateMutability": "nonpayable",
      "type": "constructor"
    },
    {
      "inputs": [
        {
          "internalType": "address",
          "name": "owner",
          "type": "address"
        }
      ],
      "name": "OwnableInvalidOwner",
      "type": "error"
    },
    {
      "inputs": [
        {
          "internalType": "address",
          "name": "account",
          "type": "address"
        }
      ],
      "name": "OwnableUnauthorizedAccount",
      "type": "error"
    },
    {
      "anonymous": false,
      "inputs": [
        {
          "indexed": true,
          "internalType": "address",
          "name": "previousOwner",
          "type": "address"
        },
        {
          "indexed": true,
          "internalType": "address",
          "name": "newOwner",
          "type": "address"
        }
      ],
      "name": "OwnershipTransferred",
      "type": "event"
    },
    {
      "anonymous": false,
      "inputs": [
        {
          "indexed": true,
          "internalType": "uint256",
          "name": "agentId",
          "type": "uint256"
        },
        {
          "indexed": false,
          "internalType": "uint32",
          "name": "score",
          "type": "uint32"
        },
        {
          "indexed": false,
          "internalType": "uint256",
          "name": "timestamp",
          "type": "uint256"
        }
      ],
      "name": "ReputationUpdated",
      "type": "event"
    },
    {
      "inputs": [
        {
          "internalType": "uint256",
          "name": "agentId",
          "type": "uint256"
        }
      ],
      "name": "getReputation",
      "outputs": [
        {
          "components": [
            {
              "internalType": "uint256",
              "name": "agentId",
              "type": "uint256"
            },
            {
              "internalType": "uint32",
              "name": "safeTrades",
              "type": "uint32"
            },
            {
              "internalType": "uint32",
              "name": "rejectedTrades",
              "type": "uint32"
            },
            {
              "internalType": "int32",
              "name": "drawdownBps",
              "type": "int32"
            },
            {
              "internalType": "int32",
              "name": "sharpeBps",
              "type": "int32"
            },
            {
              "internalType": "uint32",
              "name": "reputationScore",
              "type": "uint32"
            },
            {
              "internalType": "uint256",
              "name": "lastUpdated",
              "type": "uint256"
            }
          ],
          "internalType": "struct ReputationRegistry.ReputationRecord",
          "name": "",
          "type": "tuple"
        }
      ],
      "stateMutability": "view",
      "type": "function"
    },
    {
      "inputs": [],
      "name": "oracle",
      "outputs": [
        {
          "internalType": "address",
          "name": "",
          "type": "address"
        }
      ],
      "stateMutability": "view",
      "type": "function"
    },
    {
      "inputs": [],
      "name": "owner",
      "outputs": [
        {
          "internalType": "address",
          "name": "",
          "type": "address"
        }
      ],
      "stateMutability": "view",
      "type": "function"
    },
    {
      "inputs": [
        {
          "internalType": "uint256",
          "name": "",
          "type": "uint256"
        }
      ],
      "name": "records",
      "outputs": [
        {
          "internalType": "uint256",
          "name": "agentId",
          "type": "uint256"
        },
        {
          "internalType": "uint32",
          "name": "safeTrades",
          "type": "uint32"
        },
        {
          "internalType": "uint32",
          "name": "rejectedTrades",
          "type": "uint32"
        },
        {
          "internalType": "int32",
          "name": "drawdownBps",
          "type": "int32"
        },
        {
          "internalType": "int32",
          "name": "sharpeBps",
          "type": "int32"
        },
        {
          "internalType": "uint32",
          "name": "reputationScore",
          "type": "uint32"
        },
        {
          "internalType": "uint256",
          "name": "lastUpdated",
          "type": "uint256"
        }
      ],
      "stateMutability": "view",
      "type": "function"
    },
    {
      "inputs": [],
      "name": "renounceOwnership",
      "outputs": [],
      "stateMutability": "nonpayable",
      "type": "function"
    },
    {
      "inputs": [
        {
          "internalType": "address",
          "name": "_oracle",
          "type": "address"
        }
      ],
      "name": "setOracle",
      "outputs": [],
      "stateMutability": "nonpayable",
      "type": "function"
    },
    {
      "inputs": [
        {
          "internalType": "address",
          "name": "newOwner",
          "type": "address"
        }
      ],
      "name": "transferOwnership",
      "outputs": [],
      "stateMutability": "nonpayable",
      "type": "function"
    },
    {
      "inputs": [
        {
          "internalType": "uint256",
          "name": "agentId",
          "type": "uint256"
        },
        {
          "internalType": "uint32",
          "name": "safeTrades",
          "type": "uint32"
        },
        {
          "internalType": "uint32",
          "name": "rejectedTrades",
          "type": "uint32"
        },
        {
          "internalType": "int32",
          "name": "drawdownBps",
          "type": "int32"
        },
        {
          "internalType": "int32",
          "name": "sharpeBps",
          "type": "int32"
        },
        {
          "internalType": "uint32",
          "name": "reputationScore",
          "type": "uint32"
        }
      ],
      "name": "updateReputation",
      "outputs": [],
      "stateMutability": "nonpayable",
      "type": "function"
    }
  ],
  "bytecode": "0x608060405234801561000f575f80fd5b50604051610e8e380380610e8e83398181016040528101906100319190610217565b335f73ffffffffffffffffffffffffffffffffffffffff168173ffffffffffffffffffffffffffffffffffffffff16036100a2575f6040517f1e4fbdf70000000000000000000000000000000000000000000000000000000081526004016100999190610251565b60405180910390fd5b6100b1816100f860201b60201c565b508060015f6101000a81548173ffffffffffffffffffffffffffffffffffffffff021916908373ffffffffffffffffffffffffffffffffffffffff1602179055505061026a565b5f805f9054906101000a900473ffffffffffffffffffffffffffffffffffffffff169050815f806101000a81548173ffffffffffffffffffffffffffffffffffffffff021916908373ffffffffffffffffffffffffffffffffffffffff1602179055508173ffffffffffffffffffffffffffffffffffffffff168173ffffffffffffffffffffffffffffffffffffffff167f8be0079c531659141344cd1fd0a4f28419497f9722a3daafe3b4186f6b6457e060405160405180910390a35050565b5f80fd5b5f73ffffffffffffffffffffffffffffffffffffffff82169050919050565b5f6101e6826101bd565b9050919050565b6101f6816101dc565b8114610200575f80fd5b50565b5f81519050610211816101ed565b92915050565b5f6020828403121561022c5761022b6101b9565b5b5f61023984828501610203565b91505092915050565b61024b816101dc565b82525050565b5f6020820190506102645f830184610242565b92915050565b610c17806102775f395ff3fe608060405234801561000f575f80fd5b5060043610610086575f3560e01c80637dc0d1d0116100595780637dc0d1d01461010257806389370d8b146101205780638da5cb5b14610150578063f2fde38b1461016e57610086565b80632dac5eb31461008a57806334461067146100a6578063715018a6146100dc5780637adbf973146100e6575b5f80fd5b6100a4600480360381019061009f9190610875565b61018a565b005b6100c060048036038101906100bb91906108fe565b610394565b6040516100d39796959493929190610956565b60405180910390f35b6100e461041b565b005b61010060048036038101906100fb9190610a1d565b61042e565b005b61010a610479565b6040516101179190610a57565b60405180910390f35b61013a600480360381019061013591906108fe565b61049e565b6040516101479190610b29565b60405180910390f35b610158610587565b6040516101659190610a57565b60405180910390f35b61018860048036038101906101839190610a1d565b6105ae565b005b60015f9054906101000a900473ffffffffffffffffffffffffffffffffffffffff1673ffffffffffffffffffffffffffffffffffffffff163373ffffffffffffffffffffffffffffffffffffffff1614610219576040517f08c379a000000000000000000000000000000000000000000000000000000000815260040161021090610b9c565b60405180910390fd5b6040518060e001604052808781526020018663ffffffff1681526020018563ffffffff1681526020018460030b81526020018360030b81526020018263ffffffff1681526020014281525060025f8881526020019081526020015f205f820151815f01556020820151816001015f6101000a81548163ffffffff021916908363ffffffff16021790555060408201518160010160046101000a81548163ffffffff021916908363ffffffff16021790555060608201518160010160086101000a81548163ffffffff021916908360030b63ffffffff160217905550608082015181600101600c6101000a81548163ffffffff021916908360030b63ffffffff16021790555060a08201518160010160106101000a81548163ffffffff021916908363ffffffff16021790555060c08201518160020155905050857f6b16f5c437ec90fdb811b46f7d2ba32de141931aab7cc27f1b85e6ca10db6be78242604051610384929190610bba565b60405180910390a2505050505050565b6002602052805f5260405f205f91509050805f015490806001015f9054906101000a900463ffffffff16908060010160049054906101000a900463ffffffff16908060010160089054906101000a900460030b9080600101600c9054906101000a900460030b908060010160109054906101000a900463ffffffff16908060020154905087565b610423610632565b61042c5f6106b9565b565b610436610632565b8060015f6101000a81548173ffffffffffffffffffffffffffffffffffffffff021916908373ffffffffffffffffffffffffffffffffffffffff16021790555050565b60015f9054906101000a900473ffffffffffffffffffffffffffffffffffffffff1681565b6104a6610781565b60025f8381526020019081526020015f206040518060e00160405290815f8201548152602001600182015f9054906101000a900463ffffffff1663ffffffff1663ffffffff1681526020016001820160049054906101000a900463ffffffff1663ffffffff1663ffffffff1681526020016001820160089054906101000a900460030b60030b60030b815260200160018201600c9054906101000a900460030b60030b60030b81526020016001820160109054906101000a900463ffffffff1663ffffffff1663ffffffff1681526020016002820154815250509050919050565b5f805f9054906101000a900473ffffffffffffffffffffffffffffffffffffffff16905090565b6105b6610632565b5f73ffffffffffffffffffffffffffffffffffffffff168173ffffffffffffffffffffffffffffffffffffffff1603610626575f6040517f1e4fbdf700000000000000000000000000000000000000000000000000000000815260040161061d9190610a57565b60405180910390fd5b61062f816106b9565b50565b61063a61077a565b73ffffffffffffffffffffffffffffffffffffffff16610658610587565b73ffffffffffffffffffffffffffffffffffffffff16146106b75761067b61077a565b6040517f118cdaa70000000000000000000000000000000000000000000000000000000081526004016106ae9190610a57565b60405180910390fd5b565b5f805f9054906101000a900473ffffffffffffffffffffffffffffffffffffffff169050815f806101000a81548173ffffffffffffffffffffffffffffffffffffffff021916908373ffffffffffffffffffffffffffffffffffffffff1602179055508173ffffffffffffffffffffffffffffffffffffffff168173ffffffffffffffffffffffffffffffffffffffff167f8be0079c531659141344cd1fd0a4f28419497f9722a3daafe3b4186f6b6457e060405160405180910390a35050565b5f33905090565b6040518060e001604052805f81526020015f63ffffffff1681526020015f63ffffffff1681526020015f60030b81526020015f60030b81526020015f63ffffffff1681526020015f81525090565b5f80fd5b5f819050919050565b6107e5816107d3565b81146107ef575f80fd5b50565b5f81359050610800816107dc565b92915050565b5f63ffffffff82169050919050565b61081e81610806565b8114610828575f80fd5b50565b5f8135905061083981610815565b92915050565b5f8160030b9050919050565b6108548161083f565b811461085e575f80fd5b50565b5f8135905061086f8161084b565b92915050565b5f805f805f8060c0878903121561088f5761088e6107cf565b5b5f61089c89828a016107f2565b96505060206108ad89828a0161082b565b95505060406108be89828a0161082b565b94505060606108cf89828a01610861565b93505060806108e089828a01610861565b92505060a06108f189828a0161082b565b9150509295509295509295565b5f60208284031215610913576109126107cf565b5b5f610920848285016107f2565b91505092915050565b610932816107d3565b82525050565b61094181610806565b82525050565b6109508161083f565b82525050565b5f60e0820190506109695f83018a610929565b6109766020830189610938565b6109836040830188610938565b6109906060830187610947565b61099d6080830186610947565b6109aa60a0830185610938565b6109b760c0830184610929565b98975050505050505050565b5f73ffffffffffffffffffffffffffffffffffffffff82169050919050565b5f6109ec826109c3565b9050919050565b6109fc816109e2565b8114610a06575f80fd5b50565b5f81359050610a17816109f3565b92915050565b5f60208284031215610a3257610a316107cf565b5b5f610a3f84828501610a09565b91505092915050565b610a51816109e2565b82525050565b5f602082019050610a6a5f830184610a48565b92915050565b610a79816107d3565b82525050565b610a8881610806565b82525050565b610a978161083f565b82525050565b60e082015f820151610ab15f850182610a70565b506020820151610ac46020850182610a7f565b506040820151610ad76040850182610a7f565b506060820151610aea6060850182610a8e565b506080820151610afd6080850182610a8e565b5060a0820151610b1060a0850182610a7f565b5060c0820151610b2360c0850182610a70565b50505050565b5f60e082019050610b3c5f830184610a9d565b92915050565b5f82825260208201905092915050565b7f4e6f7420617574686f72697a6564206f7261636c6500000000000000000000005f82015250565b5f610b86601583610b42565b9150610b9182610b52565b602082019050919050565b5f6020820190508181035f830152610bb381610b7a565b9050919050565b5f604082019050610bcd5f830185610938565b610bda6020830184610929565b939250505056fea2646970667358221220fe1ff0172f45ec50c09fc0af221693e47ae8a6cb76102da9ca98a3083716cfa864736f6c63430008190033",
  "linkReferences": {},
  "deployedLinkReferences": {}
}