{
  "_format": "hh-sol-artifact-1",
  "contractName": "RiskRouter",
  "sourceName": "contracts/GuardianAI.sol",
  "abi": [
    {
      "inputs": [
        {
          "internalType": "address",
          "name": "_agentRegistry",
          "type": "address"
        },
        {
          "internalType": "address",
          "name": "_reputationRegistry",
          "type": "address"
        }
      ],
      "stateMutability": "nonpayable",
      "type": "constructor"
    },
    {
      "inputs": [],
      "name": "ECDSAInvalidSignature",
      "type": "error"
    },
    {
      "inputs": [
        {
          "internalType": "uint256",
          "name": "length",
          "type": "uint256"
        }
      ],
      "name": "ECDSAInvalidSignatureLength",
      "type": "error"
    },
    {
      "inputs": [
        {
          "internalType": "bytes32",
          "name": "s",
          "type": "bytes32"
        }
      ],
      "name": "ECDSAInvalidSignatureS",
      "type": "error"
    },
    {
      "inputs": [],
      "name": "InvalidShortString",
      "type": "error"
    },
    {
      "inputs": [
        {
          "internalType": "address",
          "name": "owner",
          "type": "address"
        }
      ],
      "name": "OwnableInvalidOwner",
      "type": "error"
    },
    {
      "inputs": [
        {
          "internalType": "address",
          "name": "account",
          "type": "address"
        }
      ],
      "name": "OwnableUnauthorizedAccount",
      "type": "error"
    },
    {
      "inputs": [
        {
          "internalType": "string",
          "name": "str",
          "type": "string"
        }
      ],
      "name": "StringTooLong",
      "type": "error"
    },
    {
      "anonymous": false,
      "inputs": [
        {
          "indexed": false,
          "internalType": "address",
          "name": "resetBy",
          "type": "address"
        },
        {
          "indexed": false,
          "internalType": "uint256",
          "name": "timestamp",
          "type": "uint256"
        }
      ],
      "name": "CircuitBreakerReset",
      "type": "event"
    },
    {
      "anonymous": false,
      "inputs": [
        {
          "indexed": false,
          "internalType": "address",
          "name": "triggeredBy",
          "type": "address"
        },
        {
          "indexed": false,
          "internalType": "uint256",
          "name": "timestamp",
          "type": "uint256"
        }
      ],
      "name": "CircuitBreakerTripped",
      "type": "event"
    },
    {
      "anonymous": false,
      "inputs": [],
      "name": "EIP712DomainChanged",
      "type": "event"
    },
    {
      "anonymous": false,
      "inputs": [
        {
          "indexed": true,
          "internalType": "address",
          "name": "previousOwner",
          "type": "address"
        },
        {
          "indexed": true,
          "internalType": "address",
          "name": "newOwner",
          "type": "address"
        }
      ],
      "name": "OwnershipTransferred",
      "type": "event"
    },
    {
      "anonymous": false,
      "inputs": [
        {
          "indexed": true,
          "internalType": "bytes32",
          "name": "intentHash",
          "type": "bytes32"
        },
        {
          "indexed": true,
          "internalType": "address",
          "name": "agent",
          "type": "address"
        },
        {
          "indexed": false,
          "internalType": "bytes32",
          "name": "riskArtifactHash",
          "type": "bytes32"
        },
        {
          "indexed": false,
          "internalType": "uint256",
          "name": "timestamp",
          "type": "uint256"
        }
      ],
      "name": "TradeIntentReceived",
      "type": "event"
    },
    {
      "inputs": [
        {
          "internalType": "address",
          "name": "",
          "type": "address"
        }
      ],
      "name": "agentNonces",
      "outputs": [
        {
          "internalType": "uint256",
          "name": "",
          "type": "uint256"
        }
      ],
      "stateMutability": "view",
      "type": "function"
    },
    {
      "inputs": [],
      "name": "agentRegistry",
      "outputs": [
        {
          "internalType": "address",
          "name": "",
          "type": "address"
        }
      ],
      "stateMutability": "view",
      "type": "function"
    },
    {
      "inputs": [],
      "name": "circuitBreakerTripped",
      "outputs": [
        {
          "internalType": "bool",
          "name": "",
          "type": "bool"
        }
      ],
      "stateMutability": "view",
      "type": "function"
    },
    {
      "inputs": [],
      "name": "eip712Domain",
      "outputs": [
        {
          "internalType": "bytes1",
          "name": "fields",
          "type": "bytes1"
        },
        {
          "internalType": "string",
          "name": "name",
          "type": "string"
        },
        {
          "internalType": "string",
          "name": "version",
          "type": "string"
        },
        {
          "internalType": "uint256",
          "name": "chainId",
          "type": "uint256"
        },
        {
          "internalType": "address",
          "name": "verifyingContract",
          "type": "address"
        },
        {
          "internalType": "bytes32",
          "name": "salt",
          "type": "bytes32"
        },
        {
          "internalType": "uint256[]",
          "name": "extensions",
          "type": "uint256[]"
        }
      ],
      "stateMutability": "view",
      "type": "function"
    },
    {
      "inputs": [],
      "name": "getIntentTypehash",
      "outputs": [
        {
          "internalType": "bytes32",
          "name": "",
          "type": "bytes32"
        }
      ],
      "stateMutability": "pure",
      "type": "function"
    },
    {
      "inputs": [],
      "name": "owner",
      "outputs": [
        {
          "internalType": "address",
          "name": "",
          "type": "address"
        }
      ],
      "stateMutability": "view",
      "type": "function"
    },
    {
      "inputs": [
        {
          "internalType": "bytes32",
          "name": "",
          "type": "bytes32"
        }
      ],
      "name": "processedIntents",
      "outputs": [
        {
          "internalType": "bool",
          "name": "",
          "type": "bool"
        }
      ],
      "stateMutability": "view",
      "type": "function"
    },
    {
      "inputs": [],
      "name": "renounceOwnership",
      "outputs": [],
      "stateMutability": "nonpayable",
      "type": "function"
    },
    {
      "inputs": [],
      "name": "reputationRegistry",
      "outputs": [
        {
          "internalType": "address",
          "name": "",
          "type": "address"
        }
      ],
      "stateMutability": "view",
      "type": "function"
    },
    {
      "inputs": [],
      "name": "resetCircuitBreaker",
      "outputs": [],
      "stateMutability": "nonpayable",
      "type": "function"
    },
    {
      "inputs": [
        {
          "components": [
            {
              "internalType": "address",
              "name": "agent",
              "type": "address"
            },
            {
              "internalType": "address",
              "name": "tokenIn",
              "type": "address"
            },
            {
              "internalType": "address",
              "name": "tokenOut",
              "type": "address"
            },
            {
              "internalType": "uint256",
              "name": "amountIn",
              "type": "uint256"
            },
            {
              "internalType": "uint256",
              "name": "maxSlippageBps",
              "type": "uint256"
            },
            {
              "internalType": "uint256",
              "name": "deadline",
              "type": "uint256"
            },
            {
              "internalType": "bytes32",
              "name": "riskArtifactHash",
              "type": "bytes32"
            },
            {
              "internalType": "uint256",
              "name": "nonce",
              "type": "uint256"
            }
          ],
          "internalType": "struct RiskRouter.TradeIntent",
          "name": "intent",
          "type": "tuple"
        },
        {
          "internalType": "bytes",
          "name": "signature",
          "type": "bytes"
        }
      ],
      "name": "submitTradeIntent",
      "outputs": [
        {
          "internalType": "bytes32",
          "name": "intentHash",
          "type": "bytes32"
        }
      ],
      "stateMutability": "nonpayable",
      "type": "function"
    },
    {
      "inputs": [
        {
          "internalType": "address",
          "name": "newOwner",
          "type": "address"
        }
      ],
      "name": "transferOwnership",
      "outputs": [],
      "stateMutability": "nonpayable",
      "type": "function"
    },
    {
      "inputs": [],
      "name": "tripCircuitBreaker",
      "outputs": [],
      "stateMutability": "nonpayable",
      "type": "function"
    }
  ],
  "bytecode": "0x610160604052348015610010575f80fd5b5060405161240038038061240083398181016040528101906100329190610485565b336040518060400160405280601581526020017f477561726469616e4149205269736b526f7574657200000000000000000000008152506040518060400160405280600181526020017f31000000000000000000000000000000000000000000000000000000000000008152506100b25f8361024f60201b90919060201c565b61012081815250506100ce60018261024f60201b90919060201c565b6101408181525050818051906020012060e08181525050808051906020012061010081815250504660a0818152505061010b61029c60201b60201c565b608081815250503073ffffffffffffffffffffffffffffffffffffffff1660c08173ffffffffffffffffffffffffffffffffffffffff168152505050505f73ffffffffffffffffffffffffffffffffffffffff168173ffffffffffffffffffffffffffffffffffffffff16036101b8575f6040517f1e4fbdf70000000000000000000000000000000000000000000000000000000081526004016101af91906104d2565b60405180910390fd5b6101c7816102f660201b60201c565b508160035f6101000a81548173ffffffffffffffffffffffffffffffffffffffff021916908373ffffffffffffffffffffffffffffffffffffffff1602179055508060045f6101000a81548173ffffffffffffffffffffffffffffffffffffffff021916908373ffffffffffffffffffffffffffffffffffffffff1602179055505050610985565b5f60208351101561027057610269836103b960201b60201c565b9050610296565b826102808361041e60201b60201c565b5f01908161028e9190610725565b5060ff5f1b90505b92915050565b5f7f8b73c3c69bb8fe3d512ecc4cf759cc79239f7b179b0ffacaa9a75d522b39400f60e0516101005146306040516020016102db95949392919061081b565b60405160208183030381529060405280519060200120905090565b5f60025f9054906101000a900473ffffffffffffffffffffffffffffffffffffffff1690508160025f6101000a81548173ffffffffffffffffffffffffffffffffffffffff021916908373ffffffffffffffffffffffffffffffffffffffff1602179055508173ffffffffffffffffffffffffffffffffffffffff168173ffffffffffffffffffffffffffffffffffffffff167f8be0079c531659141344cd1fd0a4f28419497f9722a3daafe3b4186f6b6457e060405160405180910390a35050565b5f80829050601f8151111561040557826040517f305a27a90000000000000000000000000000000000000000000000000000000081526004016103fc91906108d2565b60405180910390fd5b8051816104119061091f565b5f1c175f1b915050919050565b5f819050919050565b5f80fd5b5f73ffffffffffffffffffffffffffffffffffffffff82169050919050565b5f6104548261042b565b9050919050565b6104648161044a565b811461046e575f80fd5b50565b5f8151905061047f8161045b565b92915050565b5f806040838503121561049b5761049a610427565b5b5f6104a885828601610471565b92505060206104b985828601610471565b9150509250929050565b6104cc8161044a565b82525050565b5f6020820190506104e55f8301846104c3565b92915050565b5f81519050919050565b7f4e487b71000000000000000000000000000000000000000000000000000000005f52604160045260245ffd5b7f4e487b71000000000000000000000000000000000000000000000000000000005f52602260045260245ffd5b5f600282049050600182168061056657607f821691505b60208210810361057957610578610522565b5b50919050565b5f819050815f5260205f209050919050565b5f6020601f8301049050919050565b5f82821b905092915050565b5f600883026105db7fffffffffffffffffffffffffffffffffffffffffffffffffffffffffffffffff826105a0565b6105e586836105a0565b95508019841693508086168417925050509392505050565b5f819050919050565b5f819050919050565b5f61062961062461061f846105fd565b610606565b6105fd565b9050919050565b5f819050919050565b6106428361060f565b61065661064e82610630565b8484546105ac565b825550505050565b5f90565b61066a61065e565b610675818484610639565b505050565b5b818110156106985761068d5f82610662565b60018101905061067b565b5050565b601f8211156106dd576106ae8161057f565b6106b784610591565b810160208510156106c6578190505b6106da6106d285610591565b83018261067a565b50505b505050565b5f82821c905092915050565b5f6106fd5f19846008026106e2565b1980831691505092915050565b5f61071583836106ee565b9150826002028217905092915050565b61072e826104eb565b67ffffffffffffffff811115610747576107466104f5565b5b610751825461054f565b61075c82828561069c565b5f60209050601f83116001811461078d575f841561077b578287015190505b610785858261070a565b8655506107ec565b601f19841661079b8661057f565b5f5b828110156107c25784890151825560018201915060208501945060208101905061079d565b868310156107df57848901516107db601f8916826106ee565b8355505b6001600288020188555050505b505050505050565b5f819050919050565b610806816107f4565b82525050565b610815816105fd565b82525050565b5f60a08201905061082e5f8301886107fd565b61083b60208301876107fd565b61084860408301866107fd565b610855606083018561080c565b61086260808301846104c3565b9695505050505050565b5f82825260208201905092915050565b8281835e5f83830152505050565b5f601f19601f8301169050919050565b5f6108a4826104eb565b6108ae818561086c565b93506108be81856020860161087c565b6108c78161088a565b840191505092915050565b5f6020820190508181035f8301526108ea818461089a565b905092915050565b5f81519050919050565b5f819050602082019050919050565b5f61091682516107f4565b80915050919050565b5f610929826108f2565b82610933846108fc565b905061093e8161090b565b9250602082101561097e576109797fffffffffffffffffffffffffffffffffffffffffffffffffffffffffffffffff836020036008026105a0565b831692505b5050919050565b60805160a05160c05160e051610100516101205161014051611a2a6109d65f395f610b0501525f610aca01525f610edd01525f610ebc01525f610b3a01525f610b9001525f610bb90152611a2a5ff3fe608060405234801561000f575f80fd5b50600436106100cd575f3560e01c806384b0196e1161008a578063c2c8a00811610064578063c2c8a008146101e1578063c8db44e314610211578063de5f8d931461022f578063f2fde38b14610239576100cd565b806384b0196e146101815780638da5cb5b146101a55780639513cdfa146101c3576100cd565b80630456d1ec146100d15780630d1cfcae1461010157806318531d771461011f57806326f900991461013d57806359ab03211461016d578063715018a614610177575b5f80fd5b6100eb60048036038101906100e69190611160565b610255565b6040516100f891906111d7565b60405180910390f35b610109610660565b604051610116919061122f565b60405180910390f35b610127610685565b6040516101349190611262565b60405180910390f35b610157600480360381019061015291906112a5565b610698565b60405161016491906112e8565b60405180910390f35b6101756106ad565b005b61017f61070b565b005b61018961071e565b60405161019c9796959493929190611462565b60405180910390f35b6101ad6107c3565b6040516101ba919061122f565b60405180910390f35b6101cb6107eb565b6040516101d891906111d7565b60405180910390f35b6101fb60048036038101906101f6919061150e565b610812565b6040516102089190611262565b60405180910390f35b61021961082f565b604051610226919061122f565b60405180910390f35b610237610854565b005b610253600480360381019061024e91906112a5565b6108b1565b005b5f600460149054906101000a900460ff16156102a6576040517f08c379a000000000000000000000000000000000000000000000000000000000815260040161029d90611583565b60405180910390fd5b428460a0013510156102ed576040517f08c379a00000000000000000000000000000000000000000000000000000000081526004016102e4906115eb565b60405180910390fd5b5f7fdd155a7c2340d28e64fcd098f0398befa9381ed603f8c1aaa88372bb9722ba78855f01602081019061032191906112a5565b86602001602081019061033491906112a5565b87604001602081019061034791906112a5565b886060013589608001358a60a001358b60c001358c60e0013560405160200161037899989796959493929190611609565b60405160208183030381529060405280519060200120905061039981610935565b915060065f8381526020019081526020015f205f9054906101000a900460ff16156103f9576040517f08c379a00000000000000000000000000000000000000000000000000000000081526004016103f0906116de565b60405180910390fd5b5f61045085858080601f0160208091040260200160405190810160405280939291908181526020018383808284375f81840152601f19601f820116905080830192505050505050508461094e90919063ffffffff16565b9050855f01602081019061046491906112a5565b73ffffffffffffffffffffffffffffffffffffffff168173ffffffffffffffffffffffffffffffffffffffff16146104d1576040517f08c379a00000000000000000000000000000000000000000000000000000000081526004016104c890611746565b60405180910390fd5b60055f875f0160208101906104e691906112a5565b73ffffffffffffffffffffffffffffffffffffffff1673ffffffffffffffffffffffffffffffffffffffff1681526020019081526020015f20548660e0013514610565576040517f08c379a000000000000000000000000000000000000000000000000000000000815260040161055c906117ae565b60405180910390fd5b60055f875f01602081019061057a91906112a5565b73ffffffffffffffffffffffffffffffffffffffff1673ffffffffffffffffffffffffffffffffffffffff1681526020019081526020015f205f8154809291906105c3906117f9565b9190505550600160065f8581526020019081526020015f205f6101000a81548160ff021916908315150217905550855f01602081019061060391906112a5565b73ffffffffffffffffffffffffffffffffffffffff16837ff407ec165e9341802503744d7affc5f2ab89fe73ce9139d01187fd2a75b1e8778860c001354260405161064f929190611840565b60405180910390a350509392505050565b60035f9054906101000a900473ffffffffffffffffffffffffffffffffffffffff1681565b600460149054906101000a900460ff1681565b6005602052805f5260405f205f915090505481565b6106b5610978565b6001600460146101000a81548160ff0219169083151502179055507f740691573048f50495383f68a229458dadfcdae5c78e54d17356de53aaf11ce73342604051610701929190611867565b60405180910390a1565b610713610978565b61071c5f6109ff565b565b5f6060805f805f606061072f610ac2565b610737610afc565b46305f801b5f67ffffffffffffffff8111156107565761075561188e565b5b6040519080825280602002602001820160405280156107845781602001602082028036833780820191505090505b507f0f00000000000000000000000000000000000000000000000000000000000000959493929190965096509650965096509650965090919293949596565b5f60025f9054906101000a900473ffffffffffffffffffffffffffffffffffffffff16905090565b5f7fdd155a7c2340d28e64fcd098f0398befa9381ed603f8c1aaa88372bb9722ba78905090565b6006602052805f5260405f205f915054906101000a900460ff1681565b60045f9054906101000a900473ffffffffffffffffffffffffffffffffffffffff1681565b61085c610978565b5f600460146101000a81548160ff0219169083151502179055507fdf2c80869f8349ad696d44d9b3bd9e12796ede774eccaeefcf974f9629d223fa33426040516108a7929190611867565b60405180910390a1565b6108b9610978565b5f73ffffffffffffffffffffffffffffffffffffffff168173ffffffffffffffffffffffffffffffffffffffff1603610929575f6040517f1e4fbdf7000000000000000000000000000000000000000000000000000000008152600401610920919061122f565b60405180910390fd5b610932816109ff565b50565b5f610947610941610b37565b83610bed565b9050919050565b5f805f8061095c8686610c2d565b92509250925061096c8282610c82565b82935050505092915050565b610980610de4565b73ffffffffffffffffffffffffffffffffffffffff1661099e6107c3565b73ffffffffffffffffffffffffffffffffffffffff16146109fd576109c1610de4565b6040517f118cdaa70000000000000000000000000000000000000000000000000000000081526004016109f4919061122f565b60405180910390fd5b565b5f60025f9054906101000a900473ffffffffffffffffffffffffffffffffffffffff1690508160025f6101000a81548173ffffffffffffffffffffffffffffffffffffffff021916908373ffffffffffffffffffffffffffffffffffffffff1602179055508173ffffffffffffffffffffffffffffffffffffffff168173ffffffffffffffffffffffffffffffffffffffff167f8be0079c531659141344cd1fd0a4f28419497f9722a3daafe3b4186f6b6457e060405160405180910390a35050565b6060610af75f7f0000000000000000000000000000000000000000000000000000000000000000610deb90919063ffffffff16565b905090565b6060610b3260017f0000000000000000000000000000000000000000000000000000000000000000610deb90919063ffffffff16565b905090565b5f7f000000000000000000000000000000000000000000000000000000000000000073ffffffffffffffffffffffffffffffffffffffff163073ffffffffffffffffffffffffffffffffffffffff16148015610bb257507f000000000000000000000000000000000000000000000000000000000000000046145b15610bdf577f00000000000000000000000000000000000000000000000000000000000000009050610bea565b610be7610e98565b90505b90565b5f6040517f190100000000000000000000000000000000000000000000000000000000000081528360028201528260228201526042812091505092915050565b5f805f6041845103610c6d575f805f602087015192506040870151915060608701515f1a9050610c5f88828585610f2d565b955095509550505050610c7b565b5f600285515f1b9250925092505b9250925092565b5f6003811115610c9557610c946118bb565b5b826003811115610ca857610ca76118bb565b5b0315610de05760016003811115610cc257610cc16118bb565b5b826003811115610cd557610cd46118bb565b5b03610d0c576040517ff645eedf00000000000000000000000000000000000000000000000000000000815260040160405180910390fd5b60026003811115610d2057610d1f6118bb565b5b826003811115610d3357610d326118bb565b5b03610d7757805f1c6040517ffce698f7000000000000000000000000000000000000000000000000000000008152600401610d6e91906112e8565b60405180910390fd5b600380811115610d8a57610d896118bb565b5b826003811115610d9d57610d9c6118bb565b5b03610ddf57806040517fd78bce0c000000000000000000000000000000000000000000000000000000008152600401610dd691906111d7565b60405180910390fd5b5b5050565b5f33905090565b606060ff5f1b8314610e0757610e0083611014565b9050610e92565b818054610e1390611915565b80601f0160208091040260200160405190810160405280929190818152602001828054610e3f90611915565b8015610e8a5780601f10610e6157610100808354040283529160200191610e8a565b820191905f5260205f20905b815481529060010190602001808311610e6d57829003601f168201915b505050505090505b92915050565b5f7f8b73c3c69bb8fe3d512ecc4cf759cc79239f7b179b0ffacaa9a75d522b39400f7f00000000000000000000000000000000000000000000000000000000000000007f00000000000000000000000000000000000000000000000000000000000000004630604051602001610f12959493929190611945565b60405160208183030381529060405280519060200120905090565b5f805f7f7fffffffffffffffffffffffffffffff5d576e7357a4501ddfe92f46681b20a0845f1c1115610f69575f60038592509250925061100a565b5f6001888888886040515f8152602001604052604051610f8c94939291906119b1565b6020604051602081039080840390855afa158015610fac573d5f803e3d5ffd5b5050506020604051035190505f73ffffffffffffffffffffffffffffffffffffffff168173ffffffffffffffffffffffffffffffffffffffff1603610ffd575f60015f801b9350935093505061100a565b805f805f1b935093509350505b9450945094915050565b60605f61102083611086565b90505f602067ffffffffffffffff81111561103e5761103d61188e565b5b6040519080825280601f01601f1916602001820160405280156110705781602001600182028036833780820191505090505b5090508181528360208201528092505050919050565b5f8060ff835f1c169050601f8111156110cb576040517fb3512b0c00000000000000000000000000000000000000000000000000000000815260040160405180910390fd5b80915050919050565b5f80fd5b5f80fd5b5f80fd5b5f61010082840312156110f6576110f56110dc565b5b81905092915050565b5f80fd5b5f80fd5b5f80fd5b5f8083601f8401126111205761111f6110ff565b5b8235905067ffffffffffffffff81111561113d5761113c611103565b5b60208301915083600182028301111561115957611158611107565b5b9250929050565b5f805f6101208486031215611178576111776110d4565b5b5f611185868287016110e0565b93505061010084013567ffffffffffffffff8111156111a7576111a66110d8565b5b6111b38682870161110b565b92509250509250925092565b5f819050919050565b6111d1816111bf565b82525050565b5f6020820190506111ea5f8301846111c8565b92915050565b5f73ffffffffffffffffffffffffffffffffffffffff82169050919050565b5f611219826111f0565b9050919050565b6112298161120f565b82525050565b5f6020820190506112425f830184611220565b92915050565b5f8115159050919050565b61125c81611248565b82525050565b5f6020820190506112755f830184611253565b92915050565b6112848161120f565b811461128e575f80fd5b50565b5f8135905061129f8161127b565b92915050565b5f602082840312156112ba576112b96110d4565b5b5f6112c784828501611291565b91505092915050565b5f819050919050565b6112e2816112d0565b82525050565b5f6020820190506112fb5f8301846112d9565b92915050565b5f7fff0000000000000000000000000000000000000000000000000000000000000082169050919050565b61133581611301565b82525050565b5f81519050919050565b5f82825260208201905092915050565b8281835e5f83830152505050565b5f601f19601f8301169050919050565b5f61137d8261133b565b6113878185611345565b9350611397818560208601611355565b6113a081611363565b840191505092915050565b5f81519050919050565b5f82825260208201905092915050565b5f819050602082019050919050565b6113dd816112d0565b82525050565b5f6113ee83836113d4565b60208301905092915050565b5f602082019050919050565b5f611410826113ab565b61141a81856113b5565b9350611425836113c5565b805f5b8381101561145557815161143c88826113e3565b9750611447836113fa565b925050600181019050611428565b5085935050505092915050565b5f60e0820190506114755f83018a61132c565b81810360208301526114878189611373565b9050818103604083015261149b8188611373565b90506114aa60608301876112d9565b6114b76080830186611220565b6114c460a08301856111c8565b81810360c08301526114d68184611406565b905098975050505050505050565b6114ed816111bf565b81146114f7575f80fd5b50565b5f81359050611508816114e4565b92915050565b5f60208284031215611523576115226110d4565b5b5f611530848285016114fa565b91505092915050565b7f4369726375697420627265616b657220697320616374697665000000000000005f82015250565b5f61156d601983611345565b915061157882611539565b602082019050919050565b5f6020820190508181035f83015261159a81611561565b9050919050565b7f496e74656e7420657870697265640000000000000000000000000000000000005f82015250565b5f6115d5600e83611345565b91506115e0826115a1565b602082019050919050565b5f6020820190508181035f830152611602816115c9565b9050919050565b5f6101208201905061161d5f83018c6111c8565b61162a602083018b611220565b611637604083018a611220565b6116446060830189611220565b61165160808301886112d9565b61165e60a08301876112d9565b61166b60c08301866112d9565b61167860e08301856111c8565b6116866101008301846112d9565b9a9950505050505050505050565b7f496e74656e7420616c72656164792070726f63657373656400000000000000005f82015250565b5f6116c8601883611345565b91506116d382611694565b602082019050919050565b5f6020820190508181035f8301526116f5816116bc565b9050919050565b7f496e76616c6964206167656e74207369676e61747572650000000000000000005f82015250565b5f611730601783611345565b915061173b826116fc565b602082019050919050565b5f6020820190508181035f83015261175d81611724565b9050919050565b7f496e76616c6964206e6f6e6365000000000000000000000000000000000000005f82015250565b5f611798600d83611345565b91506117a382611764565b602082019050919050565b5f6020820190508181035f8301526117c58161178c565b9050919050565b7f4e487b71000000000000000000000000000000000000000000000000000000005f52601160045260245ffd5b5f611803826112d0565b91507fffffffffffffffffffffffffffffffffffffffffffffffffffffffffffffffff8203611835576118346117cc565b5b600182019050919050565b5f6040820190506118535f8301856111c8565b61186060208301846112d9565b9392505050565b5f60408201905061187a5f830185611220565b61188760208301846112d9565b9392505050565b7f4e487b71000000000000000000000000000000000000000000000000000000005f52604160045260245ffd5b7f4e487b71000000000000000000000000000000000000000000000000000000005f52602160045260245ffd5b7f4e487b71000000000000000000000000000000000000000000000000000000005f52602260045260245ffd5b5f600282049050600182168061192c57607f821691505b60208210810361193f5761193e6118e8565b5b50919050565b5f60a0820190506119585f8301886111c8565b61196560208301876111c8565b61197260408301866111c8565b61197f60608301856112d9565b61198c6080830184611220565b9695505050505050565b5f60ff82169050919050565b6119ab81611996565b82525050565b5f6080820190506119c45f8301876111c8565b6119d160208301866119a2565b6119de60408301856111c8565b6119eb60608301846111c8565b9594505050505056fea26469706673582212202bb551235e3fc527d4134a949a8402721649f79890ff32c2bddaf7f7ff0c8a7c64736f6c63430008190033",
  "linkReferences": {},
  "deployedLinkReferences": {}
}